:020000040800F2
:1000000000450020C10100081118000885130008F0
:100010000D180008CD020008491A00080000000071
:10002000000000000000000000000000911800081F
:10003000D10200080000000021180008BD180008C7
:10004000DB010008DB010008DB010008DB01000820
:10005000DB010008DB010008DB010008DB01000810
:10006000DB010008DB010008DB010008DB01000800
:10007000DB010008DB010008DB010008DB010008F0
:10008000DB010008DB010008DB010008DB010008E0
:10009000DB010008DB010008DB010008DB010008D0
:1000A000DB01000809190008DB010008DB0100087A
:1000B000DB010008DB010008DB010008DB010008B0
:1000C000DB010008DB010008DB010008DB010008A0
:1000D000DB010008DB010008DB010008DB01000890
:1000E000DB010008DB010008DB010008DB01000880
:1000F000DB010008DB010008DB010008DB01000870
:10010000DB010008DB010008DB010008DB0100085F
:10011000DB010008DB010008DB010008DB0100084F
:10012000DB010008DB010008DB010008DB0100083F
:10013000DB010008DB010008DB010008DB0100082F
:10014000DB010008DB010008DB010008DB0100081F
:10015000DB010008DB010008DB010008DB0100080F
:10016000DB010008DB010008DB010008DB010008FF
:10017000DB010008DB010008DB01000800000000D3
:10018000DB010008DB010008DB010008DB010008DF
:10019000DB010008DB010008DB010008DB010008CF
:1001A000DB010008DB010008DB010008DFF80CD0F0
:1001B00000F07AF800480047851D0008004500203F
:1001C0000648804706480047FEE7FEE7FEE7FEE7F1
:1001D000FEE7FEE7FEE7FEE7FEE7FEE7ED180008B4
:1001E000AD0100082DE9F05F0546002092469B46D0
:1001F00088460646814640241BE02846414647463D
:10020000224600F041F853465A46C01A914110D395
:1002100011461846224600F028F82D1A67EB01080F
:100220004F4622460120002100F01FF817EB00097D
:100230004E41201EA4F10104DFDC484631462A4627
:100240004346BDE8F09FD2B201E000F8012B491E01
:10025000FBD270470022F6E710B513460A46044663
:100260001946FFF7F0FF204610BD202A04DB203A94
:1002700000FA02F1002070479140C2F1200320FAF9
:1002800003F3194390407047202A04DB203A21FAF7
:1002900002F00021704721FA02F3D040C2F120029F
:1002A0009140084319467047064C074D06E0E06848
:1002B00040F0010394E8070098471034AC42F6D3AD
:1002C000FFF778FF6830000888300008FEE700007C
:1002D0007047000070470000B0B5044600F0F2F827
:1002E000054640F20400C2F200000078611C18BF0D
:1002F000044400BF00F0E6F8401BA042FAD3B0BDB2
:100300002DE9F04F82B000F13E4242F2004602F188
:10031000FF72C4F2020643F6004E4FEAB2270A23E8
:10032000B042C4F2010E08BF0923092F4FF0010BA0
:100330004FF000074FF000044FF0000838BF4FEABD
:10034000B223009309E000BF08F101080434B8F1BA
:10035000100F07F1020700F09E800E680BFA08F2FA
:1003600016EA0209F0D0D1F804C0BCF1120F17D878
:100370000BFA0CF616F0061F12D00323866803FA58
:1003800007F5CB6826EA0505BB402B43836043682D
:1003900023EA0202CCF3001303FA08F31A43426083
:1003A0000323C26803FA07FA8B6822EA0A02BB40F9
:1003B0001A434CF01003122BC26011D16FF00302EC
:1003C00002EA5802024404F01C060F23D2F820C0AF
:1003D00003FA06F50B692CEA0505B3402B431362BB
:1003E00003684E686FEA0A021A4006F00303BB4036
:1003F0001A43F3000260A7D5002243F6440301929A
:10040000C4F202031A684FF6084C42F480421A60A4
:100410001A68CFF6FF7C02F480420192019A28F01C
:100420000302724452F80C3004F00C060F25B5405C
:10043000AB43009D05FA06F6334342F80C30DEF874
:1004400000204B6842EA0906DD0358BF22EA09068C
:10045000CEF80060DEF804209D0342EA090658BF8A
:1004600022EA0906CEF80460DEF80820DD0242EA3E
:10047000090643F60C4558BF22EA0906CEF8086083
:10048000C4F201052A689B0242EA090658BF22EA23
:1004900009062E6058E702B0BDE8F08F00690840F9
:1004A00018BF01207047000042690A408A4208BF15
:1004B0000904816170470000002A08BF09048161B6
:1004C0007047000043F6FC50C2F20000006870471D
:1004D00040F2040043F6FC51C2F20000C2F20001F7
:1004E00000780A68104408607047000080B543F641
:1004F0000040C4F20200016841F40071016001682B
:1005000041F480610160016841F480710160032061
:1005100000F0A6F8002000F005F800F049F80020EF
:1005200080BD000010B586B00146192000220024CD
:1005300000F06AF8192000F057F843F644000194DF
:10054000C4F20200016841F00101016000686946DF
:1005500000F001000190019801A800F07FF900F07F
:100560009DF94DF683614000C4F21B31A0FB0101EF
:100570004FF0FF3000EB914140F218000022C2F230
:100580000000C4F2010240F2E733C0E90021C0E9F3
:100590000243046100F0C4FB10B1012006B010BD9D
:1005A00040F21800C2F2000000F0FAFB06B010BDE5
:1005B00082B0002043F640010190C4F202014A6873
:1005C00042F480424A604A6802F480420192019AF1
:1005D0000090086840F080500860086800F0805083
:1005E0000090009802B07047002848BF704700F0A4
:1005F0001F01012202FA01F14EF200124009CEF26F
:10060000000242F82010704710B54EF60C5CCEF296
:10061000000CDCF80030C3F3022E8EF00704042C2B
:1006200028BF0424BEF103034FF0FF3E0EFA04F48A
:1006300038BF0023A14399400EFA03F39A4300F018
:100640000F03043B1143634409010C3300F1604282
:10065000B0F1FF3FC8BF02F56443197010BD000040
:100660004EF60C51CEF200010A684FF6FF031A4015
:1006700060F30A2242F0806040F0FD70086070472D
:1006800070B582B00020019043F64000C4F2020031
:100690000168402641F0805101600068C4F20E26D6
:1006A00000F080500190019847F204050120C4F247
:1006B00000053060FFF706FF044600BF2868C0034E
:1006C00006D4FFF7FFFE001BB0F57A7FF6D90EE0E7
:1006D00001207060FFF7F6FE044600BF2868800323
:1006E00008D4FFF7EFFE001BB0F57A7FF6D90320A0
:1006F00002B070BD002002B070BD00002DE9F041D5
:10070000002800F08B8043F60808C4F20208044673
:10071000D8F8F8030D4600F00F00884207D288F899
:10072000F853D8F8F80300F00F00A84276D12068FB
:10073000810717D5410705D5D8F8001041F4E051DD
:10074000C8F80010010705D5D8F8001041F4604141
:10075000C8F80010D8F80010A26821F0F001114389
:10076000C8F80010C0073FD1D8F8F80300F00F0018
:10077000A84207D988F8F853D8F8F80300F00F001A
:10078000A8424BD12068410707D5D8F80010E2688D
:1007900021F4E0511143C8F80010000708D5D8F83B
:1007A0000000216920F4604040EAC100C8F8000060
:1007B00000F088F8D8F8001043F23802C1F30311B2
:1007C000C0F60002515C40F2000220FA01F140F252
:1007D0000800C2F200000068C2F200021160FFF7D8
:1007E000A1FE0020BDE8F0816068811E022907D2C9
:1007F00058F8081C89015CBF0120BDE8F08110E0B9
:10080000012807D158F8081C89035CBF0120BDE806
:10081000F08106E058F8081C890702D40120BDE8E1
:10082000F081D8F8001021F003010843C8F8000057
:10083000FFF748FE064641F2883700BFD8F80000AF
:10084000616800F00C00B0EB810F8DD0FFF73AFE2D
:10085000801BB842F2D90320BDE8F0810F2202606C
:1008600043F60802C4F20202136803F00303436074
:10087000136803F0F0038360136803F4E053C3606C
:10088000D2F800C04FF4E05303EADC030361D2F86E
:10089000F80300F00F0008607047000040F200000D
:1008A00043F60801C2F20000C4F2020100680968C0
:1008B00043F24802C1F34231C0F60002515CC84025
:1008C0007047000010B543F60404C4F202046068E7
:1008D00000F00C0008280AD0042819BF42F200409A
:1008E000C0F2F40047F64000C0F27D1010BD206851
:1008F00021682368490247F64001C0F27D1100F0EB
:100900003F02C3F388105CBF42F20041C0F2F40121
:10091000A1FB00010023FFF765FC21680222C1F35F
:10092000014102EB4101B0FBF1F010BD2DE9F041B6
:1009300082B0002800F098800446007843F6000654
:10094000C007C4F2020643D0B06800F00C000428CF
:1009500005D1306880033BD56068C8BB84E0B068CF
:1009600000F00C00082802D170684002F1D46568DC
:10097000B5F5A02F0AD0B5F5803F0BD0306820F434
:1009800080303060306820F4802006E0306840F429
:1009900080203060306840F480303060FFF792FD96
:1009A000002D054611D000BF3068800310D4FFF73A
:1009B00089FD401B6428F7D918E100BFFFF782FDCD
:1009C000401B64284FF003004BD830688003F5D4F7
:1009D0002078800719D5B06810F00C0F08D0B068E7
:1009E00000F00C00082840F08080706840027CD441
:1009F0003068800702D5E068012835D13068216968
:100A000020F0F80040EAC1003060207800072FD4C1
:100A10002078400743D4A56915B3B06800F00C00F6
:100A2000082840F09580012D1ED07068E16900F41F
:100A300080028A4218D1216A00F03F028A4213D113
:100A400047F6C071626A014091420DD1A16A00F47B
:100A500040328A4208D1E16A00F07060884203D1D6
:100A6000002002B0BDE8F081012002B0BDE8F081B5
:100A70006069002840F20000C4F2472057D00121ED
:100A8000C0F8801EFFF71EFD054600BF706F80078F
:100A9000BED4FFF717FD401B0228F7D9A6E0306C43
:100AA00010F080580AD100200190306C40F0805046
:100AB0003064306C00F080500190019847F20007DC
:100AC000C4F200073868C00524D4386840F4807048
:100AD0003860FFF7F7FC05463868C0051AD4FFF701
:100AE000F1FC401B0228F7D980E0E068002851D0D3
:100AF0000020C4F2472001210160FFF7E3FC054616
:100B0000306880073FF57AAFFFF7DCFC401B022816
:100B1000F6D96BE0A568052D50D0012D52D0306F6D
:100B200020F001003067306F20F004004DE000211C
:100B3000C0F8801EFFF7C6FC054600BF706F800737
:100B40007FF566AFFFF7BEFC401B0228F6D94DE0EB
:100B50000027C4F2472700203866FFF7B3FC022DB8
:100B600005460BD13068800158D5FFF7ABFC401B20
:100B700002284FF00300F5D973E700BF3068800109
:100B80007FF56EAFFFF79EFC401B02284FF003007D
:100B9000F4D966E70020C4F2472000210160FFF786
:100BA00091FC0546306880077FF52FAFFFF78AFC80
:100BB000401B02284FF00300F4D952E7306F40F099
:100BC00004003067306F40F001003067FFF77AFCB7
:100BD000002D054641F2883714D000BF306F8007E2
:100BE00013D4FFF76FFC401BB842F7D9032002B0C3
:100BF000BDE8F081FFF766FC401BB8424FF00300F0
:100C00003FF62FAF306F8007F4D4B8F1000F7FF4B8
:100C100002AF306C20F080503064FCE604F11C051B
:100C20002FCD08430021CFF6FF7140EA821001EB7F
:100C3000C3316FF30F0140EA056008437060012083
:100C40003866FFF73FFC0446306880013FF508AF87
:100C5000FFF738FC001B02284FF00300F4D900E72F
:100C6000704700007047000010B590F83C20012A42
:100C70004FF0020252D0012380F83C3080F83D2032
:100C80000268D2F804E0D2F808C00C682EF07003B5
:100C9000234341F2FF74C4F20004A24253600DDC0E
:100CA00040F2FF73C4F200039A4215DCB2F1804FA8
:100CB00029D040F20043C4F2000322E040F2FF33A7
:100CC000C4F201039A4212DC41F60003C4F20003AD
:100CD0009A4218D0002312E040F60003C4F2000349
:100CE0009A4210D040F60043C4F2000309E044F2F7
:100CF0000003C4F201039A4205D040F20043C4F25B
:100D000001039A4204D149682CF080031943916091
:100D10000121002280F83D1080F83C20104610BDD3
:100D2000002804BF0120704710B5044690F83D002C
:100D300028B9002084F83C00204600F00DF802207D
:100D400084F83D002068211D00F0ECFD012084F8AE
:100D50003D00002010BD000080B582B0006844F264
:100D60000041C4F20101884201D002B080BD0020E0
:100D7000019043F64400C4F202000168002241F4ED
:100D8000003101600068002100F4003001900198FA
:100D90001920FFF739FC1920FFF726FC02B080BDAF
:100DA0000068C16841F00101C160816801F007017C
:100DB000062903D0016841F001010160002070475D
:100DC000006841F21112C16821F00101C160016A9D
:100DD000114201D000207047016A40F244421142A2
:100DE000F8D1016821F00101016000207047000086
:100DF0007047000010B5044600680169890744BFC8
:100E0000C1685FEA817138D420680169490744BF2D
:100E1000C1685FEA41713CD420680169090744BF99
:100E2000C1685FEA017141D420680169C90644BF05
:100E3000C1685FEAC16145D420680169C9071CBF68
:100E4000C1685FEAC1714AD120680169090644BFDF
:100E5000C1685FEA016149D420680169490644BF5D
:100E6000C1685FEA416148D420680169890644BFCE
:100E7000C1685FEA816147D410BD6FF00201016172
:100E8000012121778069800745D02046FFF7B0FF18
:100E900047E06FF00401016102212177806910F4BD
:100EA000407F41D02046FFF7A3FF43E06FF00801E9
:100EB000016104212177C06980073ED02046FFF7F9
:100EC00097FF40E06FF01001016108212177C069B0
:100ED00010F4407F3AD02046FFF78AFF3CE06FF0E5
:100EE00001010161204600F037FAADE76FF08001A3
:100EF00001612046FFF7B4FEAEE76FF040010161EB
:100F0000204600F03DFAAFE76FF020010161204676
:100F1000FFF7A8FE10BD204600F08AF8204600F03A
:100F2000F3F9002020776FE7204600F081F8204693
:100F300000F0EAF9002020776EE7204600F078F80C
:100F4000204600F0E1F9002020776DE7204600F010
:100F50006FF8204600F0D8F9002020776CE70000F9
:100F600080B586B0006840F60042C4F2000200215D
:100F70009042CDE90411CDE9021101911ED040F259
:100F80000041C4F2000188422FD0B0F1804F4DD112
:100F90000020009043F63000C4F20200016841F0E6
:100FA000010101600068012100F00100009000983B
:100FB0000C2001900020C4F202002EE043F6300025
:100FC0000091C4F20200016841F0800101600068F4
:100FD00000F08000009000984FF4406001900020E5
:100FE000C4F2020000F5E05016E00020009043F645
:100FF0003000C4F20200016841F0040101600068A1
:1010000000F00400009000984FF4707001900020F0
:10101000C4F2020000F500600221022202920022C6
:10102000059101A9CDE90322FFF76AF906B080BD59
:10103000704700002DE9F04390F83C30012B4FF051
:10104000020300F0FE804FEAB2024FF0010C032AC7
:1010500080F83CC080F83D3000F2EE80DFE802F01E
:10106000023B79B7036840F200481A6A43F480668D
:1010700022F001021A621D6A1A465C6852F818EFE3
:101080008F6825F00205C4F20108464545EA0705C8
:1010900005D1CF6825F00C0527F004073D430F6804
:1010A000464506D124F44078D1E9056446EA0806AD
:1010B00034432EF0730637435C609F614F680969C3
:1010C0005F631D629F6947F008079F619F6927F072
:1010D00004079F61ADE0036840F200481A6A43F4D8
:1010E000806622F010021A621D6A1A465C6852F885
:1010F00018EF8F6825F02005C4F20108464545EA3F
:10110000071508D1CF6825F0C0096FF0400505EA42
:10111000071545EA09050F68464507D124F44068DC
:10112000D1E9056448EA860646EA84042EF4E646D8
:1011300046EA07275C609F614F6809699F631D62EB
:101140009F6947F400679F619F6927F480679F61EB
:101150006EE0036840F200481A6A43F4806622F4A5
:1011600080721A621D6A1A465C6852F81CEF8F681A
:1011700025F40075C4F20108464545EA072509D162
:10118000CF6825F440693F0240F2FF4527EA050594
:1011900045EA09050F68464507D124F44058D1E9CE
:1011A000056448EA061646EA04142EF0730637432F
:1011B0005C60DF614F680969DF631D62DF6947F0CA
:1011C0000807DF61DF6927F00407DF6131E00368AA
:1011D00040F200461A6A43F4806422F480521A6294
:1011E0001A46D3F820E05D6852F81C8FD1F80090C1
:1011F0008F68C4F20106B44204D14C6925F48045DD
:1012000045EA84152EF4005646EA073728F4E646E8
:1012100046EA09265D60DE614E6809691E641F6248
:10122000DF6947F40067DF61DF6927F48067DF610A
:101230000902136819431160002380F83DC080F84B
:101240003C301846BDE8F083002804BF01207047F9
:1012500010B5044690F83D0028B9002084F83C0001
:10126000204600F00DF8022084F83D002068211D82
:1012700000F058FB012084F83D00002010BD000064
:1012800083B0006840F60041C4F20001884219D0E2
:1012900040F20041C4F20001884224D0B0F1804FF6
:1012A0001FD10020029043F64000C4F20200016802
:1012B00041F001010160006800F001000290029815
:1012C00003B070470020009043F64000C4F20200D3
:1012D000016841F008010160006800F0080000901A
:1012E000009803B070470020019043F64000C4F21C
:1012F0000200016841F002010160006800F0020094
:101300000190019803B0704770470000006801F039
:101310001F010122036A02FA01F123EA01020262BB
:10132000D0F820C040F2004240F48063C4F20102D1
:10133000934241EA0C01016203D1416C41F4004146
:101340004164816801F00701062903D0016841F07A
:10135000010101600020704780B501680022C4F2DD
:101360000102914208D040F25801C2F200018842C5
:1013700008BF00F06BFB80BDFFF7AAF880BD00003E
:1013800070470000FEE700002DE9F04190B043F205
:101390000000C0F6000090E81E50806909AD85E8A5
:1013A0001E500F9009A800214FF0000800F038FEF1
:1013B00040F21005C2F20005286043F21C00C0F69E
:1013C000000090E8DE0080690DF1080C8CE8DE007A
:1013D000089002A8002100F023FE2860042000905D
:1013E00041F6FD70C0F6000005A14FF480620023B5
:1013F000CDF8048001F06CFB10B0BDE8F08100BFB7
:101400006161616100000000F0B587B0002643F61D
:1014100030000696CDE90466CDE902660196C4F275
:101420000200016840F2004441F0100101600168CF
:10143000C4F2020401F010010191019901960168C2
:10144000002241F0040101600168012701F004015C
:10145000019101990196016841F480710160016870
:1014600001F48071019101990196016841F0200118
:101470000160016801F02001019101990196016864
:1014800041F080010160016801F080010191019942
:101490000196016841F001010160016801F001015C
:1014A000019101990196016841F002010160016812
:1014B00001F00201019101990196016841F00801D2
:1014C0000160016801F0080101910199019601682C
:1014D00041F0400101600068012100F040000190EE
:1014E00001982046FEF7E8FF702002ADCDE9020624
:1014F00004F5406029460496FEF702FF40F6F3002B
:10150000CDE9020604F5E05029460496FEF7F8FE00
:101510004FF4E070CDE9020604F5805029460496A8
:10152000FEF7EEFEA4F580602946CDE9027604962A
:10153000FEF7E6FE4FF4E270CDE9020604F5C05076
:1015400029460496FEF7DCFE0220CDE9040620467B
:101550002946CDE90277FEF7D3FE4FF47040CDE97E
:101560000206204629460496FEF7CAFE4FF4C050F4
:10157000CDE9020604F5806029460496FEF7C0FE18
:101580008C20CDE9020604F5006029460496FEF79A
:10159000B7FE4FF43050CDE9020604F5A0502946BD
:1015A0000496FEF7ADFE07B0F0BD000080B540F236
:1015B000580044F20041C2F20000C4F201010023CD
:1015C000B3224FF0630C80E80E1003618361FFF7D4
:1015D000A7FB002818BFFEF77DFE80BD10B58AB0BE
:1015E00040F298000024C2F200004FF0804140F227
:1015F000E7330994CDE90744CDE90544CDE9034437
:10160000CDE90144112280E81600C0E90334846169
:10161000FFF71AFE002818BFFEF75CFE40F29800A4
:10162000C2F2000008A9CDE90844FFF71DFB00281D
:1016300018BFFEF74FFE602001900020CDE90200A8
:10164000059040F29800C2F2000001A90822FFF7BD
:10165000F1FC002818BFFEF73DFE40F29800C2F2F0
:10166000000001A90C22FFF7E5FC002818BFFEF7D7
:1016700031FE40F29800C2F20000FFF771FC0AB0A0
:1016800010BD000010B58AB040F2D80040F2004111
:101690000024C2F20000C4F2000140F2E7330994D2
:1016A000CDE90744CDE90544CDE90344CDE9014442
:1016B000112280E81600C0E903348461FFF7C4FDFD
:1016C000002818BFFEF706FE40F2D800C2F2000064
:1016D00008A9CDE90844FFF7C7FA002818BFFEF7AC
:1016E000F9FD602001900020CDE90200059040F254
:1016F000D800C2F2000001A90022FFF79BFC0028DD
:1017000018BFFEF7E7FD40F2D800C2F2000001A9C1
:101710000422FFF78FFC002818BFFEF7DBFD40F224
:10172000D800C2F2000001A90822FFF783FC0028BC
:1017300018BFFEF7CFFD40F2D800C2F2000001A9A9
:101740000C22FFF777FC002818BFFEF7C3FD40F21C
:10175000D800C2F20000FFF703FC0AB010BD000081
:1017600010B58AB040F2181040F600410024C2F2D1
:101770000000C4F2000140F2E7330994CDE90744C8
:10178000CDE90544CDE90344CDE90144112280E8C7
:101790001600C0E903348461FFF756FD002818BF26
:1017A000FEF798FD40F21810C2F2000008A9CDE93A
:1017B0000844FFF759FA002818BFFEF78BFD602098
:1017C00001900020CDE90200059040F21810C2F20D
:1017D000000001A90022FFF72DFC002818BFFEF72A
:1017E00079FD40F21810C2F2000001A90422FFF7AF
:1017F00021FC002818BFFEF76DFD40F21810C2F260
:101800000000FFF7ADFB0AB010BD0000FEE70000CE
:101810007047000000000000000000000000000011
:10182000EFF30980BFF36F8F154B1A681EF0100F8E
:1018300008BF20ED108A20E9F04F10602DE9090063
:101840004FF0500080F31188BFF34F8FBFF36F8FBD
:1018500001F062F84FF0000080F31188BDE8090044
:1018600019680868B0E8F04F1EF0100F08BFB0EC20
:10187000108A80F30988BFF36F8F704700BF00BFE5
:1018800058010020000000000000000000000000DF
:10189000074B19680868B0E8F04F80F30988BFF378
:1018A0006F8F4FF0000080F31188704700BF00BFBA
:1018B00058010020012000F0A5FBFBE780B54FF0A8
:1018C000500080F31188BFF36F8FBFF34F8F01F08B
:1018D000CDF930B14EF60450CEF200004FF08051F9
:1018E0000160002080F3118880BD00004EF6885012
:1018F000CEF20000016841F4700101604FF0006118
:1019000040F8801C7047000080B540F21800C2F219
:101910000000FFF76FFA40F25800C2F20000FFF734
:1019200069FA80BD10B540F6FF3E0368C4F2000EB0
:1019300040F2004C7045C4F2010C0FDCB0F1804F56
:1019400019D040F20042C4F20002904213D040F697
:101950000002C4F2000290420DD010E040F60042B6
:10196000C4F20002904206D0604504D00022C4F2C6
:101970000102904203D14A6823F07003134341F6F9
:10198000FF72C4F2000290420DDC70451FDCB0F122
:10199000804F41D040F20042C4F2000290423BD05E
:1019A00040F6000221E043F6FF72C4F201029042C9
:1019B00020DC42F20002C4F2000290422CD000224D
:1019C000C4F20102904227D0604525D028E040F6BD
:1019D0000042C4F2000290421ED041F60002C4F25E
:1019E0000002904218D041F60042C4F20002904238
:1019F00012D015E044F20002C4F2010290420BD072
:101A000044F60002C4F20102904205D044F20042C2
:101A1000C4F20102904203D1CA6823F44073134315
:101A200023F080024B69D1F800E08C681A43026011
:101A3000C46240F48062C0F828E0624504BF0969CE
:101A400001630121416110BDFEE700002DE9F04F67
:101A500085B042F20004C4F20204A4F540663046A8
:101A60004FF48071FEF71AFD039030468021FEF797
:101A700015FD019030464021FEF710FD83462046BB
:101A80004FF40061FEF70AFDA4F58057064638467C
:101A90004021FEF703FD049038462021FEF7FEFCAE
:101AA000009038461021FEF7F9FCA4F580670290FB
:101AB00038464FF48071FEF7F1FCA4F5E055284656
:101AC0004FF48051FEF7EAFC28464FF40051FEF730
:101AD000E5FC28464FF48041FEF7E0FC28464FF431
:101AE0000041FEF7DBFC38464021FEF7D7FC3846C4
:101AF0008021FEF7D3FCA4F5006A50464FF4005154
:101B0000FEF7CCFC50464FF48061FEF7C7FCA4F50D
:101B1000A05528468021FEF7C1FC28460821FEF783
:101B2000BDFC804628460421FEF7B8FCA4F5C0554C
:101B3000814628464FF48051FEF7B0FC28464FF40A
:101B40000061FEF7ABFC20460221FEF7A7FC204611
:101B50000121FEF7A3FC50464FF40061FEF79EFC06
:101B600020461021FEF79AFC074620462021FEF76A
:101B700095FC20464021FEF791FC20468021FEF78F
:101B80008DFC40F2F410C2F200000078012833D13D
:101B900040F2D80840F2980E40F2181C012EC2F212
:101BA0000008C2F2000EC2F2000C10D1D8F80030CA
:101BB0004FF42F7700255F639D63DD631F64DEF8BC
:101BC0000030DF631D64DCF800305D639F630499BF
:101BD000019ABBF1010F08BF002924D0012908BFD9
:101BE000BBF1000F36D140F2DA2340F29E2740F2DB
:101BF000762540F202341EE000F0FE0002280FD1EC
:101C0000A8F10100A9F10101B0FA80F0B1FA81F167
:101C1000400949090843012808BF012F00F0A880A6
:101C200005B0BDE8F08F40F29E2340F2DA2740F283
:101C3000023540F27624D8F800004463002484631F
:101C4000C4630564DEF80000C7630464DCF80000C8
:101C500044638363039C009D012A08BF002D16D1B5
:101C6000D8F800004FF4FA73436300234FF4487729
:101C70008363C3630764DEF800004FF42F77C76304
:101C80000364DCF8000043634FF416738363012D93
:101C9000029D08BF002A16D1D8F800004FF44873FF
:101CA000436300234FF4FA778363C3630764DEF86A
:101CB00000004FF41677C7630364DCF80000436349
:101CC0004FF42F738363012C08BF002D16D1D8F871
:101CD00000004FF4D7734363002340F2023783635D
:101CE000C3630764DEF8000040F27627C76303642D
:101CF000DCF80000436340F23A238363012D08BF00
:101D0000002C16D1D8F8000040F2023343630023C0
:101D10004FF4D7778363C3630764DEF8000040F2B3
:101D20003A27C7630364DCF80000436340F276237C
:101D30008363BBF1010F08BF012E7FF471AF01294E
:101D40007FF46EAFD8F800004FF42F720023426387
:101D50008363C3630264DEF80000C2630364DCF8DB
:101D600000004363826340F21400C2F2000003E00B
:101D700044F2FC00C2F200000121016005B0BDE8A0
:101D8000F08F000092B0FEF7B1FB06AC2046302188
:101D9000FEF760FA002743F640000597CDE9037788
:101DA000CDE901770097C4F202000168022541F0F5
:101DB00080510160006800F080500090009847F268
:101DC00000000097C4F20000016841F44041016046
:101DD000006800F440400090009801200990102015
:101DE0000A9008200E90B420CDE90F050420119030
:101DF00020460695CDE90C57FEF798FDFEF740FC0E
:101E00000F2001A9A1C14FF4A05004904FF48050BD
:101E1000059001A80521FEF771FCFFF7F5FAFFF721
:101E2000DDFBFFF72FFCFFF79BFCFFF7BFFB40F24A
:101E30009808C2F2000840460821FFF767FA4046BA
:101E40000C21FFF763FA40F2D805C2F200052846DC
:101E50000021FFF75BFA28460421FFF757FA2846CE
:101E60000821FFF753FA28460C21FFF74FFA40F2FA
:101E70001816C2F2000630460021FFF747FA304636
:101E80000421FFF743FAFFF77FFA00F0C3F80120BF
:101E900000F0EEFA28684FF42F7444638763C4633C
:101EA0000764D8F80000C46307643068446387633C
:101EB0004FF47A70FEF710FA062000F0D9FA01F01C
:101EC00033F84FF47A70FEF707FA286847638463A3
:101ED000C7630464D8F80000C763046430684763CC
:101EE00084634FF4FA60FEF7F7F9032000F0C0FABC
:101EF000286844638763C4630764D8F80000C46338
:101F000007643068446387634FF49660FEF7E4F932
:101F1000012000F0ADFA4FF47A70FEF7DDF9286881
:101F200047638463C7630464D8F80000C76304642C
:101F30003068476384634FF4FA60FEF7CDF90320FD
:101F400000F096FA286844638763C4630764D8F88E
:101F50000000C46307643068446387634FF47A7099
:101F6000FEF7BAF9022000F083FA4FF4FA70FEF798
:101F7000B3F9286847638463C7630464D8F8000032
:101F8000C763046430684763846340F24C40FEF7E3
:101F9000A3F9032000F06CFA286844638763C763E1
:101FA0000464D8F80000C46307643068476384633E
:101FB0004FF4FA70FEF790F9286844638763C463AE
:101FC0000764D8F80000C46307643068446387631B
:101FD0004FF47A70FEF780F9286844638763C7631B
:101FE0000464D8F80000C4630764306847638463FE
:101FF0004FF4FA70FEF770F9FEE70000012000F0E0
:1020000001F8FBE780B5002808BF012000F0DAFBEB
:10201000002080BD80B500F037FC002080BD0000AE
:10202000B0B584B043698E4693B1846984B10589A3
:10203000D0E9001C026928B2843D18BFC51CCDE957
:10204000005360467346029400F0A4FD039010E034
:102050000589D0E90013028A28B2843D18BFC51C47
:1020600003AC184673460095019400F031FD012839
:1020700002D1039804B0B0BD002004B0B0BD000090
:102080002DE9F047044600F0E5FA43F60060C2F29D
:102090000000016840F2581701310160C2F20007E8
:1020A000396844F2C00A40F26816C2F2000AC2F26D
:1020B000000651B1DAF8000000283DD13868E16A25
:1020C000C06A884298BF3C6036E03C6000680128E6
:1020D00032D10025701900F077FA14358C2DF9D122
:1020E00043F61C68C2F20008404600F06DFA43F661
:1020F0003069C2F20009484600F066FA44F2AC00CA
:10210000C2F2000000F060FA44F2E000C2F2000007
:1021100000F05AFA44F2CC00C2F2000000F054FA87
:1021200040F25C10C2F20000C0F8008040F264107F
:10213000C2F20000C0F8009043F61060C2F2000046
:10214000016843F6146201310160E06AC2F20002E4
:10215000012113688140194300EB8000116006EBF8
:102160008000211D00F05EFA00F098FADAF8000015
:1021700088B13868E16AC06A884228BFBDE8F08744
:102180004EF60450CEF200004FF080510160BFF3D4
:102190004F8FBFF36F8FBDE8F087000043F60465F3
:1021A00040F2681A4EF6045844F2E00743F600661F
:1021B000C2F20005C2F2000ACEF200084FF08059C8
:1021C000C2F20007C2F2000603E000BF204600F0A2
:1021D0007DFA2868C8B100F03DFAF868C468201D8F
:1021E00000F0D2F930680138306028680138286082
:1021F00000F054FA94F851000228EAD00128E5D002
:1022000070B9206B00F062FAE0E7DAF8000002280B
:10221000DFD3C8F80090BFF34F8FBFF36F8FD8E7BD
:102220004FF0500080F31188BFF36F8FBFF34F8FD3
:10223000FEE7000008480068006880F308884FF057
:10224000000080F3148862B661B6BFF34F8FBFF30E
:102250006F8F00DF00BF000008ED00E081B00020BC
:10226000009040F20C00C2F2000000684FF05001F4
:1022700081F31188BFF36F8FBFF34F8F013001D00F
:10228000FEE700BF00980028FCD001B070470000B6
:10229000F0B581B0044600F037FB40F26011C2F2A5
:1022A0000001086843F61867C2F2000780BB40F2DD
:1022B000F512C2F20002D61D26F0070612F007033F
:1022C000A2EB060518BF324644F2C406C2F200066D
:1022D0000020C6E900204FF47056002B18BF05F50A
:1022E00070569319083B23F007030B60C3E9000005
:1022F000981A0B68C2E9003044F2A002C2F2000250
:10230000106043F64462C2F200021060012038708F
:102310003878002818BF4FF0004020420DD000242C
:1023200000F064FD600712D04FF0500080F3118878
:10233000BFF36F8FBFF34F8FFEE75CB160071ABF2B
:1023400004F1100020F0070304F1080303E0204625
:1023500001B0F0BD0023002B4FF00004E0D043F6A5
:10236000446CC2F2000CDCF800008342D8D844F27E
:10237000C404C2F20004266875689D420FD2326818
:102380004AB100BF5568344616469D4207D23268AE
:10239000002AF7D103E044F2C404C2F20004086842
:1023A0008642BCD0D4F800E03068EA1A112A2060D6
:1023B0002FD3F418600708D04FF0500080F3118835
:1023C000BFF36F8FBFF34F8FFEE744F2C405C2F235
:1023D00000056260736000BF2B462D68A542FBD3E9
:1023E0005A689818A04203D160681C46104458608F
:1023F0006268A018A84201D0294606E009688D420B
:1024000003D0D5E9001010446060A342216018BFDA
:102410001C6044F2A0017068DCF80020C2F20001E8
:102420000B68121A9A42CCF8002038BF0A6038783C
:102430000EF10804716800284FF0000018BF41F049
:102440000041C6E900016BE7034642F25D20C0F699
:1024500000004FF0807C21F0010103E903106FF0D0
:10246000020043F8240CA3F1440043F8202C7047E9
:102470002DE9F04F81B040F2F41B40F2980A40F28F
:10248000D80640F218170028C2F2000BC2F2000A68
:10249000C2F20006C2F200075CD0044640F25800C7
:1024A00040F21408C2F200004FF00009C2F2000826
:1024B00024E000BF2846013CFEF782FC3068B246AB
:1024C0004FF47A7140F2D8068BF80070C163016452
:1024D000C2F20006306840F2181741638163C1639D
:1024E0000164C2F2000738684FF00009416381635C
:1024F0004FF47A70FDF7F0FE28465CB30546FEF710
:102500004FFC306801218BF800104FF42F714163AC
:10251000C0F83890C0F83C900164DAF800005646E4
:10252000C163C0F840903868C0F8349081634FF4BC
:10253000FA70C8F80090FDF7CFFED8F80000002729
:102540000028B7D10120FDF7C7FED8F80000002809
:10255000F8D0AFE740F25800C2F20000FEF730FCBE
:1025600000208BF80000DAF800004FF47A71C163A4
:102570000164306841638163C16301643868416309
:10258000816301B0BDE8F08FD0E9013201699A6042
:10259000D1F804C082688445536008BF4A600022B5
:1025A00002610868013808600868704744F24C030B
:1025B000C2F20003036043F64860C2F20000086004
:1025C00080201060704700004FF0FF31024642F853
:1025D000081F00214260C0E903220160704700002B
:1025E000002101617047000080B5D1F800C01CF1E6
:1025F000010207D000F108039E465B681A68624535
:10260000FAD901E0D0F810E0DEF8042008614A6051
:102610009160C1F808E0CEF8041001680131016052
:1026200080BD0000D0F800C0436808619A684B6024
:102630008A609A68996051600CF1010101607047ED
:10264000DFF80C00016841F4700101607047000080
:1026500088ED00E04FF0500080F31188BFF36F8FDA
:10266000BFF34F8F40F20C00C2F2000001684A1C19
:10267000026001B170474EF60450CEF200000068CF
:10268000000608BF70474FF0500080F31188BFF379
:102690006F8FBFF34F8F00BFFEE7000040F20C00CA
:1026A000C2F20000016839B10139016018BF7047FA
:1026B000002080F3118870474FF0500080F311889C
:1026C000BFF36F8FBFF34F8FFEE70000B0B5002858
:1026D00008BFB0BD044643F61860C2F2000000789F
:1026E00054F8041C002818BF4FF0004008420CD0DA
:1026F000A4F108052A6892B14FF0500080F31188C8
:10270000BFF36F8FBFF34F8FFEE74FF0500080F3A2
:102710001188BFF36F8FBFF34F8F00BFFEE721EA31
:10272000000044F8040C00F0EFF843F64461C2F2F4
:10273000000154F8040C0A681044086044F2C40113
:10274000C2F2000108460968A942FBD34268831817
:10275000AB4204D154F8043C05461A4442606A680E
:10276000AB188B4201D00B460AE040F26013C2F274
:1027700000031B68994203D0D1E90034A1186960B5
:10278000A8422B6018BF056000F030FBB0BD000010
:102790004EF21000CEF2000000210160816040F294
:1027A0000001C2F20001096844F6D352C1F262028C
:1027B000A1FB02124FF0FF3101EB921141600721A2
:1027C0000160704770B5002851D0044643F60C6094
:1027D000C2F20000016841B14FF0500080F311884F
:1027E000BFF36F8FBFF34F8FFEE7016840F25815BC
:1027F0000131016044F2F400C2F20000C2F20005AF
:10280000066828680430FFF7BFFE60B9286843F601
:102810001462C06AC2F200020121136801FA00F0DA
:1028200023EA000010602868A419446009D340F22C
:102830006410C2F20000006829680431FFF7D4FE7A
:1028400010E040F25C10C2F2000000682968043118
:10285000FFF7CAFE44F2A400C2F2000001688C42F5
:1028600038BF046000F0C2FA002818BF70BD4EF6F1
:102870000450CEF200004FF080510160BFF34F8F43
:10288000BFF36F8F70BD000010B586B0002405A89F
:1028900004A903AACDE90444FFF788FEDDE903207B
:1028A00005990023CDE9010142F29D10C0F6000018
:1028B00013A1009400F06EF944F24801C2F2000145
:1028C0000860D8B14FF0500080F31188BFF36F8FCC
:1028D000BFF34F8F44F2A400C2F200004FF0FF316B
:1028E000016044F2C000C2F200000121016044F224
:1028F000F400C2F20000046000F052F806B010BD0F
:1029000049444C450000000043F60C60C2F2000050
:10291000016801310160704743F60C60C2F20000AB
:10292000006830B144F2F800C2F2000001210160F9
:10293000704744F2F800C2F200000021016043F643
:102940001460C2F200000068B0FA80F0C0B2C0F1BA
:102950001F0040F2681100EB8000C2F2000151F844
:10296000202092B101EB800050F8041F4968021D3D
:102970009142016001D149680160006840F258113C
:10298000C068C2F20001086070474FF0500080F349
:102990001188BFF36F8FBFF34F8F00BFFEE70000BA
:1029A000B0B584B04EF20040CEF200004CF270217F
:1029B000C4F20F11D0F800294B1C9A4209D14FF0F4
:1029C000500080F31188BFF36F8FBFF34F8F00BFAC
:1029D000FEE7D0F800298A4209D14FF0500080F379
:1029E0001188BFF36F8FBFF34F8F00BFFEE70178F1
:1029F00043F6F5520291FF2101700178C2F2000204
:102A00008DF807109DF8071001F05001117043F682
:102A1000F851C2F2000107220A609DF90720B2F1C5
:102A2000FF3F0BDC0A68013A0A609DF8072052005C
:102A30008DF807209DF90720002AF3D40A68032A9D
:102A40003CD14FF4E06303EA02220A60029901706C
:102A5000D0F8201941F47001C0F82019D0F82019DD
:102A600041F07041C0F82019FFF792FE40F20C04CB
:102A7000C2F2000400252560FFF7E2FD4EF6347037
:102A8000CEF20000016841F040410160FFF7D2FB47
:102A9000FFF742FF039520684FF0500181F3118842
:102AA000BFF36F8FBFF34F8F013001D0FEE700BF40
:102AB00003980028FCD0002004B0B0BD4FF05000B7
:102AC00080F31188BFF36F8FBFF34F8FFEE70000D5
:102AD0002DE9F04781469000984614460F46FFF7CF
:102AE000D7FB70B105465420FFF7D2FB30B1064644
:102AF00005634EB94FF0FF30BDE8F0872846FFF779
:102B0000E5FD0026002EF5D0316BDDE9085A01EB1A
:102B100084010439002021F0070486F851007FB1B8
:102B200006F13400002100BF7A5C42547A5C1AB18D
:102B30000F2901F10101F7D3002086F8430001E0DD
:102B400086F834000027301D062D28BF0625F562C3
:102B5000C6E91157FFF744FD06F11800FFF740FDE5
:102B600085F00700B06120464946424636617662EC
:102B7000F76486F85070FFF767FC30603046BAF1B2
:102B8000000F18BFCAF80060FFF77AFA0120BDE80D
:102B9000F08700002DE9F04782B099460B9BEBB11E
:102BA0000C9D25B38246542001900198542828D1C9
:102BB0000A9F019802202B6385F8510059B305F153
:102BC000340000240E5D06550E5D1EB10F2C04F17D
:102BD0000104F7D3002085F843001FE04FF05000B8
:102BE00080F31188BFF36F8FBFF34F8FFEE74FF075
:102BF000500080F31188BFF36F8FBFF34F8F00BF7A
:102C0000FEE74FF0500080F31188BFF36F8FBFF3E2
:102C10004F8F00BFFEE7002085F8340003EB8200F1
:102C2000043820F007080024281D062F28BF062797
:102C3000EF62C5E91174FFF7D3FC05F11800FFF747
:102C4000CFFC87F00700A861404651464A462D61F7
:102C50006D62EC6485F85040FFF7F6FB286028466B
:102C6000FFF70EFA284602B0BDE8F0872DE9F04FD5
:102C700081B043F60C60C2F20000006840B143F638
:102C80000860C2F200000168002401310160A1E087
:102C900044F2F400C2F2000001684E1C06602ED31C
:102CA00040F25C10C2F200000168096849B14FF0BF
:102CB000500080F31188BFF36F8FBFF34F8F00BFB9
:102CC000FEE740F26412C2F200020168136803607A
:102CD000116044F2A801C2F200010A6801320A60E0
:102CE0000168096821B10068C068C068406801E0F7
:102CF0004FF0FF3044F2A401C2F20001086044F238
:102D0000A401C2F20001086840F2581A8642C2F2D9
:102D1000000A01D200244FE040F25C1BC2F2000B1B
:102D2000DBF8000000240068E0B343F614690127D3
:102D3000C2F2000920E000BFD8F82C00D9F800103A
:102D400007FA00F21143C9F8001040F2681100EBD5
:102D50008000C2F2000101EB80002946FFF762FC0F
:102D6000D8F82C00DAF80010C96ADBF80020884295
:102D7000106828BF3C46C0B1DBF80000C068D0F83E
:102D80000C80454655F8040F864210D32846FFF7BD
:102D9000FBFBD8F828000028CED008F11800FFF778
:102DA000F3FBC9E74FF0FF3005E04FF0FF3044F28E
:102DB000A401C2F200010860DAF8000040F26811D4
:102DC000C06AC2F2000100EB800051F82000012827
:102DD00088BF012444F2F800C2F200000068002815
:102DE00018BF0124204601B0BDE8F08F2DE9F04F57
:102DF00081B043F60C64C2F20004206868B1FFF7AA
:102E000029FC206801382060206880B10024FFF789
:102E100045FC204601B0BDE8F08F4FF0500080F334
:102E20001188BFF36F8FBFF34F8F00BFFEE743F6EC
:102E30000060C2F200000068002848D044F2AC06EE
:102E4000C2F20006306844F2F8080028C2F2000816
:102E500046D043F6146540F2681940F2581A4FF014
:102E6000010BC2F20005C2F20009C2F2000A00BF63
:102E7000F068C76807F11800FFF786FB3C1D204685
:102E8000FFF782FBF86A29680BFA00F2114300EBA6
:102E90008000296009EB80002146FFF7C3FBF86A38
:102EA000DAF80010C96A884228BFC8F800B0306854
:102EB0000028DDD1A7B140F25C10C2F20000016829
:102EC000096831B10068C068C068406803E0002448
:102ED0009DE74FF0FF3044F2A401C2F20001086008
:102EE00043F60864C2F2000425685DB1012600BF04
:102EF000FFF7BCFE002818BFC8F80060013DF7D1FD
:102F000000202060D8F8000060B14EF60450CEF2E8
:102F100000004FF080510160BFF34F8F0124BFF3D9
:102F20006F8F74E7002472E72DE9F04381B040F21F
:102F3000F41940F2D808C2F200090320C2F20008D6
:102F400089F80000D8F800004FF42F71002740F2F4
:102F5000980441638763C1630764C2F20004206878
:102F600040F21816C1630764C2F20006306841637C
:102F700087634FF4FA70FDF7AFF940F25800C2F2E0
:102F80000000FDF70DFF44F2FC05C2F200052868C1
:102F900030B900BF0120FDF79FF928680028F9D05B
:102FA00040F20040C4F202000121FDF77DFA40F238
:102FB0005800C2F20000FDF703FF20684FF47A7159
:102FC00089F80070C1630164D8F80000416381632F
:102FD000C163016430684163816301B0BDE8F0837F
:102FE00002E008C8121F08C1002AFAD170477047D2
:102FF000002001E001C1121F002AFBD17047000030
:1030000059300008B518000800000000000000005A
:1030100080000000000000000000000050300008A8
:10302000FD1F0008000000000000000080000000FC
:103030000000000000000000000000000000000090
:10304000010203040607080900000000010203044E
:103050006D61696E5461736B0064656661756C7453
:103060005461736B000000008830000800000020ED
:1030700010000000E02F0008983000081000002029
:10308000F0440000F02F00080024F40001000000CC
:0830900010000000AAAAAAAA80
:04000005080001AD41
:00000001FF
