:020000040800F2
:1000000020060020C50100080F190008011400088F
:100010000D190008D1020008B11D00080000000001
:10002000000000000000000000000000131900089C
:10003000D302000800000000111900085D19000833
:10004000DF010008DF010008DF010008DF01000810
:10005000DF010008DF010008DF010008DF01000800
:10006000DF010008DF010008DF010008DF010008F0
:10007000DF010008DF010008DF010008DF010008E0
:10008000DF010008DF010008DF010008DF010008D0
:10009000DF010008DF010008DF010008DF010008C0
:1000A000DF010008051A0008DF010008DF01000871
:1000B000DF010008DF010008DF010008DF010008A0
:1000C000DF010008DF010008DF010008DF01000890
:1000D000DF010008DF010008DF010008DF01000880
:1000E000DF010008DF010008DF010008DF01000870
:1000F000DF010008DF010008DF010008DF01000860
:10010000DF010008DF010008DF010008DF0100084F
:10011000DF010008DF010008DF010008DF0100083F
:10012000DF010008DF010008DF010008DF0100082F
:10013000DF010008DF010008DF010008DF0100081F
:10014000DF010008DF010008DF010008DF0100080F
:10015000DF010008DF010008DF010008DF010008FF
:10016000DF010008DF010008DF010008DF010008EF
:10017000DF010008DF010008DF01000800000000C7
:10018000DF010008DF010008DF010008DF010008CF
:10019000DF010008DF010008DF010008DF010008BF
:1001A000DF010008DF010008DF010008DFF810D0E0
:1001B00000F07CF80048004765210008AFF300809C
:1001C000200600200648804706480047FEE7FEE775
:1001D000FEE7FEE7FEE7FEE7FEE7FEE7FEE7FEE7F7
:1001E000E9190008AD0100082DE9F05F054600207F
:1001F00092469B4688460646814640241BE0284698
:1002000041464746224600F041F853465A46C01A36
:10021000914110D311461846224600F028F82D1AB5
:1002200067EB01084F4622460120002100F01FF82D
:1002300017EB00094E41201EA4F10104DFDC484603
:1002400031462A464346BDE8F09FD2B201E000F8AD
:10025000012B491EFBD270470022F6E710B513466A
:100260000A4604461946FFF7F0FF204610BD202A33
:1002700004DB203A00FA02F1002070479140C2F1FD
:10028000200320FA03F3194390407047202A04DB2F
:10029000203A21FA02F00021704721FA02F3D040FF
:1002A000C2F120029140084319467047064C074DA1
:1002B00006E0E06840F0010394E807009847103436
:1002C000AC42F6D3FFF776FF6823000888230008C6
:1002D000FEE770477047000070B5044600F00AF969
:1002E0000546601C02D004480078044400F002F97E
:1002F000401BA042FAD370BD0C0000202DE9F84F3E
:1003000000224FF0010803254FF00F0E0B6808FA8A
:1003100002F42340A3426ED14E68012E05D0022E76
:1003200003D0112E01D0122E12D186684FEA420C52
:1003300005FA0CF7BE43CF6807FA0CF7374387601E
:100340004668A6430C79C4F30014944034434460D7
:10035000C668570005FA07FC8C6826EA0C06BC4004
:100360003443C4604C68022C01D0122C13D1D40841
:1003700000EB8404A346D4F8209054074FEAD46AD3
:100380000EFA0AF629EA06090E6906FA0AF646EA9C
:100390000906CBF8206004680E7924EA0C0406F004
:1003A0000306BE40264306604C68E4006FD53B4C14
:1003B000266846F480462660246822F0030604F48A
:1003C00080440094364C3444A446D4F80848960738
:1003D000360F0EFA06F7BC43324FB84201D1002760
:1003E0002EE0314FB84201D1012729E02F4FB8420A
:1003F00002D1022724E04AE02D4FB84201D1032761
:100400001EE02C4FB84201D1042719E02A4FB84210
:1004100001D1052714E0294FB84201D106270FE08A
:10042000274FB84201D107270AE0264FB84201D131
:10043000082705E0244FB84201D1092700E00A2728
:10044000B7402743CCF80878204E34684F689C4367
:10045000FF0300D51C4334601C4E361D34684F68C2
:100460009C43BF0300D51C433460184E08363468E3
:100470004F689C43FF0200D51C433460134E0C367A
:1004800034684F689C43BF0200D51C433460521C43
:10049000102AFFF43BAFBDE8F88F0000443802405B
:1004A0000030014000000240000402400008024009
:1004B000000C0240001002400014024000180240EC
:1004C000001C02400020024000240240003C014089
:1004D0000069084000D001207047426931EA0202F9
:1004E00000D10904816170470AB181617047090434
:1004F000FBE7000001488068704700000C00002006
:100500000248816802781144816070470C00002025
:100510000B4810B5016841F400710160016841F4B5
:1005200080610160016841F480710160032000F086
:100530006FF8002000F006F800F024F8002010BD4D
:10054000003C024070B50D4D04464FF47A71287896
:10055000B1FBF0F00A490968B1FBF0F000F03CFB98
:1005600048B9102C07D200222146501E00F030F866
:1005700000206C6070BD012070BD00000C000020E8
:10058000180000200A4808B5016841F48041016064
:10059000006800F4804000900548001F016841F0A9
:1005A00080510160006800F08050009008BD00009C
:1005B00044380240002809DB00F01F02012191406D
:1005C0004009800000F1E020C0F8001170470000F1
:1005D000F0B40E4B1B680C46C3F30223C3F10705AE
:1005E000042D00D90425191D072901D2002300E09C
:1005F000DB1E012606FA05F1491E214099409E4066
:10060000761E16403143F0BC01F052BD0CED00E007
:10061000064900F0070208684FF6FF03184040EA59
:100620000220034A10430860704700000CED00E010
:100630000000FA052DE9F8431748016841F08051A0
:1006400001600068154F00F08050012600903E6464
:10065000FFF750FF05464FF47A78114C05E000BFD4
:10066000FFF748FF401B40450DD86068C003F7D531
:100670007E64FFF73FFF0546464607E0FFF73AFF77
:10068000401BB04202D90320BDE8F88360688003B4
:10069000F4D50020F8E700004038024000000E4288
:1006A000007000402DE9F0470E46050065D0DFF8E8
:1006B0001481D8F80000F7B200F00F00B04207D262
:1006C00088F80070D8F8000000F00F00B04254D154
:1006D00028683D4C810712D5400703D5206840F4B7
:1006E000E05020602878000703D5206840F460407F
:1006F00020602068A96820F0F00008432060287876
:10070000C0072DD0304968680839012812D0022866
:1007100013D0032811D00968890700292DDA216830
:1007200021F0030101432160FFF7E4FE814641F21D
:10073000883A0EE009688903EFE709688901ECE768
:10074000FFF7D8FEA0EB0901514502D90320BDE80F
:10075000F0872068696800F00C00B0EB810FEFD1E2
:10076000D8F80010404601F00F01B14207D90770D8
:10077000006800F00F00B04201D00120E7E72878C0
:10078000400705D52068E96820F4E0500843206060
:100790002878000706D52068296920F4604040EADF
:1007A000C100206000F038F82168084AC1F3031145
:1007B000515CC8400649086006480068FFF7C2FE61
:1007C0000020C4E7003C02400838024050230008E3
:1007D000180000201000002004480549006809683E
:1007E000044AC1F38221515CC840704718000020C0
:1007F0000838024060230008044805490068096879
:10080000044AC1F34231515CC840704718000020CF
:100810000838024060230008154810B5006810F041
:100820000C02144813D01449042A0FD0082A0ED100
:100830000F4C241F2268236802F03F025B0207D599
:100840002068C0F38810A0FB010106E0084610BD37
:100850002168C1F38811A1FB00010023FFF7C4FC4C
:100860002168C1F30141491C4900B0FBF1F010BD02
:10087000083802400024F40040787D012DE9F84F4B
:1008800004006ED02078DFF83C93C007A9F104057E
:100890004AD009F104000168C1F38101012908D09F
:1008A0000068C0F3810002280AD1D9F80000400294
:1008B00006D52868800337D560680028E1D033E08A
:1008C0006068B0F5803F10D0B0F5A02F286810D038
:1008D00020F480302860286820F480202860606838
:1008E000A8B1FFF707FE06460DE0286840F4803007
:1008F000F4E740F480202860F7E700BFFFF7FAFD37
:10090000801B642873D828688003F7D50CE0FFF7B4
:10091000F1FD064605E000BFFFF7ECFD801B6428F3
:10092000F0D828688003F7D42078DFF89C8280070D
:100930004FF0000A3ED5A348001D016811F00C0FCE
:1009400008D00068C0F3810002280BD1D9F800005C
:10095000400207D42868800716D5E068012800D136
:1009600012E02BE1E068B8B10120C8F80000FFF701
:10097000C1FD064605E000BFFFF7BCFD801B022855
:10098000C0D828688007F7D52868216920F0F800CA
:1009900040EAC10028600DE0C8F800A0FFF7AAFDFA
:1009A000064604E0FFF7A6FD801B02281FD8286832
:1009B0008007F7D42078000722D5824E83486169EA
:1009C000703671B101210160FFF794FD074604E024
:1009D000FFF790FDC01B022809D830688007F7D5C3
:1009E0000EE0C0F800A0FFF785FD074605E082E0B5
:1009F000FFF780FDC01B02287DD830688007F7D440
:100A00002078400768D5DFF8BCB100270BF13C0B1C
:100A1000DBF80000C0000BD4DBF8001041F080517F
:100A2000CBF80010DBF80000012700F080500090A8
:100A3000674E3068C00510D4306840F48070306074
:100A4000FFF758FD009005E0FFF754FD0099401AAC
:100A5000022850D83068C005F6D55A4EA0686C36CA
:100A600001280FD00528306810D020F00100306038
:100A7000306820F004003060A068B8B1FFF73AFD9C
:100A800000900FE0306840F00100F4E740F004000F
:100A90003060F7E7FFF72EFD0099411A41F28830E8
:100AA000814266D830688007F4D50EE0FFF722FD5A
:100AB000009007E0FFF71EFD0099411A41F28830CF
:100AC000814256D830688007F4D42FB1DBF800108B
:100AD00021F08051CBF80010A069C8B33949091D35
:100AE0000968C1F3810102294AD00228504607D083
:100AF000C8F8600000E03CE0FFF7FCFC04463BE087
:100B00004746C8F86000FFF7F5FC064605E000BF61
:100B1000FFF7F0FC801B02282BD828688001F7D44F
:100B2000D4E907010843A16A2A4A490802EB0141B6
:100B3000626A41EA8211084394F82C1040EA01618C
:100B4000C9F8001001203866FFF7D4FC044606E01F
:100B500036E000BFFFF7CEFC001B022809D828684A
:100B60008001F7D52CE000BFFFF7C4FC001B022872
:100B700002D90320BDE8F88F28688001F4D41FE073
:100B80000128F7D0D9F80000E26900F48001914211
:100B900014D1226A00F03F0191420FD147F6C07193
:100BA000626A0140914209D1A26A00F44031914247
:100BB00004D1E16A00F07060884201D00120D9E7D9
:100BC0000020D7E70438024000004742800E474229
:100BD000007000400000FFFF10B5401EB0F1807FA4
:100BE00001D3012010BD4FF0E02460610F21601798
:100BF00001F05EFA0020A06107202061002010BDF6
:100C00007047704710B590F83C20012A22D001228D
:100C100080F83C20CA688C6822F4407222434C68F9
:100C200022F4806222430C6822F4006222430C69A1
:100C300022F4805222434C6922F400522243C969B3
:100C4000002322F480420A4301684A6480F83C3061
:100C5000002010BD022010BD70B590F83C20012A84
:100C600032D0012480F83C40022280F83D20036805
:100C70005A689D6822F070060A6832435A60134B26
:100C800002689A4214D0B2F1804F11D0104B9A42B0
:100C90000ED0104B9A420BD00F4B9A4208D00F4BFC
:100CA0009A4205D00E4B9A4202D00E4B9A4204D182
:100CB000496825F080031943916080F83D40002188
:100CC00080F83C10084670BD022070BD0000014055
:100CD0000004004000080040000C004000040140F7
:100CE000004001400018004010B5040003D094F803
:100CF0003D0010B107E0012010BD002084F83C0049
:100D0000204600F00DF8022084F83D00211D2068E7
:100D100000F086FE012084F83D00002010BD000098
:100D200008B500680B49884212D10B48016841F4AC
:100D3000003101600068002200F40030009011468C
:100D40001920FFF745FCBDE808401920FFF732BC29
:100D500008BD000000440140443802400168CA68F0
:100D600042F00102CA600068816801F007010629AB
:100D700003D0016841F00101016000207047016863
:100D8000CA6822F00102CA600068016A41F21112C9
:100D9000114207D1016A9210114203D1016821F07A
:100DA00001010160002070472DE9F0410D4604006B
:100DB00003D094F83D0018B108E00120BDE8F081AF
:100DC000002084F83C00204600F03AF8022084F825
:100DD0003D002068816844F2070291438160211D33
:100DE000206800F01DFE226890689169166A2B68E1
:100DF000AF69034340F20330814341EA0721A86809
:100E0000EF6908434FF6FC418843E96840EA072050
:100E1000014328692F6A000140EA073008436968E6
:100E20006D6926F0AA0646EA0515294393602268F3
:100E3000906120680162012084F83D000020BDE738
:100E400070B586B0044614216846FFF705FA42489B
:100E500025680022414902240126854226D13F48C7
:100E60001430036843F001030360006800F00100E0
:100E70000590086840F0100008600868694600F0B6
:100E8000100005904FF420600090CDE90142CDE9BB
:100E900003263348FFF732FA002211461920FFF7E4
:100EA00097FB1920FFF786FB06B070BD2B4B2D4832
:100EB0001033B5F1804F18D02B4EB5422FD11D689D
:100EC00045F002051D601B6803F0020305930B68E3
:100ED00043F001030B60096801F001010591C02195
:100EE0000091CDE90142694633E01D6845F00105F6
:100EF0001D601B6803F0010305930B6843F00103B9
:100F00000B60096801F00101059122210091CDE9F2
:100F10000142CDE903266946FFF7F0F9C4E713481B
:100F20008542C1D1186840F004001860186800F0CC
:100F300004000590086840F00800086008686946E9
:100F400000F0080005904FF440500090CDE90142B8
:100F50000748CDE90324DFE70000014030380240B4
:100F60000010024000000240000400400008004061
:100F7000000C0240704770B50446006801694FF0EC
:100F80000005C943890715D4C168C943890711D42D
:100F9000E91E0161012020772068806980072046D2
:100FA00002D0FFF7E7FF04E000F0F0F8204600F081
:100FB00093F9257720680169C943490717D4C168A7
:100FC000C943490713D46FF004010161022020775F
:100FD0002068806910F4407F204602D0FFF7CAFFE6
:100FE00004E000F0D3F8204600F076F92577206879
:100FF0000169C943090716D4C168C943090712D456
:101000006FF008010161042020772068C069800723
:10101000204602D0FFF7AEFF04E000F0B7F820460C
:1010200000F05AF9257720680169C943C90617D429
:10103000C168C943C90613D46FF0100101610820CB
:1010400020772068C06910F4407F204602D0FFF767
:1010500091FF04E000F09AF8204600F03DF9257772
:1010600020680169C943C90708D1C168C943C907D4
:1010700004D1891E0161204600F052F920680169FF
:10108000C943090609D4C168C943090605D46FF0EC
:10109000800101612046FFF7B3FD20680169C94363
:1010A000490609D4C168C943490605D46FF0400117
:1010B0000161204600F03CF920680169C9438906B6
:1010C0000BD4C168C943890607D46FF020010161C0
:1010D0002046BDE87040FFF794BD70BD30B587B0C5
:1010E000044614216846FFF7B7F8224A2168002415
:1010F00021480225914223D1016841F0010101609C
:10110000016801F001010591016841F08001016071
:101110000068694600F0800005900C200090CDE941
:1011200001541648CDE90345FFF7E8F84FF4406055
:101130000090CDE9015469461148CDE9034514E01A
:10114000104A914213D1016841F004010160006826
:10115000694600F0040005904FF470700090CDE9EE
:1011600001540320CDE903400748FFF7C7F807B053
:1011700030BD0000000C004030380240000002404A
:10118000001C02400004014000080240704770B596
:10119000044690F83C000D4601280DD0012684F845
:1011A0003C60022084F83D0042B1042A18D0082A8D
:1011B0002AD00C2A4DD139E0022070BD206800F001
:1011C000A1FC2068816941F0080181612068816982
:1011D00021F004018161206881692A69114311E0CD
:1011E000206800F0BFFC2068816941F400618161E2
:1011F0002068816921F480618161206881692A69A0
:1012000041EA0221816124E0206800F0E1FC2068CD
:10121000C16941F00801C1612068C16921F0040180
:10122000C1612068C1692A69114311E0206800F09A
:1012300003FD2068C16941F40061C1612068C16992
:1012400021F48061C1612068C1692A6941EA0221F3
:10125000C16184F83D60002084F83C0070BD10B589
:10126000040003D094F83D0010B107E0012010BD48
:10127000002084F83C00204600F00CF8022084F89E
:101280003D00211D206800F0CBFB012084F83D00CB
:10129000002010BD08B500680C49884208D10C48F0
:1012A000016841F008010160006800F008000BE0EF
:1012B0000849884209D10648001D016841F0020131
:1012C0000160006800F00200009008BD000C0040C2
:1012D00040380240000401407047000010B5044649
:1012E0000068012200F000FC0B492068884202D00F
:1012F0000A49884203D1416C41F4004141642068AD
:10130000816801F00701062903D0016841F001015D
:101310000160002010BD00000000014000040140F9
:101320000249884201D100F045BD70479C01002070
:10133000704770B5040004D094F83900002510B14E
:1013400006E0012070BD84F83850204600F022F8F5
:10135000242084F839002068C16821F40051C1605C
:10136000204600F091FC2068016921F49041016160
:101370002068416921F02A0141612068C16841F477
:101380000051C160E563202084F8390084F83A00F8
:10139000002070BD10B586B0044614216846FEF7E3
:1013A0005BFF14492068884221D11348002102685C
:1013B00042F010020260006800F0100005900E4834
:1013C0001438026842F001020260006800F0010077
:1013D00005904FF4C06000900220CDE90101032088
:1013E00003900720049069460448FEF787FF06B083
:1013F00010BD0000001001404438024000000240CF
:10140000FEE7000070B586B014216846FEF724FFA1
:1014100054480024016841F010010160016801F0A6
:1014200010010591016841F004010160016801F0BB
:1014300004010591016841F480710160016801F4C3
:1014400080710591016841F020010160016801F09F
:1014500020010591016841F080010160016801F0FF
:1014600080010591016841F001010160016801F00E
:1014700001010591016841F002010160016801F07C
:1014800002010591016841F008010160016801F065
:1014900008010591016841F0400101600068324E89
:1014A00000F040000590002201213046FFF71CF8B3
:1014B0007020CDE9000469462C480294FEF71EFF17
:1014C00040F6F300CDE90004694629480294FEF78E
:1014D00015FF4FF4E070CDE90004694625480294F9
:1014E000FEF70CFF0125CDE900546946224802941D
:1014F000FEF704FF4FF4E270CDE9000469461F488F
:101500000294FEF7FBFE0220CDE902040095694635
:1015100001953046FEF7F2FE4FF47040CDE900042D
:10152000694630460294FEF7E9FE4FF4C050CDE91B
:101530000004694612480294FEF7E0FE8C20CDE9D3
:10154000000469460F480294FEF7D8FE4FF430506D
:10155000CDE9000469460C480294FEF7CFFE06B0C0
:1015600070BD00003038024000040240001002400C
:10157000002002400014024000000240001C024013
:1015800000080240000C0240001802400B4810B551
:1015900009490160B321416000216322C0E90212C0
:1015A00001618161FFF7A0FB002803D0BDE8104076
:1015B000FEF790BE10BD0000004401409C010020D9
:1015C00010B58CB024216846FEF746FE002416486C
:1015D000099414490A94C0E900144FF6FF71C0E958
:1015E00002410461446184610120CDE90004CDE938
:1015F00002040494CDE90540079469460A4808941A
:10160000FFF7D2FB08B1FEF765FE099409A9064869
:101610000A94FFF721FB002801D0FEF75BFE0CB017
:1016200010BD0000000001401C00002010B58CB06F
:1016300024216846FEF710FE0024154809944FF057
:1016400080410A94C0E900144FF6FF71C0E90241DD
:10165000046184610120CDE90004CDE90204049411
:10166000CDE905400794694609480894FFF79CFBBB
:1016700008B1FEF72FFE099409A905480A94FFF75F
:10168000EBFA002801D0FEF725FE0CB010BD0000DB
:101690005C00002010B58CB024216846FEF7DCFD0C
:1016A00000241548099413490A94C0E900144FF620
:1016B000FF71C0E90241046184610120CDE90004A9
:1016C000CDE902040494CDE90540079469460A482F
:1016D0000894FFF769FB08B1FEF7FCFD099409A91E
:1016E00005480A94FFF7B8FA002801D0FEF7F2FD8A
:1016F0000CB010BD000400409C00002010B58CB060
:1017000024216846FEF7A8FD0024154809941349D2
:101710000A94C0E900144FF6FF71C0E90241046168
:1017200084610120CDE90004CDE902040494CDE9EF
:101730000540079469460A480894FFF735FB08B14D
:10174000FEF7C8FD099409A905480A94FFF784FA31
:10175000002801D0FEF7BEFD0CB010BD000800400F
:10176000DC00002010B58AB0002407941C216846D4
:101770000894FEF771FD2248204901601121C0E95B
:10178000011440F2E731C0E903148461FFF767FDFB
:1017900008B1FEF79FFD079407A919480894FFF7C1
:1017A0005BFA08B1FEF796FD6020CDE900040294D3
:1017B0000022694612480494FFF7E9FC08B1FEF7DD
:1017C00089FD042269460E48FFF7E1FC08B1FEF7E7
:1017D00081FD082269460A48FFF7D9FC08B1FEF7E7
:1017E00079FD0C2269460648FFF7D1FC08B1FEF7E7
:1017F00071FD0348FFF772FC0AB010BD000C0040F9
:101800001C01002010B592B000240F941C216846E2
:101810001094FEF721FD202107A8FEF71DFD2C489E
:101820002A4901601121C0E9011440F2E731C0E901
:10183000031444618461FFF712FD08B1FEF74AFD0D
:101840000F940FA922481094FFF706FA08B1FEF78B
:1018500041FD6020CDE900040294039404940594B2
:10186000002269461A480694FFF791FC08B1FEF77A
:1018700031FD042269461648FFF789FC08B1FEF7DE
:1018800029FD082269461248FFF781FC08B1FEF7DE
:1018900021FD0C2269460E48FFF779FC08B1FEF7DE
:1018A00019FD0794089409944FF400500A94CDE967
:1018B0000B4007A906480E94FFF7A4F908B1FEF7FC
:1018C00009FD0348FFF70AFC12B010BD00040140F7
:1018D0005C0100200C4810B50A4901604FF4E13169
:1018E0004160002181600C22C160C0E90412816165
:1018F000C161FFF71EFD002803D0BDE81040FEF7D0
:10190000E9BC10BD00100140DC010020FEE770477B
:101910007047704710B50D48FFF731FA0C490020A9
:1019200008700C494FF47A700A68D0630A68106432
:10193000094A13685863136898631368D863126878
:1019400010640A6850630968886310BD9C01002018
:10195000000000201C0100205C010020FEF7D0BD2B
:1019600030B593B030216846FEF776FC14210CA800
:10197000FEF772FC1A480025016841F080510160B1
:10198000006800F0805011901648016841F4404111
:1019900001600068022400F440401190012003908F
:1019A00010200490009406940820CDE90750B4203C
:1019B000CDE9090404200B906846FEF75FFFFEF7AF
:1019C00039FE0CA90F2081E831004FF4A0500F9090
:1019D000E002109005210CA8FEF764FE13B030BDA4
:1019E00040380240007000400548016841F4700131
:1019F000016003494FF000608039086070470000C3
:101A000088ED00E010B50448FFF7B5FABDE81040D6
:101A10000248FFF7B0BA00001C0000209C01002023
:101A2000F0B50268254C264D264E274F274B4FF028
:101A3000804CA04209D0604507D0A84205D0B042F2
:101A400003D0B84201D0984204D122F0700E4A6807
:101A500042EA0E02A0421BD0604519D0A84217D01E
:101A6000B04215D0B84213D0984211D0184DA842B8
:101A70000ED0184DA8420BD0174DA84208D0174DD4
:101A8000A84205D0164DA84202D0164DA84203D157
:101A900022F44075CA682A434D6922F080022A4325
:101AA00002608A68C2620A688262A04201D09842DB
:101AB00001D10969016301214161F0BD00000140CC
:101AC0000004004000080040000C004000040140F9
:101AD000004001400044014000480140001800401F
:101AE000001C00400020004010B501F01F03012140
:101AF000046A99408C430462016A9A40114301626E
:101B000010BD0000F0B5026A22F001020262036A11
:101B100042688469124E24F073050C682C4323F04C
:101B200002058B682B430D4DA84201D0B04205D170
:101B300023F00807CB683B4323F00403A84201D0FD
:101B4000B04205D14D6922F4407215438A692A4397
:101B500042608461496841630362F0BD0000014056
:101B600000040140F0B5026A22F010020262026A2B
:101B7000436884690D6824F4E64444EA05248D68CA
:101B800022F0200242EA05120F4D104EA84201D069
:101B9000B04206D1CF6822F0800242EA071222F05A
:101BA0004002A84201D0B04207D14D6923F44063FE
:101BB00043EA85038D6943EA85034360846149688C
:101BC00081630262F0BD000000000140000401409A
:101BD000F0B5026A22F480720262026A4368C46944
:101BE00022F4007224F073050C68124E2C438D68A9
:101BF00042EA05220E4DA84201D0B04206D1CF687C
:101C000022F4006242EA072222F48062A84201D054
:101C1000B04207D14D6923F4405343EA05138D695F
:101C200043EA05134360C4614968C1630262F0BDC1
:101C3000000001400004014030B5026A22F48052E5
:101C40000262046A4268C3690D6823F4E64343EA0A
:101C500005238D6824F4005444EA0534084DA84255
:101C600002D0084DA84204D14D6922F4804242EAD4
:101C700085124260C36149680164046230BD00009E
:101C800000000140000401402DE9F04104460068D5
:101C90000169E26821F44051114301612169A068A2
:101CA000E26908436169114308432168CA6849F23F
:101CB0000C639A430243CA6020684169A26921F417
:101CC000407111434161E069192764253226B0F55E
:101CD000004F354A354920684FF0000806D0884249
:101CE00001D0904236D1FEF787FD35E0884201D021
:101CF000904202D1FEF780FD01E0FEF76DFD6168C4
:101D00004A18A0FB070148EB0803FEF76DFA0146ED
:101D1000B0FBF5F00201B1FBF5F06FF0180358438A
:101D200001EB800006EBC000B0FBF5F000F0F8001E
:101D300002EB4002B1FBF5F0584301EB800006EBEB
:101D4000C000B0FBF5F000F0070021681044886087
:101D5000BDE8F081FEF740FD61688B0F8A00A0FBB3
:101D60000701FEF741FA0146B0FBF5F06FF01802EB
:101D7000504301EB800006EB0010B0FBF5F000F0E3
:101D8000F002B1FBF5F002EB0012B1FBF5F06FF0E1
:101D90001803584301EB800006EB0010B0FBF5F090
:101DA00000F00F00D1E700000014014000100140D6
:101DB000FEE700002DE9F043B44C4FF4807593B07A
:101DC00029462046FEF784FB009080212046FEF73E
:101DD0007FFB019040212046FEF77AFBE614AC4CD5
:101DE000029031462046FEF773FBAA4F0390402134
:101DF0003846FEF76DFB049020213846FEF768FB5D
:101E0000059010213846FEF763FB0690DDE90001DE
:101E10000844DDE902121144084404990844059974
:101E2000084406990844012804D10020401CC0B28F
:101E30000628FBD92946984D2846FEF749FB974FBF
:101E40004FF480590D9049463846FEF741FB4FF458
:101E500000580C9041463846FEF73AFB0B904FF481
:101E600080413846FEF734FB0A904FF40041384673
:101E7000FEF72EFB099040212846FEF729FB08902B
:101E800080212846FEF724FB089907900844DDE9E5
:101E90000921114408440B9908440C9901440D98F8
:101EA0000844012804D10020401CC0B20628FBD9F8
:101EB0007B4D41462846FEF70BFB0D902915284621
:101EC000FEF706FB774F0C9080213846FEF700FBAB
:101ED0000B9008213846FEF7FBFA0A900421384699
:101EE000FEF7F6FA704F099049463846FEF7F0FAC9
:101EF000089031463846FEF7EBFA089907900844F7
:101F0000DDE90912114408440B9908440C9908446E
:101F10000D990844012804D10021491CC9B20629A1
:101F2000FBD902212046FEF7D3FA0B90012120466F
:101F3000FEF7CEFA0C9031462846FEF7C9FA0D900E
:101F400010212046FEF7C4FA0E9020212046FEF70D
:101F5000BFFA0F9040212046FEF7BAFA1090802178
:101F60002046FEF7B5FA1190DDE90B010844DDE9E2
:101F70000D12114408440F9908441099084411990E
:101F80000844012804D10020401CC0B20628FBD917
:101F9000464C0125207801280FD0022801D00328C3
:101FA00008D10A98012802D00998012802D1012AF3
:101FB00000D1A56013B0BDE8F08303984FF42F79EA
:101FC000012804D100221146484600F090F80298FA
:101FD0006FF03106012801D1049818B10498012846
:101FE00003D00AE01422314604E0029828B96FF0C9
:101FF00013023221484600F07AF801986FF0630826
:1020000040F28A27012806D1059820B9322241469C
:10201000384600F06CF80598012806D1019820B9DF
:1020200032466421384600F062F800984FF4167684
:10203000012806D1069820B946224146304600F0D4
:1020400056F80698012807D1009828B96FF0450284
:102050006421304600F04BF802980128AAD1039879
:102060000128A7D104980128A4D10022114648468E
:1020700000F03DF8029801289CD10398012899D1DD
:102080000498012896D1656094E70000001402408E
:102090000020024000100240001C024000040240E8
:1020A00000180240000C024000080240000000201E
:1020B0000907090E002804DB00F1E02080F8001475
:1020C000704700F00F0000F1E02080F8141D704709
:1020D00002E008C8121F08C1002AFAD170477047F1
:1020E000002001E001C1121F002AFBD170474318F4
:1020F00010B49C1A401A8118801A134402462046D4
:1021000010BC00F001B8000070B5144D00242E1D65
:10211000002802DB2860346002E02C60404230601E
:10212000002902DB2960346002E02C604842306004
:102130000B49081D002A02DB0A60046002E00C6003
:102140005142016006490839081D002B02DB0B6073
:10215000046070BD0C605942016070BD34040140E0
:102160003C0C0040FEF7D4F9FFF7FAFBFFF74AF901
:10217000FFF726FAFFF75AFAFFF78CFAFFF7BEFAD5
:10218000FFF7F0FAFFF73EFBFFF700FAFFF7A2FBBD
:1021900008214A48FFF7A2F80C214848FFF79EF8AB
:1021A00000214748FFF79AF804214548FFF796F8C1
:1021B00008214348FFF792F80C214148FFF78EF8B9
:1021C00000213E48FFF78AF804213C48FFF786F8D3
:1021D000012000F079F83B4D00212A460846FFF720
:1021E00086FF4FF47A763046FEF776F8062000F048
:1021F0006BF800F08BF83046FEF76EF86C42002169
:1022000022460846FFF773FF7000FEF765F80320CB
:1022100000F05AF800212A460846FFF768FF4FF4FD
:102220009660FEF759F8012000F04EF83046FEF7B0
:1022300053F8002122460846FFF759FF40F63400C4
:10224000FEF74AF8032000F03FF800212A4608462E
:10225000FFF74DFF3046FEF73FF8022000F034F85C
:1022600076103046FEF738F8002122460846FFF780
:102270003EFF40F24C473846FEF72EF8032000F0B0
:1022800023F8002211462046FFF731FF3046FEF7C3
:1022900023F800212A460846FFF729FF3846FEF7B3
:1022A0001BF8002211462046FFF721FF4FF4E160A2
:1022B000FEF712F8FFF72EFBFEE700001C010020DE
:1022C0005C01002044FDFFFF2DE9F04105460D486B
:1022D000FEF744FD0C4C0120002620704FF4967749
:1022E0000AE03846FDF7F8FF66600120FDF7F4FFCD
:1022F00060680028F9D06D1E002DF2D1BDE8F041D4
:10230000FFF708BB9C0100200000002010B50C4C1A
:102310000320002120700B4A0846FFF7E8FE4FF427
:102320009670FDF7D9FF0848FEF718FD0120014619
:10233000A0600648FEF7D1F8BDE81040FFF7EABA02
:102340000000002044FDFFFF9C010020000402402B
:102350000000000000000000010203040607080955
:102360000000000001020304882300080000002090
:102370001C000000D0200008A42300081C0000203E
:1023800004060000E020000800000000000000003B
:10239000000000000100000010000000000000002C
:0423A0000024F40021
:04000005080001AD41
:00000001FF
