:020000040800F2
:10000000B80A0020C1010008DB240008B320000862
:10001000D9240008CD0C0008D52D000800000000F0
:10002000000000000000000000000000332800086D
:10003000650E00080000000031280008352800087F
:10004000DB010008DB010008DB010008DB01000820
:10005000DB010008DB010008DB010008DB01000810
:10006000DB010008DB010008DB010008DB01000800
:10007000DB010008DB010008DB010008DB010008F0
:10008000DB010008DB010008DB010008DB010008E0
:10009000DB010008DB010008DB010008DB010008D0
:1000A000DB010008E1280008DB010008DB01000893
:1000B000DB010008DB010008DB010008DB010008B0
:1000C000DB010008DB010008DB010008DB010008A0
:1000D000DB010008092D0008DB010008DB01000836
:1000E000DB010008DB010008DB010008DB01000880
:1000F000DB010008DB010008DB010008DB01000870
:10010000DB010008DB010008DB010008DB0100085F
:10011000DB010008DB010008DB010008DB0100084F
:10012000DB010008DB010008DB010008DB0100083F
:10013000DB010008DB010008DB010008DB0100082F
:10014000DB010008DB010008DB010008DB0100081F
:10015000DB010008DB010008DB010008DB0100080F
:10016000DB010008DB010008DB010008DB010008FF
:10017000DB010008DB010008DB01000800000000D3
:10018000DB010008DB010008DB010008DB010008DF
:10019000DB010008DB010008DB010008DB010008CF
:1001A000DB010008DB010008DB010008DFF80CD0F0
:1001B00000F072FB00480047BD300008B80A00207C
:1001C0000648804706480047FEE7FEE7FEE7FEE7F1
:1001D000FEE7FEE7FEE7FEE7FEE7FEE7C5280008CC
:1001E000AD0100082DE9F05F0546002092469B46D0
:1001F00088460646814640241BE02846414647463D
:10020000224600F078F953465A46C01A914110D35D
:1002100011461846224600F05FF92D1A67EB0108D7
:100220004F4622460120002100F056F917EB000945
:100230004E41201EA4F10104DFDC484631462A4627
:100240004346BDE8F09FD2B201E000F8012B491E01
:10025000FBD270470022F6E710B513460A46044663
:100260001946FFF7F0FF204610BD2DE9FE4F81EA49
:10027000030404F0004421F0004100944FF0000B0F
:1002800023F0004350EA01045ED052EA03045BD03D
:10029000C3F30A54C1F30A552C44A4F2F334019475
:1002A000A0FB0254C1F3130141F48011C3F3130303
:1002B00043F4801301FB024400FB034E840A970AB7
:1002C00044EA815447EA8357A4FB076802958D0AE4
:1002D00005FB07854FEA932C04FB0C542705029D70
:1002E0004FEA065847EA1637B5EB08056EEB070CE0
:1002F000870E920E47EA811742EA8312A7FB02019A
:10030000B6EB0B0164EB00042B0D43EA0C335E18D3
:1003100044EB1C50DA465146E7FB0201C5F31304D7
:100320004FEA0B3343EA14534FEA0432019C43EA89
:100330000603A4F10C040294009CCDE900B400F083
:1003400085F903B0BDE8F08F00200146F9E72DE9FB
:10035000F04D81EA030404F0004B21F000451446FF
:100360004FF0000A23F0004150EA050220D054EA81
:1003700001021DD0C5F30A570246C5F31303C1F3AA
:100380001300C1F30A5640F4801543F48013A7EB21
:100390000608101BD64608F2FD3873EB050002D3A1
:1003A00008F1010801E092185B41B8F1000F03DA8F
:1003B00000200146BDE8F08D00204FF48011064674
:1003C00084460EE0171B73EB050705D3121B63EB86
:1003D000050306434CEA010C49084FEA3000921825
:1003E0005B4150EA0107EDD152EA030012D082EAE4
:1003F000040083EA0501084305D0101BAB4106D277
:100400000122002306E000224FF0004302E06FF0DB
:10041000010253101AEB06004CEB085110EB0A00D6
:1004200041EB0B01BDE8F04D00F001B90EB5C10F75
:1004300080EAE0700844CA07002140F233438DE8A7
:100440000E000A460B4600F001F903B000BD00F0B3
:10045000004230F000400AD0C10D01F56071C0F3D8
:10046000160042EA0151C2084007114370470020BC
:100470000146704701F0004330B421F0004150EADA
:10048000010206D00A0DA2F56072C1F31301002A21
:1004900002DC30BC00207047440F44EAC104C100B4
:1004A000E01830BC00EBC25000F08AB830B50B4603
:1004B000014600202022012409E021FA02F59D4294
:1004C00005D303FA02F5491B04FA02F52844151E68
:1004D000A2F10102F1DC30BD202A04DB203A00FA4F
:1004E00002F1002070479140C2F1200320FA03F38B
:1004F000194390407047202A04DB203A21FA02F089
:100500000021704721FA02F3D040C2F1200291404D
:1005100008431946704700000FB40B0010B58AB0AD
:100520000FA900910E994FF00004234ACC60214C92
:10053000CDE9064200D004236FF00042CDE901323C
:100540001E4A089202466B46002000F063FA0AB089
:1005500010BC5DF814FBF0B585B007464FF0FF30D6
:100560000091CDE901011E46002015460C4604907D
:100570003B466A46314604A8FFF7CEFF049903467E
:10058000601825B109B1024600E022462A60002920
:100590000ED0002B02DD0099814209D00094001B8F
:1005A000CDE901043B466A46314604A8FFF7B4FF93
:1005B00005B0F0BD4D0C00086B0C0008E108000808
:1005C0000029A8BF7047401C490008BF20F0010067
:1005D000704710B4B0FA80FC00FA0CF050EA010445
:1005E00004BF10BC704749B1CCF1200421FA04F4D7
:1005F00011FA0CF118BF012121430843A3EB0C01B0
:10060000CB1D4FEA00614FEA102042BF002010BC12
:10061000704700EBC35010440029A4BF10BC7047C2
:10062000401C490008BF20F0010010BC704710B505
:10063000141E73F1000408DA401C41F10001921805
:100640005B411A4301D120F0010010BD2DE9F04DAE
:1006500092469B4611B1B1FA81F202E0B0FA80F203
:1006600020329046FFF738FF04460F4640EA0A0062
:1006700041EA0B0153465A46084313D0114653EA48
:10068000010019D0C8F140025046FFF734FF05467B
:100690000E46504659464246FFF71EFF084305D016
:1006A000012004E020463946BDE8F08D00200543D6
:1006B00046EAE0762C4337430A986305E40AA0EB48
:1006C00008000022FD0A44EA47540A3002D50020FF
:1006D0000146E9E7010510196941DDE908450019FE
:1006E0006941BDE8F04DA2E72DE9FE4F804681EA61
:1006F0000300C00F0C46009021F0004123F000459C
:10070000B8EB0200A94105D24046214690461C465E
:100710000B46024623F00040104347D0270DC7F395
:100720000A00C3F30A510290401A019040286BDA84
:10073000C3F3130040F4801B0098924620B10023BD
:10074000D2EB030A63EB0B0B01985946C0F1400250
:100750005046FFF7C1FE06460D4650465946019ADF
:1007600000F0ACF810EB08006141002487EA115258
:1007700084EAE7731A4340D0009A62B3019A012ACF
:100780004FEA075215DC001B61EB02014FF00042FB
:1007900002EA0752CDE90042001C41F580113246C1
:1007A0002B46FFF753FF03B0BDE8F08F40462146CC
:1007B000F9E7001B61EB0201001C41F580130018F2
:1007C0005B412018A2F5001747EB030140EAD57002
:1007D000B6196D4111E06D084FEA360645EAC0755D
:1007E0004FEA0752001B61EB0201001C41F580112A
:1007F00049084FEA30000019514132462B4603B0F8
:10080000BDE8F04FFFF713BF00980122400000231E
:10081000D0EB020263EBE073009821464FEAE074EC
:10082000B8EB000061EB0401E9E783F000435BE70C
:1008300081F0004158E7C1F30A52C1F3130140F2BD
:10084000FF3341F480119A4202DA002001467047DA
:1008500040F233439A42A2F2334202DC5242FFF7A3
:100860004ABEFFF739BE000030B5041E71F1000426
:1008700004DB4FF00044404264EB0101141E73F1AD
:10088000000405DB1C464FF00043524263EB0403B7
:10089000994208BF904230BD064C074D06E0E06823
:1008A00040F0010394E8070098471034AC42F6D3B7
:1008B000FFF780FC243B0008443B0008202A06DBAD
:1008C000CB17203A41FA02F043EAE07306E041FA1E
:1008D00002F3D040C2F1200291400843194670470C
:1008E000C0B24FF4F05100F0D1B900002DE9FF4F34
:1008F000087883B09946FF2805D0491C2D2804D0DC
:100900000024002008E000200BE00124F9E700EBC0
:10091000800003EB4000491C0B78FF2BF7D104B19A
:10092000404200230293147819461D462D2C01D015
:100930002B2C04D1521C2D2C13D000240294AA4637
:100940001478FF2C0FD00A25A3FB057801FB058145
:100950004FF0000C03FB0C11521CE3194AEB010190
:10096000EEE70124EAE7814453EA010002D019F5D9
:10097000C87F06DA03980021C0E9001107B0BDE87E
:10098000F08F0025AE4E2F46DFF8B882184600F0F3
:1009900091F9CDE90001B9F1000002DAC9F10004D2
:1009A00000E004460023A74A1AEB030B42EB045A6B
:1009B00012E0E00707D02A46334638464146FFF7A3
:1009C00054FC074688462A46334610461946FFF728
:1009D0004CFC05460E466410002CEAD1DDE900010E
:1009E000B9F1000F5A46534606DAFFF7B0FC3A4613
:1009F0004346FFF7ACFC05E0FFF737FC3A464346B9
:100A0000FFF733FC029A0AB181F00041039AC2E970
:100A10000001B3E72DE9FF4F1F468DB0D7E901462E
:100A20004FF0FF382E2045464FF000090B90B96972
:100A30006D1C0E988847396A824688470028F6D18F
:100A4000BAF1FF3F0AD024F4D064002E11DDBAF1D0
:100A50002B0F08D0BAF12D0F0BD102E0404611B098
:100A60008DE744F48064B9696D1C0E98884782460E
:100A7000761E6946600501D52D2000E02B208DF8FB
:100A8000000001F1010B0DF1200809E0B9696D1CAE
:100A90000E98884782460F9844F40074761E0560CD
:100AA000002E02DDBAF1300FF0D00B998A453ED10D
:100AB00044F0800406E00F99681CA9F1010944F490
:100AC00000740860B9696D1C761E0E9888478246CE
:100AD0003028F0D02BE00B998A4505D1200603D4AD
:100AE00044F08004761E18E0504602F04FFC08B334
:100AF0000DF11302761EAAF1300044F40074934500
:100B000006D20BF8010B200607D5A9F1010003E07E
:100B1000200602D409F101008146A00502D50F99F3
:100B2000681C0860B9696D1C0E9888478246002EC3
:100B3000D1DC53E0002E51DDBAF1650F02D0BAF1DD
:100B4000450F4BD1A00549D5B9696D1C24F44074FB
:100B5000761E0E9888478246002E0CDD2B2804D086
:100B6000BAF12D0F07D144F48074B9696D1C0E9849
:100B700088478246761EE00501D52D2100E02B2115
:100B800008F8011BCDF82C8021E00DF12901761E1B
:100B900044F4007488450CD2AAF1300010F0FF0034
:100BA00088F8000002D10B99884509D908F101089D
:100BB00006E0E00501D5244801E042F20F708146CD
:100BC000B9696D1C0E98884782460F980560002E03
:100BD00004DD504602F0DAFB0028D6D1F9690E9800
:100BE0008847FF208BF8000088F80000002006905E
:100BF00007904B466A4608A906A8FFF777FEA005AE
:100C000002D46FF001002AE714F0240F0AD0E007A5
:100C100014D1DDE906123868031D3B600068C0E9A5
:100C200000120BE0DDE90601FFF724FC0146E007B6
:100C300004D13868021D3A600068016028460EE75A
:100C4000000014400000F03FF1D8FFFF426842B1BD
:100C5000016811F8013B23B1521EC0E90012184689
:100C600070470121C160881E704742685AB1C3684D
:100C7000016843B983688B4205D0491E521CC0E904
:100C80000012002070474FF0FF3070477F2801D9D5
:100C9000002208E0064A02EB5002C007127800D199
:100CA000120902F00F020120904008407047000036
:100CB000CA3A00080EB540F2334202920022CDE952
:100CC00000221346FFF7C2FC03B000BDFEE70000A0
:100CD0002DE9FE4F5048514A514B524C00250068B7
:100CE000416A1268D2F824A01B68D3F824B02468A3
:100CF000666A029645624C4855625D6201804B48C7
:100D0000A0F84CA0A0F80CB0868501F4004089B290
:100D1000656201F09BFC9FED3A0B58EC109B01F0D3
:100D200045FC9FED390B56EC107B01F008FC9FED64
:100D3000380B54EC105B01F0D1FBFFF79BFB3A49F9
:100D4000019008610AF400401FFA8AF101F07EFC6C
:100D500001F02CFC01F0F3FB01F0C0FBFFF78AFB74
:100D6000DFF8C8A00FFA8BF1B1F1FF3FCAF85C00C1
:100D70005846CFF6FF70C8BF1FFA8BF0FFF756FB3F
:100D800001F014FC01F0DBFB01F0A8FBFFF772FBA4
:100D90000299CAF81C0001F4004089B201F056FC27
:100DA00001F004FC01F0CBFB01F098FBFFF762FBC4
:100DB000CAF83C000198FFF74AFB204C02461CA0F1
:100DC0000B46A047DAF85C00FFF741FB02461CA087
:100DD0000B46A047DAF81C00FFF739FB02461BA0C0
:100DE0000B46A047DAF83C00FFF731FB02460B4602
:100DF00019A0214603B0BDE8F04F084700BF00BF6F
:100E00000000000000F094400000000000001840C6
:100E10001F85EB51B81E0940B004002030050020AA
:100E200070050020B0050020900000201800002070
:100E30005350454544313D25660D0A007531000883
:100E40005350454544323D25660D0A0053504545F3
:100E500044333D25660D0A005350454544343D2535
:100E6000660D0A007047704790F83510022909D1C5
:100E7000052180F835100068016821F0010101604A
:100E80000020704780214165012070472DE9FC4F0B
:100E90005E4A0A244FF0010B4FF000084FF0000E9D
:100EA00090425B4A08BF092402444FEAB223092B4F
:100EB00038BF4FEAB22400940022BEF1200F08BFD1
:100EC000BDE8FC8F0F680BFA02F6374200F0908005
:100ED0004F68122F00F292800BFA07F414F0061FED
:100EE00000F08C8003234FEA420A03FA0EF4836871
:100EF000CD686FEA040CA34305FA0EF52B4383601B
:100F00003B0945689340B5432B434360C4688D68F3
:100F100004EA0C0405FA0AF52C43C46047F01004F7
:100F2000122C12D108F01C040F2303FA04F56FF001
:100F3000030303EA52070744D7F820900B6929EA14
:100F40000505A3402B433B624F68036807F0030489
:100F500004FA0AF403EA0C0323430360FB0047D5B9
:100F600000232E4C2B4F22F0030501932368BC462F
:100F70003D4443F48043236023680F2403F48043FB
:100F8000019308F00C03019F9C40254FB946EF598F
:100F900027EA0404009F07FA03F3234345F80930C6
:100FA000DCF800304D6843EA0604EF0358BF23EA3B
:100FB0000604CCF80040AF03DCF8043043EA060432
:100FC00058BF23EA0604CCF80440EF02DCF80830EE
:100FD000114F43EA060458BF23EA0604CCF8084040
:100FE000AD023B6843EA060458BF23EA06043C60AE
:100FF00008F104080EF1020E01325EE70323F24607
:1010000003FA0EF46FEA040C80E700BF00240240EC
:101010000000FEBF003C01400C3C0140443802404F
:1010200008FCFFFF0069084018BF01207047002A34
:1010300008BF09048161704705480068704700BF18
:101040001F48034900780A6810440860704700BFD1
:10105000B006002080B50B48016841F400710160C2
:10106000016841F480610160016841F480710160B0
:10107000032000F073F8002000F006F800F022F8DA
:10108000002080BD003C024070B50D4E04464FF478
:101090007A713078B1FBF0F0A1490968B1FBF0F04A
:1010A00000F0FEFA01250F2C08D838B94FF0FF30B8
:1010B00021460022002500F02BF87460284670BD00
:1010C0000800002082B00020434901904A6842F4A1
:1010D00080424A604A6802F480420192019A00907C
:1010E000086840F080500860086800F08050009068
:1010F000009802B0704700BF002806D4734601F084
:1011000033FA9E46014A42F82010704700E100E0A1
:10111000F0B5184B4FF0FF361C68C4F30224E51EEF
:1011200084F0070438BF002506FA05F7BA43042CFB
:1011300028BF042406FA04F4A14300F00F04A940D8
:10114000043C11432344044A09010C33B0F1FF3F2E
:10115000C8BF83181970F0BD00E400E005494FF6E0
:10116000FF030A681A4060F30A220348104308602C
:10117000704700BF0CED00E00000FA057CB50020D0
:10118000164E174D01901448016841F080510160DE
:10119000006800F080500190019801203060FFF756
:1011A0004BFF04462868C00305D4FFF745FF01F054
:1011B000B7F9F7D90EE001207060FFF73DFF044654
:1011C0002868800344BF00207CBDFFF735FF01F095
:1011D000A7F9F5D903207CBD4038024040000E42FB
:1011E000047000402DE9F041002857D03F4B0446E1
:1011F0008846D3F8000400F00F00884204D283F838
:10120000008401F087F949D12068810711D5410791
:1012100003D5996841F4E0519960010703D59968B5
:1012200041F460419960A1689A6822F0F00211438C
:101230009960C0072BD101F06DF904D983F80084BF
:1012400001F068F92AD12068410705D5E1689A685C
:1012500022F4E05211439960000706D5206999688D
:1012600021F4604141EAC00098601C4600F05EF83D
:10127000A1681F4AC1F30311515CC84028490860A6
:101280001C480068FFF700FF0020BDE8F08160689F
:10129000811E022905D21968890107D40120BDE801
:1012A000F08101281DD119688903F7D599681D4679
:1012B00021F0030108439860FFF7BEFE064641F2A5
:1012C00088376068A9682B4601F00C01B1EB800FEC
:1012D000B1D0FFF7B1FE801BB842F2D90320BDE8C0
:1012E000F08119688907D9D5E0E700BF00380240CE
:1012F0000A3B00080C00002009480A490A4A006815
:101300000968C1F38221515CC8407047044805490F
:10131000054A00680968C1F34231515CC840704712
:1013200010000020083802401A3B000810B5134C8A
:10133000606800F00C00082804D0042814BF10488E
:10134000104810BD226820680023400202F03F02CE
:101350000C485CBF42F20040C0F2F4002168C1F3C7
:101360008811A0FB0101FEF73DFF21680222C1F3B5
:10137000014102EB4101B0FBF1F010BD0438024025
:101380000024F40040787D012DE9FC41002858D06C
:1013900004460078BE4EC0070BD0B06800F00C00C9
:1013A000042840F087803068800302D560680028F8
:1013B00047D02078800718D5B06810F00C0F07D000
:1013C00001F0FFF840F08E807068400200F18A80E2
:1013D0003068800702D5E068012832D12069316881
:1013E00021F0F80141EAC0003060207800072BD4DA
:1013F000207840073BD4A76907B301F0E2F840F03A
:10140000A280012F1DD0E169706800F480028A4239
:1014100017D1216A00F03F028A4212D147F6C0710B
:10142000626A014091420CD1A16A00F440328A42C2
:1014300007D1E16A00F07060884202D10020BDE867
:10144000FC810120BDE8FC816169924800296AD0D5
:101450000121C0F8801EFFF7EFFD0546706F800781
:10146000C6D4FFF7E9FD401B0228F7D9C9E0306C6C
:1014700010F080580AD100200190306C40F080506C
:101480003064306C00F0805001900198824F3868D1
:10149000C0053AD4386840F480703860FFF7CCFD5E
:1014A00005463868C00530D4FFF7C6FD401B02284A
:1014B000F7D9A6E001F085F803D1706840023FF546
:1014C00072AF6068B0F5803F07D0B0F5A02F40F054
:1014D0008280306840F480203060306840F4803092
:1014E000306082E0E06800284CD06A480121016049
:1014F000FFF7A2FD0546306880073FF56FAFFFF7A5
:101500009BFD401B0228F6D97BE0A068012805D08E
:10151000052848D1306F40F004003067306F40F04C
:101520000100306749E00021C0F8801EFFF784FD0C
:101530000546706F80077FF55BAFFFF77DFD401BB1
:101540000228F6D95DE05349002088460866FFF777
:1015500073FD0546022F0AD147463068800153D5F6
:10156000FFF76AFD411B03200229F6D967E73068BF
:1015700080017FF563AFFFF75FFD411B0320022968
:10158000F5D95CE7434800210160FFF755FD0546AA
:10159000306880077FF529AFFFF74EFD411B032020
:1015A0000229F5D94BE7316F002821F0010131679D
:1015B000316F21F00401316744D0FFF73DFD05464E
:1015C00041F28837306F80074BD4FFF735FD401B61
:1015D000B842F7D915E03168002821F48031316034
:1015E000316821F48021316044D0FFF725FD0546A4
:1015F000306880033FF5DDAEFFF71EFD401B642819
:10160000F6D90320BDE8FC811C341FCC08432349D4
:1016100040EA821001EBC33140EA04606FF30F012E
:101620000843706001203866FFF706FD0446306805
:1016300080013FF503AFFFF7FFFC011B03200229E8
:10164000F5D9FCE6FFF7F8FC054641F28837306F24
:10165000800706D5FFF7F0FC411B0320B942F6D9FD
:10166000EDE6B8F1000F7FF4C6AE306C20F080508C
:101670003064C0E6FFF7E0FC0546306880037FF584
:1016800098AEFFF7D9FC411B03206429F5D9D6E6B3
:101690000038024000004742007000400000FFFF99
:1016A000411E0020B0EB116F1CBF01207047044A9F
:1016B000F023516003490B7007219060116070475F
:1016C00010E000E023ED00E070477047F0B50246FF
:1016D00090F83C00012804BF0220F0BD01F108078A
:1016E000D1E900C44B690020C969E0CF82F83C0011
:1016F000126826F47C5624F4F04425F470553543E2
:101700002C432CF4E0452C4327F4C0452C432343C1
:1017100023F4804319435164F0BD000010B590F8E4
:101720003C300222012B2CD080F83D2002680B684F
:10173000546824F070041C439368B2F1804F5460E5
:1017400014D0A24CA24211D0A14CA2420ED00E4CF9
:10175000A2420BD00D4CA24208D09E4CA24205D012
:101760000B4CA24202D00B4CA24204D1496823F098
:101770008003194391600022012180F83C2080F809
:101780003D10104610BD00BF000C00400018004086
:10179000004001400004014060B110B500F04EFF70
:1017A00003D100F020FF00F007F800F057FF012000
:1017B00000F050BF01207047E0B500680C49884236
:1017C00018BF8CBD0020002201900A48016841F436
:1017D000003101600021006800F4003001900198A0
:1017E0001920FFF795FC1920BDE88C40FFF784BC59
:1017F00000440140443802400068C16841F00101E2
:10180000C160724600F036FF964603D0724600F083
:101810002CFF964600207047002842D0F8B50446B9
:1018200090F83D000D4618B900F0DDFE00F03CF8E0
:10183000022044F2070284F83D0020688168914349
:101840008160211D01F05AF82668D5E9000CD5E920
:101850000223B7683843B769316AB060A86942EAC1
:1018600000204FF6FC4290434FF6FF7227EA020237
:101870001A431043EA6940EA02202A6940EA02104A
:101880002A6A40EA0230B06121F0AA00696940EAA0
:101890000C0040EA01103062012084F83D00002075
:1018A000F8BD01207047000010B586B0044601A8BD
:1018B0001421FEF7CFFC2068B0F1804F36D04349A9
:1018C000884247D0424988425AD0424988427BD117
:1018D0000020C24900904A6942F001024A614A6907
:1018E00002F001020092009A00900A6842F0100291
:1018F0000A60096801F010010091CDE9030002209F
:10190000012102904FF4206005910190009801A9F7
:10191000B34800F58050FFF7B9FA192000210022E2
:10192000FFF7F6FB1920FFF7E7FB4DE00020AB497E
:1019300000900A6942F001020A610A6902F001029C
:1019400000F006FE0121CDE903000220029005917E
:10195000222011E00020A14900900A6942F0020211
:101960000A610A6902F0020200F0F2FD0221CDE9EB
:101970000401CDE90210C02001900098984820E0B1
:101980000020964900900A6942F004020A610A693F
:1019900002F004020092009A00900A6842F00802E5
:1019A0000A60096801F0080100910221CDE90401F3
:1019B000CDE902104FF4405001908948009900F59C
:1019C000406001A9FFF762FA06B010BD00040040B4
:1019D000000800400000014010B5044641F004003A
:1019E000042804D02068002100F0CBFD04212068E9
:1019F00000F0C7FD2068016841F00101016000208E
:101A000010BD704710B5044600680169890712D5FA
:101A1000C16889070FD56FF00201016101212177AB
:101A20008069800702D000F00EFE01E000F0E0FDCA
:101A30000020207720680169490713D5C16849074C
:101A400010D56FF00401016102212177806910F443
:101A5000407F02D000F0F7FD01E000F0C9FD00205A
:101A6000207720680169090712D5C16809070FD5D9
:101A70006FF00801016104212177C069800702D05D
:101A800000F0E1FD01E000F0B3FD002020772068C8
:101A90000169C90613D5C168C90610D56FF01001D8
:101AA000016108212177C06910F4407F02D000F065
:101AB000CAFD01E000F09CFD00202077206801694C
:101AC000C90709D0C168C90706D06FF001010161DB
:101AD000204600F023F920680169090609D5C1688C
:101AE000090606D56FF0800101612046FFF7ECFD85
:101AF00020680169490609D5C168490606D56FF015
:101B000040010161204600F023F92068016989063F
:101B100002D5C168890600D410BD6FF020010161B3
:101B20002046BDE81040FFF7D0BD000070B586B07C
:101B3000044601A81421FEF78DFB206876498842EF
:101B40002ED06849884246D1002524480226244CDC
:101B50000095016841F001010160016801F0010197
:101B6000009100990095016841F0800101600068D2
:101B700000F0800000900C20CDE90456CDE902650C
:101B80000190009801A92046FFF780F94FF44060CA
:101B9000CDE90456CDE90265019004F5E05017E067
:101BA0000020EA4900900A6842F004020A600968CD
:101BB00001F004010091CDE903000220032102900D
:101BC0004FF47070059101900098054800F5006091
:101BD00001A9FFF75BF906B070BD00BF30380240C5
:101BE000000002407047000070B500F00BFD44D0CB
:101BF00084F83D0001264FEAB200032884F83C60D7
:101C000036D8DFE800F0020A12222068294600F0E8
:101C1000EFFE206850F8181F0EE02068294600F0FB
:101C200017FF206850F8181F16E02068294600F0BA
:101C30003DFF206850F81C1F41F008010160016859
:101C400021F00401016029690FE02068294600F0B5
:101C50005BFF206850F81C1F41F4006101600168BF
:101C600021F4806101602969090202681143016061
:101C7000002084F83C0084F83D6070BD60B110B570
:101C800000F0DCFC03D100F0AEFC00F007F800F03F
:101C9000E5FC012000F0DEBC0120704782B0006846
:101CA0001D4988420FD00F49884218D10020019069
:101CB0000D48016841F008010160006800F008006B
:101CC000019001980BE0002000900748416841F026
:101CD00002014160406800F002000090009802B0EC
:101CE000704700BF000C00404038024070470000C1
:101CF00010B50446006800F044FC2068064A00F075
:101D000043FC01D100F04DFC00F0B4FC01D000F028
:101D1000ACFC002010BD00BF0004014080B50A49A2
:101D2000884200D080BD01F057F8084801680929B1
:101D300002D80131016080BD00210160FEF7C8FFBB
:101D4000BDE8804000F09CBCF00400208C00002026
:101D50007047704770B5044600680268C1684569FD
:101D600013073ED001F4907605F0010576193CD0BA
:101D7000D60705D0CE0503D5E66B46F00106E6632F
:101D8000560704D51DB1E66B46F00206E6639607DA
:101D900004D51DB1E66B46F00406E663002B07D5BB
:101DA00001F020035B1903D0E36B43F00803E36306
:101DB000E36B002B69D0920605D5890603D5204632
:101DC00000F0DBFE20684069E16B00F0400001F0AC
:101DD0000801401831D12046FFF7BBFF0020E06327
:101DE00053E0930601D58B063BD4130601D50B06B1
:101DF0000FD4520649D5490647D5C16821F04001A4
:101E0000C160202084F839002046BDE8704000F011
:101E10004FB994F83910212937D1A168B1F5805F05
:101E200029D1216A22690B88002A6FF35F2343605E
:101E300014BF01310231216222E0204600F090FE01
:101E400020684169490611D500F0E3FB0ED0144922
:101E50000165FFF709F8C0B1606B016DBDE8704026
:101E600008472046BDE8704000F087BE2046BDE828
:101E70007040FFF76EBF216A4A1C226209784160F8
:101E8000E18C0139E184090400D070BDC16821F002
:101E90008001C160C16841F04001C16070BD00BFF8
:101EA000552B000890B110B5044690F8390008B9D8
:101EB00000F061FB00F038FB2068016921F49041DB
:101EC0000161416921F02A0100F080BB01207047C7
:101ED00010B586B0044601681B48814231D100210B
:101EE000C74A00F570400191536943F010035361F4
:101EF000536903F010030193019B0091136843F0B1
:101F000001031360126802F0010200920722059299
:101F10000322CDE90312022102914FF4C061019125
:101F2000009901A9FEF7B2FF252000210022FFF74A
:101F3000EFF82520FFF7E0F82068C16841F02001A4
:101F4000C16006B010BD00BF001001403038024033
:101F50002DE9F843054690F83A00202807D10E46AF
:101F600041B1174632B195F83800012805D1022059
:101F7000BDE8F8830120BDE8F8834FF00009012097
:101F80001C46C5F83C9085F83800222085F83A00B8
:101F9000FFF752F88046EF85AF8585F83890E88DD9
:101FA00020B3E88D2021424623460138E8852846A3
:101FB000AF6800F07DFEB7F5805F0DD1E0B928680D
:101FC00029694068002919BFC0B226F8010B6FF3D8
:101FD0005F2026F8020BE2E770B92868296940689B
:101FE00009B100F07F0006F8010BD8E7202085F842
:101FF0003A000020BDE8F8830320BDE8F88370476D
:102000002DE9F843044690F83900202807D10E4600
:1020100041B1174632B194F83800012805D10220A9
:10202000BDE8F8830120BDE8F8834FF000090120E6
:102030001D46C4F83C9084F83800212084F839000B
:10204000FEF7FAFF8046E784A78484F83890E08C96
:10205000F0B1E08C802142462B460138E0842046D6
:10206000A76800F025FEB7F5805F0BD1B8B93288BC
:10207000216920686FF35F220029426014BF013696
:102080000236E4E758B916F8010B21684860DEE72C
:102090002046402142462B4600F00AFE10B10320A4
:1020A000BDE8F883202084F839000020BDE8F883DB
:1020B0007047FEE72DE9F04387B000275048002223
:1020C0004FF00108CDE905770197016841F0100153
:1020D0000160016801F0100100F004FA41F0040110
:1020E0000160016801F0040100F0FCF941F4807125
:1020F0000160016801F4807100F0F4F941F0200101
:102100000160016801F0200100F0ECF941F080016C
:102110000160016801F0800100F0E4F941F0010183
:102120000160016801F0010100F0DCF941F00201F9
:102130000160016801F0020100F0D4F941F00801EA
:102140000160016801F0080100F0CCF941F04001A4
:1021500001600121006800F04000019001982948C9
:1021600000F5806681463046FEF761FF7020CDE9BC
:102170000377254C029002AD09F580502946A0470F
:1021800040F6F30000F0DFF909F50050A0474FF4E6
:10219000E07000F0D8F909F5A050A047484629465C
:1021A0000497CDE90287A0474FF4E27000F0CBF925
:1021B00009F5E050A047022029460597CDE902889D
:1021C00004903046A0474FF4704000F0BCF9304610
:1021D000A0474FF4C05000F0B6F909F50060A047E1
:1021E0008C2000F0B0F909F54060A0474FF4305062
:1021F00000F0A9F909F5C050A04707B0BDE8F08389
:1022000030380240000002408D0E000810B507482B
:10221000074C00216322B32300F0CCF9FFF7BCFA8E
:1022200018B1BDE81040FEF71EBE10BDF00400203E
:102230000044014010B58CB0144800244FF6FF71E3
:10224000134ACDE90A44CDE90744CDE90044C0E989
:1022500002410121C0E90024C0E9044484610991DC
:10226000CDE90514CDE9031403A9FFF7D5FA08B1A8
:10227000FEF7F9FD05486946CDE90044FFF74EFA3F
:1022800008B1FEF7F0FD0CB010BD00BFB004002097
:102290000000014080B58CB00B4800214FF6FF7262
:1022A0004FF0804300F023F903A9FFF7B5FA08B116
:1022B000FEF7D9FD04486946FFF730FA08B1FEF78A
:1022C000D2FD0CB080BD00BF3005002080B58CB0C1
:1022D0000A4800214FF6FF72094B00F008F903A9E4
:1022E000FFF79AFA08B1FEF7BEFD04486946FFF70A
:1022F00015FA08B1FEF7B7FD0CB080BD70050020DF
:102300000004004080B58CB00A4800214FF6FF72EF
:10231000094B00F0ECF803A9FFF77EFA08B1FEF7CD
:10232000A2FD04486946FFF7F9F908B1FEF79BFDE5
:102330000CB080BDB00500200008004010B58AB088
:102340002248234C002140F2E7321123CDE9081145
:10235000CDE90611CDE9041100F02CF9FFF78EFC50
:1023600008B1FEF780FD194808A9FFF7D7F908B1B1
:10237000FEF779FD002000220590CDE902006020E3
:102380000190124801A9FFF72FFC08B1FEF76BFD81
:102390000E4801A90422FFF727FC08B1FEF763FDF0
:1023A0000A4801A90822FFF71FFC08B1FEF75BFDF0
:1023B000064801A90C22FFF717FC08B1FEF753FDF0
:1023C0000248FFF7B3FB0AB010BD00BFF0050020C4
:1023D000000C0040B0B592B000251C21CDE910558D
:1023E00009AC2046FDF736FF01A82021FDF732FF9A
:1023F00029482A4B40F2E7311122C0E90032C0E9F6
:102400000251C0E904558561FFF738FC08B1FEF7B9
:102410002AFD214810A9FFF781F908B1FEF723FD35
:10242000602018210990201DFDF714FF1A4821464D
:102430000022FFF7D9FB08B1FEF715FD164809A9E0
:102440000422FFF7D1FB08B1FEF70DFD124809A9E0
:102450000822FFF7C9FB08B1FEF705FD0E4809A9E0
:102460000C22FFF7C1FB08B1FEF7FDFC01AC142103
:102470002046FDF7EFFE0020214608904FF4005063
:1024800006900548FFF722F908B1FEF7ECFC024878
:10249000FFF74CFB12B0B0BD300600200004014035
:1024A00010B50B480B4C00210C224FF4E133C0E96E
:1024B0000043C0E90211C0E90412C0E90611FFF7A8
:1024C000F1FC18B1BDE81040FEF7CDBC10BD00BF57
:1024D0007006002000100140FEE770472A462346A0
:1024E000FDF7C3BE01910199019701687047CDE9DD
:1024F0000A11CDE90711CDE90011C0E9021201224C
:102500008161C0E9003101610992CDE90521CDE980
:1025100003217047D3F8000400F00F0040457047D6
:10252000001BB0F57A7F7047242084F839002068BA
:10253000C16821F40051C160204600F059BB3A4601
:102540003346FDF792BE2946CDE9037702907047E6
:102550000092009A00900A6842F001020A6009683D
:1025600001F001010091704700F01F0101224009B4
:1025700002FA01F17047002084F838002046FFF786
:10258000A7BC012200F024BA40F480619142704758
:1025900064216FF06303B0FBF1F202FB030032230E
:1025A0007047416C41F40041416470474A464346DC
:1025B000FDF7CDBE8161C0E90043C0E902120161AF
:1025C0007047B06800F00C00082870474161C1688E
:1025D00041F40051C16000202021E06384F83910EB
:1025E00084F83A1010BD002084F83C002046704763
:1025F0004DF808ED2046FFF7F5FA20465DF808EBA8
:10260000FFF774BB0D4690F83C10044602200129E8
:102610007047416921F040014161606B00287047BB
:10262000A6F580670262B842D1F800C08B68046AE0
:1026300045687047B0EE601A00F0D8BC044690F8C8
:102640003D00002870472046FFF7DBB9C1EB400092
:10265000FDF7ECBE84F83D00002010BD0220211DD6
:1026600084F83D00206800F049B9016841F001019B
:1026700001607047816801F007010629704700007A
:102680002DED028B65486649DFED672A90ED020A61
:1026900090ED041A90ED054A91ED152A91ED073A57
:1026A00091ED085A91ED0D6A90ED067AD0ED070A8A
:1026B000D1ED193AD1ED1A4AD1ED0A6A30EE410A4C
:1026C00091ED171A80ED077AC1ED1A3A30EE044AFF
:1026D00070EE471A80ED030A80ED060A32EE411AC9
:1026E00091ED052A80ED054A91ED184A71EE635A85
:1026F00081ED161A81ED191A32EE432A31EE044AA1
:1027000091ED0F3A81ED184A32EE054A81ED062A25
:1027100081ED084A91ED104A36EE433A90ED016A98
:1027200081ED0E3A33EE044AB8EEC66A81ED104AE6
:102730009FED3C4A20EE045A01EEA25A77EE071AAA
:1027400070EE611A71EEA00ADFED381A00EEA15AA0
:10275000D1ED140AF8EEE00A35EE065A21EE046ACD
:1027600005EEA26ABDEEC55A73EEA35A71EE655A24
:1027700080ED015A15EE103A75EEA44AD1ED095AD2
:1027800081ED092A04EEA16AD1ED044A72EE657A60
:10279000C1ED0A5AF8EEE44A36EE206A62EE040A07
:1027A00023EE044A47EEA20ABDEEC66A75EEA57A8C
:1027B00072EE677A81ED146A16EE102A77EEA66A39
:1027C000D1ED127A46EEA10AD1ED116A81ED113AEE
:1027D00033EE668AC1ED126A08EE224A76EEA62A28
:1027E00070EEA40AD1ED0C4A73EE622AFDEEE00A07
:1027F00072EEA72AC1ED040A10EE900A02EEA14A79
:10280000F8EEE41A34EE214ABDEEC44A81ED0C4ADA
:1028100014EE101ABDEC028B00F014BC90000020E6
:10282000180000200000FA420000B44200000C42F0
:1028300070477047FEF704BC70B592B006AC142127
:10284000201DFDF707FD00251C48022601950168A3
:1028500041F080510160006800F0805001900198C3
:1028600001951748016841F440410160006800F497
:102870004040019004201096CDE90C650696119019
:10288000B4200F9008200E9010200A90012009908B
:1028900001982046FEF778FDFEF770FC4FF480505B
:1028A000CDE90265052105904FF4A05004900F205A
:1028B000019001A8FEF796FC12B070BD40380240AE
:1028C000007000400548D0F8801041F47001C0F855
:1028D00080104FF000610160704700BF08ED00E01C
:1028E00080B50448FFF78EF80348BDE88040FFF745
:1028F00089B800BFB0040020F004002070B52A4A57
:102900000368904234D0B0F1804F0BD0274CA042E6
:1029100008D0274CA04205D08D4CA04202D0254CB7
:10292000A04203D14C6823F070032343B0F1804FE1
:1029300022D01E4CA0421FD01D4CA0421CD01D4CCA
:10294000A04219D01C4CA04216D01C4CA04213D05F
:102950001B4CA04210D07E4CA0420DD0194CA0427E
:102960000AD0194CA04207D0184CA04204D007E06E
:102970004C6823F070032343CC6823F44073234353
:102980004E6923F080030C688D68334390420360E6
:10299000C562846203D002F58062904201D1096968
:1029A00001630121416170BD00000140000400404D
:1029B00000080040000C004000180040001C0040CF
:1029C0000020004000400140004801400044014018
:1029D00010B501F01F010123046A8B4002FA01F1D6
:1029E00024EA03030362026A1143016210BD00007E
:1029F000F0B5026A564E22F00102A6F58067026227
:102A0000D1F800C08B68046A456824F002042343AF
:102A10008469B84218BFB04210D1CA6823F00C03D1
:102A200022F004021343B84218BFB04206D125F485
:102A30004072D1E905562A4342EA060524F07302A2
:102A4000456042EA0C028261496841630362F0BD5D
:102A5000F0B5026A3E4E22F01002FFF7E1FDD0F819
:102A600018E018BFB04224F0200444EA031313D145
:102A7000CA686FF0400423F0C00304EA0212134353
:102A8000B84218BFB04207D1D1E9052425F440650A
:102A900045EA820242EA84052EF4E642456042EAB3
:102AA0000C228261496881630362F0BDF0B5026A5D
:102AB000274E22F48072FFF7B3FDD0F81CE018BF58
:102AC000B04224F4007444EA032313D1CA6840F2EC
:102AD000FF4423F440631202A2431343B84218BFD9
:102AE000B04207D1D1E9052425F4405545EA021248
:102AF00042EA04152EF07302456042EA0C02C261FC
:102B00004968C1630362F0BDF0B5026A40F48067B2
:102B100022F4805202620E4AD0F820C045680C6848
:102B20008B68C669974204D14A6925F4804545EA15
:102B3000821526F4E642456042EA0422C2614968F1
:102B400001642CF4005141EA03310162F0BD00BF81
:102B500000040140806B0021C185C184FFF7F9B8F2
:102B60000168CA6822F49072CA604A6922F00102C0
:102B70004A61202180F83A10704790F83A102229D3
:102B800023D18168B1F5805F0ED10269816A002A84
:102B90000268526819BFD2B221F8012B6FF35F228D
:102BA00021F8022B81620BE00168026949681AB1C1
:102BB000826A01F07F0100E0826A531C8362117017
:102BC000C18D0139C185090400D070470168CA6808
:102BD00022F02002CA60CA6822F48072CA604A6980
:102BE00022F001024A61202180F83A10FFF707BA6B
:102BF000B0B50446006804F108030ECB056925F45E
:102C0000405519432A4349F20C650261C268636961
:102C10001943E369AA4319431143C1604169A26999
:102C200021F4407111434161204940F48060B3F5C3
:102C3000004F04D1884207D1FEF768FB06E08842C6
:102C400019D1FEF763FB18E0FEF756FB6368192104
:102C5000A0FB01015A00DB0FFDF7C4FAFFF798FC57
:102C600003EBC000B0FBF1F04FF4F87101EA400152
:102C700000F0070013E0FEF73FFB63681921A0FB9B
:102C800001019A009B0FFDF7ADFAFFF781FC03EB02
:102C90000010B0FBF1F000F0F00100F00F0001EBCC
:102CA0000211084421688860B0BD00BF00140140D3
:102CB0002DE9F0411D4690460F4604465E1C2068F3
:102CC00001683940B9421CD0002EF8D035B1FEF76A
:102CD000B3F9A0EB0800A842F1D92068C16821F43B
:102CE000D071C160416921F00101416120200021C2
:102CF00084F8390084F8381084F83A000320BDE8DD
:102D0000F0810020BDE8F0812DE9F0412DED028B2E
:102D1000264E274801224FF47A733168FFF718F9DD
:102D20003168244F0A7838680A2A32D1224C82B29C
:102D30001F484FF47A732146FFF762F99FED1F8A0F
:102D400000250FF27C083868854225D8615D44294A
:102D500003D161194A783A2A01D00135F4E7881C79
:102D600000F01AFA51EC100BFDF784FB00EE100A8C
:102D7000F0EE480AB0EE481A786000F037F978684B
:102D8000FDF765FB024640460B4600F0F3F90135BE
:102D9000D9E701304C1C00E0002038600448346062
:102DA000BDEC028BBDE8F041FEF7D4BF140000205B
:102DB0007006002084000020B00000200000000009
:102DC0007265616420737065656420256620200A41
:102DD00000000000FEE700002DE9F04F87B0784DBD
:102DE000DFF8E0814FF4807105F580542046C0473C
:102DF000049020468021C047039020464021C047D0
:102E000005F5E05406464FF400612046C04705F53D
:102E10004067059040213846C0470690384620213B
:102E2000C047019038461021C04705F5C0570290B1
:102E30004FF480713846C04728464FF48051C04750
:102E400028464FF40051C04728464FF48041C04700
:102E500028464FF40041C04738464021C047384615
:102E60008021C04705F5A05B4FF400515846C0478C
:102E700058464FF48061C04705F500678021384609
:102E8000C04738460821C047814638460421C0471C
:102E900005F5806582464FF480512846C047284694
:102EA0004FF40061C04720460221C047204601215F
:102EB000C04758464FF40061C04720461021C04724
:102EC000054620462021C04720464021C0472046D5
:102ED0008021C0473C4C2078811E022909D2B9F1DB
:102EE000010F14BFBAF1010F012D66D104F10800E2
:102EF00061E0012861D10598012805D1DFED330A91
:102F0000B0EE040AFFF796FB012E06D1069820B911
:102F1000DFED310A9FED311A08E00698012808BF5D
:102F2000002E07D1DFED2A0A9FED2A1AB0EE040A1F
:102F300000F05CF803980199012808BF00290AD025
:102F4000012908BF00280ED19FED250A9FED221A06
:102F5000F6EE000A05E09FED220A9FED1D1AFEEE37
:102F6000000A00F043F804980299012808BF0029DC
:102F70000AD0012908BF00280ED19FED1A1AB0EE21
:102F8000000AF6EE000A05E09FED171AB0EE000AFF
:102F9000FEEE000A00F02AF8012E0ED10598012855
:102FA0000BD10698012808D1DFED080AB0EE040A1B
:102FB000FFF740FB201D0121016007B0BDE8F08F45
:102FC0000004024025100008180000200000000046
:102FD0009A99993ECDCC4CBE9A9999BECDCC4C3E97
:102FE000CDCC0C40CDCCCCBE713D0A3F30EE602A3A
:102FF00030EE200A114832EE413A30EE414A32EECC
:10300000012A30EE010A80ED153A80ED0D2A80ED9F
:10301000054A0B48BDEEC41A80ED020A11EE100AF3
:10302000BDEEC21ABDEEC00A11EE101ABDEEC31AF3
:1030300010EE103A11EE102A00F004B8180000202B
:1030400090000020B0B5134C002802D4206000206E
:1030500002E0002540422560606048420025B1F151
:10306000FF3FC8BF0020A060D8BF2946E1600A48E2
:10307000002A02D48260002101E051428560C160D3
:103080005942B3F1FF3FC8BF00210160D8BF002300
:103090004360B0BD34040140340C00401CB504460C
:1030A0008DF8070004480DF1070101224FF47A73EF
:1030B000FEF7A6FF20461CBD70060020FDF7CAFFE4
:1030C000FFF7BAFBFEF7F6FFFFF7E4F8FFF7FEF8AD
:1030D000FFF734F9FFF79AF8FFF7ACF8FFF712F9AA
:1030E000FFF778F9FFF7DCF9184C194E0821204654
:1030F000B04720460C21B047164D00212846B04766
:1031000028460421B04728460821B04728460C210C
:10311000B04720460021B04720460421B0470E4862
:103120000E4C3C21A0470E483C21A0470D483C21B5
:10313000A0470D483C21A0470C48FEF75DFBDFEDA2
:103140000C0AB0EE080AFFF775FAFEE7F00500205A
:10315000F11C000830060020B0040020D919000836
:103160003005002070050020B0050020F00400208C
:10317000000000000FB4054B10B503A9044A0298E3
:1031800000F00CF910BC5DF814FB00009D30000845
:10319000000000200000000030B583B0044600F0BD
:1031A00017F89FED090B05468DED000B012300225A
:1031B00021466846FDF7CFF9284600F01FF89DED3F
:1031C000000B03B030BD0000000000000000000054
:1031D00001480068704700000400002002E008C8B1
:1031E000121F08C1002AFAD170477047002001E081
:1031F00001C1121F002AFBD170470000014908607D
:1032000070470000040000202DE9FF5F82B000211C
:10321000DDE90430020DDDF840B0034318D044F678
:103220001050A2F2FF3242431514119801281FD00A
:10323000A5EB0B00401C5FEA000A4FF000064E4F62
:10324000DFF83891B046504615D5CAF1000413E0B6
:10325000119801244AA3012801D16FEA0B010298B9
:10326000119AC0E90031C0E9024206B0BDE8F09F02
:10327000CBF10000DFE704460021404A491842EB49
:103280000450CDE9001012E0E00707D032463B467B
:1032900040464946FCF7E9FF8046894632463B46B0
:1032A00010461946FCF7E1FF06460F466410002C55
:1032B000EAD1DDE90401DDE90023BAF1000F06DA05
:1032C000FCF7D3FF42464B46FCF7CFFF05E0FDF786
:1032D0003EF842464B46FDF73AF804460E460022B9
:1032E000284BFDF7C1FA03D84FF0FF30014607E045
:1032F0000022254B20463146FDF7F6F9FDF79BFAF3
:10330000102409E0002C0ADB0A220023FCF76AFFE4
:10331000039B30321A55641E50EA0102F2D1641C3C
:10332000039AC4F111031444119A012A03D0012213
:1033300008430DD10AE0084304D000204FF0110BE0
:10334000119072E7A3EB0B056D1E0DE05B4504DDEC
:103350004FF0000205F1010504E003DA4FF000022E
:10336000A5F10105002AECD002981199C0E90231BB
:10337000C0E9004579E70000000014400000F03F7C
:10338000300000000000F0430000E03F30380A2821
:1033900001D2012070470020704700002DE9FF4F47
:1033A00095B09B468946064600250FE2252877D131
:1033B00000242746F84A0121059400E0044316F84A
:1033C000013F203B01FA03F01042F7D130782A2860
:1033D00011D06FF02F033078A0F13002092A16D8EF
:1033E000059A44F0020402EB820203EB420210440D
:1033F000761C0590EFE759F8042B0592002A03DAB2
:10340000504244F40054059044F00204761C307895
:103410002E2816D116F8010F44F004042A280DD0E6
:103420006FF02F023078A0F13003092B09D807EB99
:10343000870302EB4303C718761CF3E759F8047BB4
:10344000761C30786C280FD006DC4C2817D0682802
:103450000DD06A2814D104E0742810D07A280FD136
:103460000DE044F400140AE044F4801401E044F454
:1034700040147278824202D104F58014761C761CC6
:10348000307866280BD013DC582877D009DC002868
:1034900075D04528F6D04628F4D047281AD19DE1AA
:1034A00018E0632835D0642879D0652812D195E1D9
:1034B000702873D008DC6728F1D069286FD06E2897
:1034C0000DD06F2806D1B5E073282CD0752875D0A3
:1034D000782874D05A46179990476D1C75E1C4F34B
:1034E0000250022809D003280DD0D9F80010042872
:1034F0000DD00D6009F1040967E1D9F80010EA1751
:10350000C1E90052F6E7D9F800100D80F2E70D701E
:10351000F0E719F8041B8DF8001000208DF8010069
:10352000EA46012003E059F804AB4FF0FF30610791
:103530004FF0000102D40DE008F101018846B942C4
:103540000FDA8045F8DB1AF808100029F4D108E0FA
:1035500008F1010188468142FADB1AF808100029B7
:10356000F6D105985B46A0EB080721463846179A26
:1035700000F094FA284400EB080507E04DE029E14B
:103580000DE01AF8010B5A4617999047B8F1010857
:10359000F7D25B4621463846179A13E142E00A22E9
:1035A0000092C4F302524FF0000A022A08D059F8E0
:1035B00004CB032A4FEAEC710AD00DE029E02AE09F
:1035C00009F1070121F00702F2E802C1914609E082
:1035D0000FFA8CFC4FEAEC71042A03D14FFA8CFCF1
:1035E0004FEAEC71002907DA0A460021DCF1000CF1
:1035F00061EB02012D2202E0220504D52B228DF879
:103600000420012203E0E20701D02022F7E79046E0
:1036100059E00A2102E010220DE010214FF0000ACB
:1036200000910BE010224FF0000A44F00404082738
:10363000009203E008224FF0000A0092C4F3025205
:10364000022A05D059F804CB0021032A08D009E04A
:1036500009F1070121F00702F2E802C1914605E0F5
:103660001FFA8CFC042A01D10CF0FF0C4FF000086B
:10367000220728D5702806D0009B83F0100353EA58
:103680000A0305D00EE040228DF80420012208E054
:103690005CEA010206D030228DF804208DF8050086
:1036A00002229046009B83F0080353EA0A030AD1E2
:1036B0005CEA010201D1620705D530228DF80420B1
:1036C0004FF001087F1E582804D034A003900EA8A4
:1036D00002900DE036A0F9E753466046009AFCF7E9
:1036E00081FD84460398825C0298401E029002701D
:1036F0005CEA0100F0D1029806A9081A00F1200A3C
:10370000600702D524F4803400E00127574502DD2C
:10371000A7EB0A0000E0002000EB0A0100900598EA
:103720004144401A0590E00306D45B462146179AAF
:10373000059800F0B3F90544002706E001A85A46B1
:10374000C05D179990476D1C7F1C4745F6DBE00371
:103750000CD55B462146179A059800F09FF9054461
:1037600004E030205A46179990476D1C0099481E76
:1037700000900029F5DC08E0029802995A4600788A
:10378000491C0291179990476D1CBAF10001AAF1EA
:10379000010AF1DC65E10000092801003031323313
:1037A000343536373839616263646566000000007D
:1037B0003031323334353637383941424344454667
:1037C0000000000000F058F90544761C307800280D
:1037D0007FF4ECAD19B02846BDE8F08F620700D445
:1037E000062709F1070222F0070CFCE80223E14654
:1037F00003F000485FEA080C02D00FF2702C0DE0D5
:103800005FEA045C02D50FF2682C07E05FEAC47C33
:1038100002D00FF2602C01E0AFF2700C4FF0FF38D5
:1038200023F00043CDF850C065280CD006DC4528B5
:1038300009D046281DD047283DD13DE0662818D044
:1038400067287ED138E00021112F01DB112000E034
:10385000781CCDE9000106A90EA8FFF7D5FCDDE92B
:103860000F010E9A03910021009207F1010A0491C1
:103870004DE04FF000400097CDE9011006A90EA8D9
:10388000FFF7C2FCDDE90F0203920E9B11990022A3
:10389000DDF80CA00093049211B9791C00EB010A29
:1038A000B7EB0A0004D4C0F1FF3007F1010A04901D
:1038B000AAEB0700019044E0012F00DA0127002164
:1038C000112F01DD112000E03846CDE9000106A9E5
:1038D0000EA8FFF799FCDDE90F010E9A0391002174
:1038E00004910092BA4621070CD40399514500DA9D
:1038F0008A46BAF1010F05DD009AAAF10101515C77
:10390000302908D0B84202DA10F1040F06DA01219A
:10391000CDE9011015E0AAF10101E9E7002805DC75
:10392000049901440491AAEB000102E0411C5145B5
:1039300000DD8A460499401A401C01904FF0004077
:103940000290200704D40198504501DBCDF8048093
:1039500000208DF84F0002980DF14F07B0F1004F95
:1039600025D02B200E9002984FF0020800280CDA88
:10397000404202902D200E9007E00A210298FCF7A9
:1039800095FD3031029007F8011DB8F10001A8F152
:103990000108F2DC02980028EFD1791E0E98087019
:1039A000307800F0200040F0450007F8020D12A822
:1039B000C01B00F107081498007800B1012000EB4B
:1039C0000A01019801EBE07105984144401A401E3C
:1039D0000590E00306D45B462146179A059800F04F
:1039E0005DF805441498007818B15A461799904725
:1039F0006D1CE00324D55B462146179A059800F01C
:103A00004DF805441CE00498002807DBDDE90301BC
:103A1000884203DD0098405C179901E01799302037
:103A20005A469047049805F10105401C04900198FE
:103A3000401E019004D12E205A46179990476D1CC4
:103A4000BAF10001AAF1010ADDDC05E017F8010B6B
:103A50005A46179990476D1CB8F10001A8F101086A
:103A6000F4DC5B462146179A0598ABE62D00000072
:103A70002B000000200000002DE9F0410446002545
:103A80001E461746880404D405E039462020B04776
:103A90006D1C641EF9D52846BDE8F0812DE9F04182
:103AA000044600251E469046C80301D5302700E095
:103AB0002027880404D505E041463846B0476D1CF0
:103AC000641EF9D52846BDE8F081DDDDDDDDDCBB17
:103AD000BBDDDDDDDDDDDDDDDDDD98888888888826
:103AE000888877777777778888888555555666668A
:103AF0006666666666666668888883333332222225
:103B00002222222222222228888D0000000000008A
:103B1000000001020304060708090000000001027A
:103B200003040000483B00080000002018000000CB
:103B3000DC310008603B000818000020A00A0000EB
:103B4000EC31000800000000000000000000000050
:103B500001000000100000000024F400B00000206C
:04000005080001AD41
:00000001FF
