:020000040800F2
:1000000020050020C50100084B140008EB10000873
:1000100049140008D1020008BD17000800000000C4
:100020000000000000000000000000004F14000865
:10003000D3020008000000004D140008A1140008BD
:10004000DF010008DF010008DF010008DF01000810
:10005000DF010008DF010008DF010008DF01000800
:10006000DF010008DF010008DF010008DF010008F0
:10007000DF010008DF010008DF010008DF010008E0
:10008000DF010008DF010008DF010008DF010008D0
:10009000DF010008DF010008DF010008DF010008C0
:1000A000DF01000849150008DF010008DF01000832
:1000B000DF010008DF010008DF010008DF010008A0
:1000C000DF010008DF010008DF010008DF01000890
:1000D000DF010008DF010008DF010008DF01000880
:1000E000DF010008DF010008DF010008DF01000870
:1000F000DF010008DF010008DF010008DF01000860
:10010000DF010008DF010008DF010008DF0100084F
:10011000DF010008DF010008DF010008DF0100083F
:10012000DF010008DF010008DF010008DF0100082F
:10013000DF010008DF010008DF010008DF0100081F
:10014000DF010008DF010008DF010008DF0100080F
:10015000DF010008DF010008DF010008DF010008FF
:10016000DF010008DF010008DF010008DF010008EF
:10017000DF010008DF010008DF01000800000000C7
:10018000DF010008DF010008DF010008DF010008CF
:10019000DF010008DF010008DF010008DF010008BF
:1001A000DF010008DF010008DF010008DFF810D0E0
:1001B00000F07CF800480047891B0008AFF300807E
:1001C000200500200648804706480047FEE7FEE776
:1001D000FEE7FEE7FEE7FEE7FEE7FEE7FEE7FEE7F7
:1001E0002D150008AD0100082DE9F05F054600203F
:1001F00092469B4688460646814640241BE0284698
:1002000041464746224600F041F853465A46C01A36
:10021000914110D311461846224600F028F82D1AB5
:1002200067EB01084F4622460120002100F01FF82D
:1002300017EB00094E41201EA4F10104DFDC484603
:1002400031462A464346BDE8F09FD2B201E000F8AD
:10025000012B491EFBD270470022F6E710B513466A
:100260000A4604461946FFF7F0FF204610BD202A33
:1002700004DB203A00FA02F1002070479140C2F1FD
:10028000200320FA03F3194390407047202A04DB2F
:10029000203A21FA02F00021704721FA02F3D040FF
:1002A000C2F120029140084319467047064C074DA1
:1002B00006E0E06840F0010394E807009847103436
:1002C000AC42F6D3FFF776FF981D0008B81D000872
:1002D000FEE770477047000070B5044600F00AF969
:1002E0000546601C02D004480078044400F002F97E
:1002F000401BA042FAD370BD0C0000202DE9F84F3E
:1003000000224FF0010803254FF00F0E0B6808FA8A
:1003100002F42340A3426ED14E68012E05D0022E76
:1003200003D0112E01D0122E12D186684FEA420C52
:1003300005FA0CF7BE43CF6807FA0CF7374387601E
:100340004668A6430C79C4F30014944034434460D7
:10035000C668570005FA07FC8C6826EA0C06BC4004
:100360003443C4604C68022C01D0122C13D1D40841
:1003700000EB8404A346D4F8209054074FEAD46AD3
:100380000EFA0AF629EA06090E6906FA0AF646EA9C
:100390000906CBF8206004680E7924EA0C0406F004
:1003A0000306BE40264306604C68E4006FD53B4C14
:1003B000266846F480462660246822F0030604F48A
:1003C00080440094364C3444A446D4F80848960738
:1003D000360F0EFA06F7BC43324FB84201D1002760
:1003E0002EE0314FB84201D1012729E02F4FB8420A
:1003F00002D1022724E04AE02D4FB84201D1032761
:100400001EE02C4FB84201D1042719E02A4FB84210
:1004100001D1052714E0294FB84201D106270FE08A
:10042000274FB84201D107270AE0264FB84201D131
:10043000082705E0244FB84201D1092700E00A2728
:10044000B7402743CCF80878204E34684F689C4367
:10045000FF0300D51C4334601C4E361D34684F68C2
:100460009C43BF0300D51C433460184E08363468E3
:100470004F689C43FF0200D51C433460134E0C367A
:1004800034684F689C43BF0200D51C433460521C43
:10049000102AFFF43BAFBDE8F88F0000443802405B
:1004A0000030014000000240000402400008024009
:1004B000000C0240001002400014024000180240EC
:1004C000001C02400020024000240240003C014089
:1004D0000069084000D001207047426931EA0202F9
:1004E00000D10904816170470AB181617047090434
:1004F000FBE7000001488068704700000C00002006
:100500000248816802781144816070470C00002025
:100510000B4810B5016841F400710160016841F4B5
:1005200080610160016841F480710160032000F086
:100530006FF8002000F006F800F024F8002010BD4D
:10054000003C024070B50D4D04464FF47A71287896
:10055000B1FBF0F00A490968B1FBF0F000F01CFBB8
:1005600048B9102C07D200222146501E00F030F866
:1005700000206C6070BD012070BD00000C000020E8
:10058000180000200A4808B5016841F48041016064
:10059000006800F4804000900548001F016841F0A9
:1005A00080510160006800F08050009008BD00009C
:1005B00044380240002809DB00F01F02012191406D
:1005C0004009800000F1E020C0F8001170470000F1
:1005D000F0B40E4B1B680C46C3F30223C3F10705AE
:1005E000042D00D90425191D072901D2002300E09C
:1005F000DB1E012606FA05F1491E214099409E4066
:10060000761E16403143F0BC01F058BA0CED00E004
:10061000064900F0070208684FF6FF03184040EA59
:100620000220034A10430860704700000CED00E010
:100630000000FA052DE9F8431748016841F08051A0
:1006400001600068154F00F08050012600903E6464
:10065000FFF750FF05464FF47A78114C05E000BFD4
:10066000FFF748FF401B40450DD86068C003F7D531
:100670007E64FFF73FFF0546464607E0FFF73AFF77
:10068000401BB04202D90320BDE8F88360688003B4
:10069000F4D50020F8E700004038024000000E4288
:1006A000007000402DE9F0470E46050065D0DFF8E8
:1006B0001481D8F80000F7B200F00F00B04207D262
:1006C00088F80070D8F8000000F00F00B04254D154
:1006D00028683D4C810712D5400703D5206840F4B7
:1006E000E05020602878000703D5206840F460407F
:1006F00020602068A96820F0F00008432060287876
:10070000C0072DD0304968680839012812D0022866
:1007100013D0032811D00968890700292DDA216830
:1007200021F0030101432160FFF7E4FE814641F21D
:10073000883A0EE009688903EFE709688901ECE768
:10074000FFF7D8FEA0EB0901514502D90320BDE80F
:10075000F0872068696800F00C00B0EB810FEFD1E2
:10076000D8F80010404601F00F01B14207D90770D8
:10077000006800F00F00B04201D00120E7E72878C0
:10078000400705D52068E96820F4E0500843206060
:100790002878000706D52068296920F4604040EADF
:1007A000C100206000F018F82168084AC1F3031165
:1007B000515CC8400649086006480068FFF7C2FE61
:1007C0000020C4E7003C024008380240881D0008B1
:1007D0001800002010000020154810B5006810F027
:1007E0000C02144813D01449042A0FD0082A0ED141
:1007F0000F4C241F2268236802F03F025B0207D5DA
:100800002068C0F38810A0FB010106E0084610BD77
:100810002168C1F38811A1FB00010023FFF7E4FC6C
:100820002168C1F30141491C4900B0FBF1F010BD42
:10083000083802400024F40040787D012DE9F84F8B
:1008400004006ED02078DFF83C93C007A9F10405BE
:100850004AD009F104000168C1F38101012908D0DF
:100860000068C0F3810002280AD1D9F800004002D4
:1008700006D52868800337D560680028E1D033E0CA
:100880006068B0F5803F10D0B0F5A02F286810D078
:1008900020F480302860286820F480202860606878
:1008A000A8B1FFF727FE06460DE0286840F4803027
:1008B000F4E740F480202860F7E700BFFFF71AFE56
:1008C000801B642873D828688003F7D50CE0FFF7F5
:1008D00011FE064605E000BFFFF70CFE801B6428F2
:1008E000F0D828688003F7D42078DFF89C8280074E
:1008F0004FF0000A3ED5A348001D016811F00C0F0F
:1009000008D00068C0F3810002280BD1D9F800009C
:10091000400207D42868800716D5E068012800D176
:1009200012E02BE1E068B8B10120C8F80000FFF741
:10093000E1FD064605E000BFFFF7DCFD801B022855
:10094000C0D828688007F7D52868216920F0F8000A
:1009500040EAC10028600DE0C8F800A0FFF7CAFD1A
:10096000064604E0FFF7C6FD801B02281FD8286852
:100970008007F7D42078000722D5824E834861692A
:10098000703671B101210160FFF7B4FD074604E044
:10099000FFF7B0FDC01B022809D830688007F7D5E3
:1009A0000EE0C0F800A0FFF7A5FD074605E082E0D5
:1009B000FFF7A0FDC01B02287DD830688007F7D460
:1009C0002078400768D5DFF8BCB100270BF13C0B5D
:1009D000DBF80000C0000BD4DBF8001041F08051C0
:1009E000CBF80010DBF80000012700F080500090E9
:1009F000674E3068C00510D4306840F480703060B5
:100A0000FFF778FD009005E0FFF774FD0099401AAC
:100A1000022850D83068C005F6D55A4EA0686C360A
:100A200001280FD00528306810D020F00100306078
:100A3000306820F004003060A068B8B1FFF75AFDBC
:100A400000900FE0306840F00100F4E740F004004F
:100A50003060F7E7FFF74EFD0099411A41F2883008
:100A6000814266D830688007F4D50EE0FFF742FD7A
:100A7000009007E0FFF73EFD0099411A41F28830EF
:100A8000814256D830688007F4D42FB1DBF80010CB
:100A900021F08051CBF80010A069C8B33949091D75
:100AA0000968C1F3810102294AD00228504607D0C3
:100AB000C8F8600000E03CE0FFF71CFD04463BE0A6
:100AC0004746C8F86000FFF715FD064605E000BF81
:100AD000FFF710FD801B02282BD828688001F7D46F
:100AE000D4E907010843A16A2A4A490802EB0141F7
:100AF000626A41EA8211084394F82C1040EA0161CD
:100B0000C9F8001001203866FFF7F4FC044606E03F
:100B100036E000BFFFF7EEFC001B022809D828686A
:100B20008001F7D52CE000BFFFF7E4FC001B022892
:100B300002D90320BDE8F88F28688001F4D41FE0B3
:100B40000128F7D0D9F80000E26900F48001914251
:100B500014D1226A00F03F0191420FD147F6C071D3
:100B6000626A0140914209D1A26A00F44031914287
:100B700004D1E16A00F07060884201D00120D9E719
:100B80000020D7E70438024000004742800E474269
:100B9000007000400000FFFF10B5401EB0F1807FE4
:100BA00001D3012010BD4FF0E02460610F216017D8
:100BB00000F084FF0020A06107202061002010BD0C
:100BC0007047704770B590F83C20012A32D001245C
:100BD00080F83C40022280F83D2003685A689D68F6
:100BE00022F070060A6832435A60134B02689A4238
:100BF00014D0B2F1804F11D0104B9A420ED0104B4E
:100C00009A420BD00F4B9A4208D00F4B9A4205D014
:100C10000E4B9A4202D00E4B9A4204D1496825F0FD
:100C200080031943916080F83D40002180F83C101A
:100C3000084670BD022070BD000001400004004065
:100C400000080040000C004000040140004001404A
:100C50000018004010B5040003D094F83D0010B116
:100C600007E0012010BD002084F83C00204600F081
:100C70000DF8022084F83D00211D206800F06AFC78
:100C8000012084F83D00002010BD000008B5006878
:100C90000B49884212D10B48016841F400310160D0
:100CA0000068002200F40030009011461920FFF780
:100CB0008FFCBDE808401920FFF77CBC08BD000090
:100CC00000440140443802400168CA6842F0010211
:100CD000CA600068816801F00701062903D0016835
:100CE00041F001010160002070470168CA6822F0EC
:100CF0000102CA600068016A41F21112114207D173
:100D0000016A9210114203D1016821F001010160D2
:100D100000207047704770B50446006801694FF0C5
:100D20000005C943890715D4C168C943890711D48F
:100D3000E91E016101202077206880698007204634
:100D400002D0FFF7E7FF04E000F0F2F8204600F0E1
:100D50009FF9257720680169C943490717D4C168FD
:100D6000C943490713D46FF00401016102202077C1
:100D70002068806910F4407F204602D0FFF7CAFF48
:100D800004E000F0D5F8204600F082F925772068CD
:100D90000169C943090716D4C168C943090712D4B8
:100DA0006FF008010161042020772068C069800786
:100DB000204602D0FFF7AEFF04E000F0B9F820466D
:100DC00000F066F9257720680169C943C90617D480
:100DD000C168C943C90613D46FF01001016108202E
:100DE00020772068C06910F4407F204602D0FFF7CA
:100DF00091FF04E000F09CF8204600F049F92577C7
:100E000020680169C943C90708D1C168C943C90736
:100E100004D1891E0161204600F05EF92068016955
:100E2000C943090609D4C168C943090605D46FF04E
:100E3000800101612046FFF7C3FE20680169C943B4
:100E4000490609D4C168C943490605D46FF0400179
:100E50000161204600F048F920680169C94389060C
:100E60000BD4C168C943890607D46FF02001016122
:100E70002046BDE87040FFF7A4BE70BD10B586B037
:100E8000044614216846FFF7E7F923680021224849
:100E90000222B3F1804F17D0204CA34226D1036821
:100EA00043F004030360006800F0040005904FF471
:100EB00070700090CDE90121CDE903126946184810
:100EC000FFF71CFA06B010BD036843F0010303608E
:100ED000006800F0010005900C200090CDE9012190
:100EE0000120CDE9031069460E48E9E70E4CA34204
:100EF000E8D1036843F080030360006800F08000DD
:100F000005904FF440600090CDE90121CDE9031236
:100F100069460648D4E7000030380240000400402B
:100F20000008024000000240000C0040001C02408B
:100F3000704770B5044690F83C000D4601280DD06E
:100F4000012684F83C60022084F83D0042B1042A66
:100F500018D0082A2AD00C2A4DD139E0022070BDC1
:100F6000206800F069FB2068816941F00801816117
:100F70002068816921F004018161206881692A6902
:100F8000114311E0206800F087FB2068816941F47B
:100F9000006181612068816921F48061816120683C
:100FA00081692A6941EA0221816124E0206800F018
:100FB000A9FB2068C16941F00801C1612068C169CD
:100FC00021F00401C1612068C1692A69114311E05F
:100FD000206800F0CBFB2068C16941F40061C16169
:100FE0002068C16921F48061C1612068C1692A69F2
:100FF00041EA0221C16184F83D60002084F83C0090
:1010000070BD10B5040003D094F83D0010B107E0A6
:10101000012010BD002084F83C00204600F00CF8B0
:10102000022084F83D00211D206800F093FA012081
:1010300084F83D00002010BD08B501681148B1F1E9
:10104000804F0BD0104A914210D1016841F002014B
:101050000160006800F00200009008BD016841F0E6
:1010600001010160006800F00100F5E7074A9142C4
:10107000F3D1016841F008010160006800F0080048
:10108000EAE700004038024000040040000C004045
:101090007047000010B504460068012200F0BEFA57
:1010A0000B492068884202D00A49884203D1416C2A
:1010B00041F4004141642068816801F0070106297C
:1010C00003D0016841F001010160002010BD000063
:1010D00000000140000401400249884201D100F0B3
:1010E0006FBB7047DC0000207047FEE770B586B02C
:1010F00014216846FFF7B0F854480024016841F015
:1011000010010160016801F010010591016841F0D2
:1011100004010160016801F004010591016841F4D6
:1011200080710160016801F480710591016841F0EE
:1011300020010160016801F020010591016841F082
:1011400080010160016801F080010591016841F0B2
:1011500001010160016801F001010591016841F0A0
:1011600002010160016801F002010591016841F08E
:1011700008010160016801F008010591016841F072
:10118000400101600068324E00F0400005900022EE
:1011900001213046FFF7A8F97020CDE90004694627
:1011A0002C480294FFF7AAF840F6F300CDE90004BA
:1011B000694629480294FFF7A1F84FF4E070CDE9A1
:1011C0000004694625480294FFF798F80125CDE907
:1011D0000054694622480294FFF790F84FF4E270F9
:1011E000CDE9000469461F480294FFF787F8022002
:1011F000CDE902040095694601953046FFF77EF877
:101200004FF47040CDE90004694630460294FFF780
:1012100075F84FF4C050CDE90004694612480294B5
:10122000FFF76CF88C20CDE9000469460F48029462
:10123000FFF764F84FF43050CDE9000469460C48DC
:101240000294FFF75BF806B070BD00003038024032
:10125000000402400010024000200240001402403E
:1012600000000240001C024000080240000C024046
:10127000001802400B4810B509490160B3214160D4
:1012800000216322C0E9021201618161FFF7E2FCE3
:10129000002803D0BDE81040FFF71CB810BD0000C7
:1012A00000440140DC00002010B58AB000240794FF
:1012B0001C2168460894FEF7CFFF1A484FF0804182
:1012C00001601121C0E9011440F2E731C0E90314C3
:1012D0008461FFF796FE08B1FEF7FCFF079407A9AB
:1012E00010480894FFF76EFC08B1FEF7F3FF60208A
:1012F000CDE900040294082269460A480494FFF7E5
:1013000018FE08B1FEF7E6FF0C2269460548FFF714
:1013100010FE08B1FEF7DEFF0248FFF7AFFD0AB08E
:1013200010BD00001C00002010B58AB000240794F6
:101330001C2168460894FEF78FFF2248204901606F
:101340001121C0E9011440F2E731C0E903148461BE
:10135000FFF757FE08B1FEF7BDFF079407A919482C
:101360000894FFF72FFC08B1FEF7B4FF6020CDE929
:10137000000402940022694612480494FFF7D9FD44
:1013800008B1FEF7A7FF042269460E48FFF7D1FD1A
:1013900008B1FEF79FFF082269460A48FFF7C9FD1A
:1013A00008B1FEF797FF0C2269460648FFF7C1FD1A
:1013B00008B1FEF78FFF0348FFF760FD0AB010BDCC
:1013C000000400405C00002010B58AB0002407949F
:1013D0001C2168460894FEF73FFF1A48184901602F
:1013E0001121C0E9011440F2E731C0E9031484611E
:1013F000FFF707FE08B1FEF76DFF079407A9114834
:101400000894FFF7DFFB08B1FEF764FF6020CDE929
:1014100000040294002269460A480494FFF789FDFB
:1014200008B1FEF757FF042269460648FFF781FD21
:1014300008B1FEF74FFF0348FFF720FD0AB010BDCB
:10144000000C00409C000020FEE77047704770478A
:1014500010B50E48FFF749FC0D49002008700D49F2
:101460004FF47A700A68D063096808640A490A6808
:1014700050630A6890630A68D06309680864074982
:101480000A6850630968886310BD0000DC00002012
:10149000000000201C0000205C0000209C000020B8
:1014A000FFF72EB830B593B030216846FEF7D4FE72
:1014B00014210CA8FEF7D0FE1A480025016841F05F
:1014C00080510160006800F080501190164801685A
:1014D00041F4404101600068022400F44040119052
:1014E0000120039010200490009406940820CDE978
:1014F0000750B420CDE9090404200B906846FFF79B
:101500009DF9FFF797F80CA90F2081E831004FF4FF
:10151000A0500F90E002109005210CA8FFF7C2F830
:1015200013B030BD403802400070004005480168EB
:1015300041F47001016003494FF000608039086098
:101540007047000088ED00E00148FFF7E4BB0000B1
:10155000DC000020F0B50268254C264D264E274FB2
:10156000274B4FF0804CA04209D0604507D0A842DD
:1015700005D0B04203D0B84201D0984204D122F045
:10158000700E4A6842EA0E02A0421BD0604519D094
:10159000A84217D0B04215D0B84213D0984211D00B
:1015A000184DA8420ED0184DA8420BD0174DA84296
:1015B00008D0174DA84205D0164DA84202D0164DAE
:1015C000A84203D122F44075CA682A434D6922F02B
:1015D00080022A4302608A68C2620A688262A0426C
:1015E00001D0984201D10969016301214161F0BD37
:1015F000000001400004004000080040000C0040D2
:101600000004014000400140004401400048014006
:1016100000180040001C00400020004010B501F000
:101620001F030121046A99408C430462016A9A40B5
:101630001143016210BD0000F0B5026A22F0010200
:101640000262036A42688469124E24F073050C68D2
:101650002C4323F002058B682B430D4DA84201D08B
:10166000B04205D123F00807CB683B4323F00403C5
:10167000A84201D0B04205D14D6922F44072154311
:101680008A692A4342608461496841630362F0BD0C
:101690000000014000040140F0B5026A22F010028F
:1016A0000262026A436884690D6824F4E64444EAED
:1016B00005248D6822F0200242EA05120F4D104EDB
:1016C000A84201D0B04206D1CF6822F0800242EA9F
:1016D000071222F04002A84201D0B04207D14D6962
:1016E00023F4406343EA85038D6943EA850343603D
:1016F0008461496881630262F0BD0000000001401E
:1017000000040140F0B5026A22F480720262026AAB
:101710004368C46922F4007224F073050C68124E09
:101720002C438D6842EA05220E4DA84201D0B042FA
:1017300006D1CF6822F4006242EA072222F48062D6
:10174000A84201D0B04207D14D6923F4405343EA87
:1017500005138D6943EA05134360C4614968C16399
:101760000262F0BD000001400004014030B5026A91
:1017700022F480520262046A4268C3690D6823F44D
:10178000E64343EA05238D6824F4005444EA053413
:10179000084DA84202D0084DA84204D14D6922F458
:1017A000804242EA85124260C36149680164046272
:1017B00030BD00000000014000040140FEE70000D1
:1017C0002DE9F043B44C4FF4807593B02946204680
:1017D000FEF77EFE009080212046FEF779FE019004
:1017E00040212046FEF774FEE614AC4C02903146D0
:1017F0002046FEF76DFEAA4F039040213846FEF7C3
:1018000067FE049020213846FEF762FE0590102105
:101810003846FEF75DFE0690DDE900010844DDE98B
:101820000212114408440499084405990844069991
:101830000844012804D10020401CC0B20628FBD96E
:101840002946984D2846FEF743FE974F4FF480599E
:101850000D9049463846FEF73BFE4FF400580C9079
:1018600041463846FEF734FE0B904FF4804138462F
:10187000FEF72EFE0A904FF400413846FEF728FE90
:10188000099040212846FEF723FE08908021284633
:10189000FEF71EFE089907900844DDE9092111446E
:1018A00008440B9908440C9901440D9808440128F8
:1018B00004D10020401CC0B20628FBD97B4D414614
:1018C0002846FEF705FE0D9029152846FEF700FE76
:1018D000774F0C9080213846FEF7FAFD0B900821D7
:1018E0003846FEF7F5FD0A9004213846FEF7F0FD74
:1018F000704F099049463846FEF7EAFD0890314698
:101900003846FEF7E5FD089907900844DDE909121D
:10191000114408440B9908440C9908440D99084453
:10192000012804D10021491CC9B20629FBD9022192
:101930002046FEF7CDFD0B9001212046FEF7C8FDA5
:101940000C9031462846FEF7C3FD0D90102120462D
:10195000FEF7BEFD0E9020212046FEF7B9FD0F9048
:1019600040212046FEF7B4FD109080212046FEF76E
:10197000AFFD1190DDE90B010844DDE90D121144C2
:1019800008440F9908441099084411990844012803
:1019900004D10020401CC0B20628FBD9464C0125CA
:1019A000207801280FD0022801D0032808D10A98F6
:1019B000012802D00998012802D1012A00D1A5608E
:1019C00013B0BDE8F08303984FF42F79012804D1B8
:1019D00000221146484600F090F802986FF0310658
:1019E000012801D1049818B10498012803D00AE015
:1019F0001422314604E0029828B96FF01302322114
:101A0000484600F07AF801986FF0630840F28A27A0
:101A1000012806D1059820B932224146384600F007
:101A20006CF80598012806D1019820B93246642146
:101A3000384600F062F800984FF41676012806D177
:101A4000069820B946224146304600F056F80698DE
:101A5000012807D1009828B96FF04502642130466B
:101A600000F04BF802980128AAD103980128A7D1C9
:101A700004980128A4D100221146484600F03DF800
:101A8000029801289CD10398012899D10498012833
:101A900096D1656094E700000014024000200240E7
:101AA00000100240001C02400004024000180240E6
:101AB000000C024000080240000000200907090E47
:101AC000002804DB00F1E02080F80014704700F0EB
:101AD0000F0000F1E02080F8141D704702E008C8F4
:101AE000121F08C1002AFAD170477047002001E098
:101AF00001C1121F002AFBD17047431810B49C1A71
:101B0000401A8118801A13440246204610BC00F087
:101B100001B8000070B5194C00250028266803DBC9
:101B200070632068856303E0756326684042B06394
:101B3000002904DB2068C5632068016404E0484292
:101B40002168C863206805640D48002A016803DB2A
:101B5000CA630068056403E0CD6300685142016414
:101B60000848002B04DB01684D630068836370BD87
:101B70000268594251630068856370BD5C000020B3
:101B80001C0000209C000020FEF7C2FCFFF78AFC2E
:101B9000FFF7ACFAFFF788FBFFF7C6FBFFF714FC73
:101BA000FFF768FB08214848FFF774FA0C21464804
:101BB000FFF770FA00214548FFF76CFA042143480B
:101BC000FFF768FA08214148FFF764FA0C213F4803
:101BD000FFF760FA00213E48FFF75CFA04213C4819
:101BE000FFF758FA012000F077F83A4D00212A4615
:101BF0000846FFF782FF4FF47A763046FEF76CFB1B
:101C0000062000F069F800F097F83046FEF764FB14
:101C10006C42002122460846FFF76FFF77003846E6
:101C2000FEF75AFB032000F057F800212A46084629
:101C3000FFF763FF4FF49660FEF74EFB012000F0C4
:101C40004BF83046FEF748FB002122460846FFF7D6
:101C500054FF3846FEF740FB032000F03DF800211A
:101C60002A460846FFF749FF3046FEF735FB0220BB
:101C700000F032F877103846FEF72EFB002122469E
:101C80000846FFF73AFF40F24C40FEF725FB0320E1
:101C900000F022F8002211462046FFF72EFF3846BA
:101CA000FEF71AFB00212A460846FFF726FF3046BA
:101CB000FEF712FB002211462046FFF71EFF3846B2
:101CC000FEF70AFBFEE700001C0000205C0000207D
:101CD0009C00002044FDFFFF2DE9F047002605464B
:101CE000134C01274FF42F784FF4FA7A4FF47A7996
:101CF00017E01048FEF7E8FF002227701146404623
:101D0000FFF7FBFE5046666000E00120FEF7E4FAB4
:101D100060680028F9D06D1EFFF79AFB4846FEF771
:101D2000DBFA002DE5D1BDE8F047FFF791BB0000DD
:101D300000000020DC00002010B50F4C0320002123
:101D400020700E4A0846FFF7D8FE4FF4FA70FEF7EF
:101D5000C3FA0B48FEF7B8FF02E00120FEF7BCFA19
:101D6000A0680028F9D001210648FEF7B6FBBDE8BF
:101D70001040FFF76DBB00000000002044FDFFFF96
:101D8000DC00002000040240000000000000000011
:101D90000102030406070809B81D0008000000201E
:101DA0001C000000DC1A0008D41D00081C000020E4
:101DB00004050000EC1A000800000000000000000C
:101DC0000000000001000000100000000000000002
:041DD0000024F400F7
:04000005080001AD41
:00000001FF
