:020000040800F2
:1000000020060020C5010008231F0008171A000859
:10001000211F000855080008E12300080000000027
:10002000000000000000000000000000271F000882
:100030005708000800000000251F0008291F0008BD
:10004000DF010008DF010008DF010008DF01000810
:10005000DF010008DF010008DF010008DF01000800
:10006000DF010008DF010008DF010008DF010008F0
:10007000DF010008DF010008DF010008DF010008E0
:10008000DF010008DF010008DF010008DF010008D0
:10009000DF010008DF010008DF010008DF010008C0
:1000A000DF010008D11F0008DF010008DF010008A0
:1000B000DF010008DF010008DF010008DF010008A0
:1000C000DF010008DF010008DF010008DF01000890
:1000D000DF010008DF010008DF010008DF01000880
:1000E000DF010008DF010008DF010008DF01000870
:1000F000DF010008DF010008DF010008DF01000860
:10010000DF010008DF010008DF010008DF0100084F
:10011000DF010008DF010008DF010008DF0100083F
:10012000DF010008DF010008DF010008DF0100082F
:10013000DF010008DF010008DF010008DF0100081F
:10014000DF010008DF010008DF010008DF0100080F
:10015000DF010008DF010008DF010008DF010008FF
:10016000DF010008DF010008DF010008DF010008EF
:10017000DF010008DF010008DF01000800000000C7
:10018000DF010008DF010008DF010008DF010008CF
:10019000DF010008DF010008DF010008DF010008BF
:1001A000DF010008DF010008DF010008DFF810D0E0
:1001B00000F02CFB0048004761300008AFF30080DE
:1001C000200600200648804706480047FEE7FEE775
:1001D000FEE7FEE7FEE7FEE7FEE7FEE7FEE7FEE7F7
:1001E000B51F0008AD0100082DE9F05F05460020AD
:1001F00092469B4688460646814640241BE0284698
:1002000041464746224600F085F953465A46C01AF1
:10021000914110D311461846224600F06CF92D1A70
:1002200067EB01084F4622460120002100F063F9E8
:1002300017EB00094E41201EA4F10104DFDC484603
:1002400031462A464346BDE8F09FD2B201E000F8AD
:10025000012B491EFBD270470022F6E710B513466A
:100260000A4604461946FFF7F0FF204610BD2DE967
:10027000FE4F81EA030404F0004421F000410094A1
:100280004FF0000B23F0004350EA01045ED052EA25
:1002900003045BD0C3F30A54C1F30A552C44A4F2FF
:1002A000F3340194A0FB0254C1F3130141F4801113
:1002B000C3F3130343F4801301FB024400FB034E1A
:1002C000840A970A44EA815447EA8357A4FB0768E3
:1002D00002958D0A05FB07854FEA932C04FB0C540D
:1002E0002705029D4FEA065847EA1637B5EB080581
:1002F0006EEB070C870E920E47EA811742EA8312D3
:10030000A7FB0201B6EB0B0164EB00042B0D43EAE3
:100310000C335E1844EB1C50DA465146E7FB0201F1
:10032000C5F313044FEA0B3343EA14534FEA043284
:10033000019C43EA0603A4F10C040294009CCDE95D
:1003400000B400F03DF903B0BDE8F08F0020014695
:10035000F9E72DE9F04D81EA030404F0004B21F0A8
:10036000004514464FF0000A23F0004150EA050210
:1003700020D054EA01021DD0C5F30A570246C5F346
:100380001303C1F31300C1F30A5640F4801543F47C
:100390008013A7EB0608101BD64608F2FD3873EB56
:1003A000050002D308F1010801E092185B41B8F1A1
:1003B000000F03DA00200146BDE8F08D00204FF465
:1003C0008011064684460EE0171B73EB050705D324
:1003D000121B63EB050306434CEA010C49084FEA84
:1003E000300092185B4150EA0107EDD152EA030058
:1003F00012D082EA040083EA0501084305D0101BED
:10040000AB4106D20122002306E000224FF0004358
:1004100002E06FF0010253101AEB06004CEB08519A
:1004200010EB0A0041EB0B01BDE8F04D00F0B9B84C
:100430000EB5C10F80EAE0700844CA07002140F2FF
:1004400033438DE80E000A460B4600F0B9F803B0BE
:1004500000BD0EB540F2334102910021CDE90011FB
:100460000A460B4600F0ACF803B000BD00F00042B5
:1004700030F000400AD0C10D01F56071C0F31600E4
:1004800042EA0151C208400711437047002001466B
:10049000704701F0004330B421F0004150EA0102FE
:1004A00006D00A0DA2F56072C1F31301002A02DC26
:1004B00030BC00207047440F44EAC104C100E0187A
:1004C00030BC00EBC25000F035B830B50B460146E9
:1004D00000202022012409E021FA02F59D4205D3E3
:1004E00003FA02F5491B04FA02F52844151EA2F18D
:1004F0000102F1DC30BD202A04DB203A00FA02F1CF
:10050000002070479140C2F1200320FA03F3194301
:1005100090407047202A04DB203A21FA02F00021A3
:10052000704721FA02F3D040C2F120029140084303
:10053000194670470029A8BF7047401C490008BFF2
:1005400020F00100704710B4B0FA80FC00FA0CF003
:1005500050EA010404BF10BC704749B1CCF120043B
:1005600021FA04F411FA0CF118BF012121430843C8
:10057000A3EB0C01CB1D4FEA00614FEA102042BFF4
:10058000002010BC704700EBC35010440029A4BFEA
:1005900010BC7047401C490008BF20F0010010BC8F
:1005A000704710B5141E73F1000408DA401C41F1C5
:1005B000000192185B411A4301D120F0010010BDE7
:1005C0002DE9F04D92469B4611B1B1FA81F202E05D
:1005D000B0FA80F220329046FFF78DFF04460F46B6
:1005E00040EA0A0041EA0B0153465A46084313D039
:1005F000114653EA010019D0C8F140025046FFF7F6
:1006000089FF05460E46504659464246FFF773FF9E
:10061000084305D0012004E020463946BDE8F08DAE
:100620000020054346EAE0762C4337430A986305E9
:10063000E40AA0EB08000022FD0A44EA47540A300D
:1006400002D500200146E9E7010510196941DDE9FD
:10065000084500196941BDE8F04DA2E72DE9FE4FBC
:10066000804681EA0300C00F0C46009021F0004153
:1006700023F00045B8EB0200A94105D240462146CF
:1006800090461C460B46024623F00040104347D0DC
:10069000270DC7F30A00C3F30A510290401A0190D4
:1006A00040286BDAC3F3130040F4801B0098924695
:1006B00020B10023D2EB030A63EB0B0B01985946E0
:1006C000C0F140025046FFF716FF06460D46504661
:1006D0005946019A00F0ACF810EB08006141002483
:1006E00087EA115284EAE7731A4340D0009A62B352
:1006F000019A012A4FEA075215DC001B61EB020147
:100700004FF0004202EA0752CDE90042001C41F5D9
:10071000801132462B46FFF753FF03B0BDE8F08F40
:1007200040462146F9E7001B61EB0201001C41F540
:10073000801300185B412018A2F5001747EB030156
:1007400040EAD570B6196D4111E06D084FEA3606E2
:1007500045EAC0754FEA0752001B61EB0201001C1D
:1007600041F5801149084FEA3000001951413246E5
:100770002B4603B0BDE8F04FFFF713BF00980122EE
:1007800040000023D0EB020263EBE07300982146A7
:100790004FEAE074B8EB000061EB0401E9E783F095
:1007A00000435BE781F0004158E7C1F30A52C1F30F
:1007B000130140F2FF3341F480119A4202DA002023
:1007C0000146704740F233439A42A2F2334202DCC0
:1007D0005242FFF79FBEFFF78EBE000030B5041EE9
:1007E00071F1000404DB4FF00044404264EB01016E
:1007F000141E73F1000405DB1C464FF00043524207
:1008000063EB0403994208BF904230BD064C074D8C
:1008100006E0E06840F0010394E8070098471034D0
:10082000AC42F6D3FFF7C6FCB0310008D031000867
:10083000202A06DBCB17203A41FA02F043EAE073A4
:1008400006E041FA02F3D040C2F120029140084391
:1008500019467047FEE770477047000070B50446C0
:1008600000F002F90546601C02D0044800780444F8
:1008700000F0FAF8401BA042FAD370BD0C00002033
:100880002DE9F84F00224FF0010803254FF00F0E1D
:100890000B6808FA02F42340A3426ED14E68012E81
:1008A00005D0022E03D0112E01D0122E12D186684F
:1008B0004FEA420C05FA0CF7BE43CF6807FA0CF773
:1008C000374387604668A6430C79C4F3001494400C
:1008D00034434460C668570005FA07FC8C6826EA72
:1008E0000C06BC403443C4604C68022C01D0122C6E
:1008F00013D1D40800EB8404A346D4F82090540705
:100900004FEAD46A0EFA0AF629EA06090E6906FACF
:100910000AF646EA0906CBF8206004680E7924EA54
:100920000C0406F00306BE40264306604C68E40053
:100930006FD53B4C266846F480462660246822F03A
:10094000030604F480440094364C3444A446D4F89E
:1009500008489607360F0EFA06F7BC43324FB842E6
:1009600001D100272EE0314FB84201D1012729E003
:100970002F4FB84202D1022724E04AE02D4FB8425F
:1009800001D103271EE02C4FB84201D1042719E002
:100990002A4FB84201D1052714E0294FB84201D1AE
:1009A00006270FE0274FB84201D107270AE0264F5C
:1009B000B84201D1082705E0244FB84201D10927E8
:1009C00000E00A27B7402743CCF80878204E346867
:1009D0004F689C43FF0300D51C4334601C4E361DFA
:1009E00034684F689C43BF0300D51C433460184EE5
:1009F000083634684F689C43FF0200D51C433460BE
:100A0000134E0C3634684F689C43BF0200D51C431C
:100A10003460521C102AFFF43BAFBDE8F88F000091
:100A2000443802400030014000000240000402400F
:100A300000080240000C0240001002400014024076
:100A400000180240001C0240002002400024024026
:100A5000003C01400069084000D0012070470AB105
:100A6000816170470904FBE7014880687047000016
:100A70000C000020024881680278114481607047B0
:100A80000C0000200B4810B5016841F400710160B2
:100A9000016841F480610160016841F48071016086
:100AA000032000F06FF8002000F006F800F024F8B2
:100AB000002010BD003C024070B50D4D04464FF4BF
:100AC0007A712878B1FBF0F00A490968B1FBF0F0BF
:100AD00000F03CFB48B9102C07D200222146501EE2
:100AE00000F030F800206C6070BD012070BD000087
:100AF0000C000020180000200A4808B5016841F4E5
:100B000080410160006800F4804000900548001FAB
:100B1000016841F080510160006800F08050009051
:100B200008BD000044380240002809DB00F01F0225
:100B3000012191404009800000F1E020C0F800113F
:100B400070470000F0B40E4B1B680C46C3F3022341
:100B5000C3F10705042D00D90425191D072901D269
:100B6000002300E0DB1E012606FA05F1491E2140A4
:100B700099409E40761E16403143F0BC01F0C0BD46
:100B80000CED00E0064900F0070208684FF6FF038D
:100B9000184040EA0220034A1043086070470000F2
:100BA0000CED00E00000FA052DE9F8431748016854
:100BB00041F0805101600068154F00F0805001261F
:100BC00000903E64FFF750FF05464FF47A78114CD1
:100BD00005E000BFFFF748FF401B40450DD86068A7
:100BE000C003F7D57E64FFF73FFF0546464607E0A2
:100BF000FFF73AFF401BB04202D90320BDE8F8835B
:100C000060688003F4D50020F8E700004038024017
:100C100000000E42007000402DE9F0470E4605002E
:100C200065D0DFF81481D8F80000F7B200F00F00AB
:100C3000B04207D288F80070D8F8000000F00F002A
:100C4000B04254D128683D4C810712D5400703D5E6
:100C5000206840F4E05020602878000703D5206821
:100C600040F4604020602068A96820F0F00008434C
:100C700020602878C0072DD03049686808390128DD
:100C800012D0022813D0032811D00968890700293F
:100C90002DDA216821F0030101432160FFF7E4FE12
:100CA000814641F2883A0EE009688903EFE7096856
:100CB0008901ECE7FFF7D8FEA0EB0901514502D905
:100CC0000320BDE8F0872068696800F00C00B0EBF5
:100CD000810FEFD1D8F80010404601F00F01B1426A
:100CE00007D90770006800F00F00B04201D0012062
:100CF000E7E72878400705D52068E96820F4E05048
:100D0000084320602878000706D52068296920F468
:100D1000604040EAC100206000F038F82168084ACD
:100D2000C1F30311515CC8400649086006480068D9
:100D3000FFF7C2FE0020C4E7003C02400838024032
:100D400098310008180000201000002004480549D0
:100D500000680968044AC1F38221515CC8407047A9
:100D60001800002008380240A8310008044805494E
:100D700000680968044AC1F34231515CC8407047B9
:100D80001800002008380240A8310008154810B5A6
:100D9000006810F00C02144813D01449042A0FD034
:100DA000082A0ED10F4C241F2268236802F03F024C
:100DB0005B0207D52068C0F38810A0FB010106E0A4
:100DC000084610BD2168C1F38811A1FB0001002372
:100DD000FFF70AFA2168C1F30141491C4900B0FB41
:100DE000F1F010BD083802400024F40040787D0185
:100DF0002DE9F84F04006ED02078DFF83C93C0074F
:100E0000A9F104054AD009F104000168C1F3810188
:100E1000012908D00068C0F3810002280AD1D9F85E
:100E20000000400206D52868800337D56068002896
:100E3000E1D033E06068B0F5803F10D0B0F5A02F6E
:100E4000286810D020F480302860286820F48020A2
:100E500028606068A8B1FFF707FE06460DE0286825
:100E600040F48030F4E740F480202860F7E700BFCA
:100E7000FFF7FAFD801B642873D828688003F7D534
:100E80000CE0FFF7F1FD064605E000BFFFF7ECFDC3
:100E9000801B6428F0D828688003F7D42078DFF816
:100EA0009C8280074FF0000A3ED5A348001D0168D0
:100EB00011F00C0F08D00068C0F3810002280BD19C
:100EC000D9F80000400207D42868800716D5E068EA
:100ED000012800D112E02BE1E068B8B10120C8F888
:100EE0000000FFF7C1FD064605E000BFFFF7BCFDAF
:100EF000801B0228C0D828688007F7D52868216998
:100F000020F0F80040EAC10028600DE0C8F800A019
:100F1000FFF7AAFD064604E0FFF7A6FD801B0228A6
:100F20001FD828688007F7D42078000722D5824E82
:100F300083486169703671B101210160FFF794FD4A
:100F4000074604E0FFF790FDC01B022809D830686F
:100F50008007F7D50EE0C0F800A0FFF785FD074633
:100F600005E082E0FFF780FDC01B02287DD83068D5
:100F70008007F7D42078400768D5DFF8BCB1002798
:100F80000BF13C0BDBF80000C0000BD4DBF80010C9
:100F900041F08051CBF80010DBF80000012700F091
:100FA00080500090674E3068C00510D4306840F41F
:100FB00080703060FFF758FD009005E0FFF754FDAA
:100FC0000099401A022850D83068C005F6D55A4E0C
:100FD000A0686C3601280FD00528306810D020F0AA
:100FE00001003060306820F004003060A068B8B1C3
:100FF000FFF73AFD00900FE0306840F00100F4E7A1
:1010000040F004003060F7E7FFF72EFD0099411A29
:1010100041F28830814266D830688007F4D50EE00E
:10102000FFF722FD009007E0FFF71EFD0099411A2F
:1010300041F28830814256D830688007F4D42FB10D
:10104000DBF8001021F08051CBF80010A069C8B384
:101050003949091D0968C1F3810102294AD00228D2
:10106000504607D0C8F8600000E03CE0FFF7FCFC09
:1010700004463BE04746C8F86000FFF7F5FC06462B
:1010800005E000BFFFF7F0FC801B02282BD8286882
:101090008001F7D4D4E907010843A16A2A4A490824
:1010A00002EB0141626A41EA8211084394F82C1074
:1010B00040EA0161C9F8001001203866FFF7D4FC4E
:1010C000044606E036E000BFFFF7CEFC001B022816
:1010D00009D828688001F7D52CE000BFFFF7C4FCD1
:1010E000001B022802D90320BDE8F88F2868800180
:1010F000F4D41FE00128F7D0D9F80000E26900F429
:101100008001914214D1226A00F03F0191420FD137
:1011100047F6C071626A0140914209D1A26A00F4A7
:101120004031914204D1E16A00F07060884201D000
:101130000120D9E70020D7E70438024000004742E9
:10114000800E4742007000400000FFFF10B5401EB7
:10115000B0F1807F01D3012010BD4FF0E024606129
:101160000F21601701F0CCFA0020A0610720206158
:10117000002010BD7047704710B590F83C20012A40
:1011800022D0012280F83C20CA688C6822F4407288
:1011900022434C6822F4806222430C6822F40062ED
:1011A00022430C6922F4805222434C6922F40052FB
:1011B0002243C969002322F480420A4301684A6439
:1011C00080F83C30002010BD022010BD70B590F8B2
:1011D0003C20012A32D0012480F83C40022280F8D1
:1011E0003D2003685A689D6822F070060A68324301
:1011F0005A60134B02689A4214D0B2F1804F11D05A
:10120000104B9A420ED0104B9A420BD00F4B9A4281
:1012100008D00F4B9A4205D00E4B9A4202D00E4B8B
:101220009A4204D1496825F080031943916080F8FF
:101230003D40002180F83C10084670BD022070BD82
:10124000000001400004004000080040000C004085
:1012500000040140004001400018004010B50400A7
:1012600003D094F83D0010B107E0012010BD00202C
:1012700084F83C00204600F00DF8022084F83D0080
:10128000211D206800F0B2FE012084F83D000020FE
:1012900010BD000008B500680B49884212D10B4808
:1012A000016841F4003101600068002200F4003060
:1012B000009011461920FFF745FCBDE808401920B1
:1012C000FFF732BC08BD0000004401404438024032
:1012D0002DE9F0410D46040003D094F83D0018B10B
:1012E00008E00120BDE8F081002084F83C002046A1
:1012F00000F03AF8022084F83D002068816844F24A
:10130000070291438160211D206800F06FFE226872
:1013100090689169166A2B68AF69034340F2033005
:10132000814341EA0721A868EF6908434FF6FC4171
:101330008843E96840EA0720014328692F6A0001D1
:1013400040EA0730084369686D6926F0AA0646EA54
:10135000051529439360226890612068016201208D
:1013600084F83D000020BDE770B586B00446142126
:101370006846FEF771FF4248256800224149022471
:101380000126854226D13F481430036843F001030B
:101390000360006800F001000590086840F010004C
:1013A00008600868694600F0100005904FF420605E
:1013B0000090CDE90142CDE903263348FFF760FAFA
:1013C000002211461920FFF7BDFB1920FFF7ACFBE7
:1013D00006B070BD2B4B2D481033B5F1804F18D09F
:1013E0002B4EB5422FD11D6845F002051D601B68CC
:1013F00003F0020305930B6843F001030B600968D7
:1014000001F001010591C0210091CDE90142694639
:1014100033E01D6845F001051D601B6803F0010302
:1014200005930B6843F001030B60096801F00101AB
:10143000059122210091CDE90142CDE903266946BB
:10144000FFF71EFAC4E713488542C1D1186840F07F
:1014500004001860186800F004000590086840F067
:10146000080008600868694600F0080005904FF41D
:1014700040500090CDE901420748CDE90324DFE761
:1014800000000140303802400010024000000240DD
:101490000004004000080040000C024010B5044663
:1014A000006891B1042904D00122002100F002FE5D
:1014B000206801225FF0040100F0FCFD2068016853
:1014C00041F001010160002010BD01220021F3E77D
:1014D000704770B50446006801694FF00005C943C4
:1014E000890715D4C168C943890711D4E91E016170
:1014F00001202077206880698007204602D0FFF70E
:10150000E7FF04E000F0F0F8204600F093F92577BB
:1015100020680169C943490717D4C168C94349070D
:1015200013D46FF0040101610220207720688069E4
:1015300010F4407F204602D0FFF7CAFF04E000F01D
:10154000D3F8204600F076F9257720680169C94371
:10155000090716D4C168C943090712D46FF00801FE
:101560000161042020772068C0698007204602D0EE
:10157000FFF7AEFF04E000F0B7F8204600F05AF99C
:10158000257720680169C943C90617D4C168C943D2
:10159000C90613D46FF0100101610820207720687C
:1015A000C06910F4407F204602D0FFF791FF04E0AD
:1015B00000F09AF8204600F03DF92577206801698F
:1015C000C943C90708D1C168C943C90704D1891EE5
:1015D0000161204600F052F920680169C9430906FB
:1015E00009D4C168C943090605D46FF080010161BF
:1015F0002046FFF7BFFD20680169C943490609D4A9
:10160000C168C943490605D46FF040010161204615
:1016100000F03CF920680169C94389060BD4C16810
:10162000C943890607D46FF0200101612046BDE857
:101630007040FFF7A0BD70BD30B587B004461421DF
:101640006846FEF709FE224A216800242148022547
:10165000914223D1016841F001010160016801F06C
:1016600001010591016841F080010160006869464F
:1016700000F0800005900C200090CDE90154164840
:10168000CDE90345FFF7FCF84FF440600090CDE949
:10169000015469461148CDE9034514E0104A9142CE
:1016A00013D1016841F0040101600068694600F04F
:1016B000040005904FF470700090CDE901540320B0
:1016C000CDE903400748FFF7DBF807B030BD000065
:1016D000000C00403038024000000240001C024074
:1016E0000004014000080240704770B5044690F8BD
:1016F0003C000D4601280DD0012684F83C600220F4
:1017000084F83D0042B1042A18D0082A2AD00C2AB5
:101710004DD139E0022070BD206800F0D9FC20686E
:10172000816941F0080181612068816921F004012B
:101730008161206881692A69114311E0206800F005
:10174000F7FC2068816941F400618161206881694A
:1017500021F480618161206881692A6941EA02215E
:10176000816124E0206800F019FD2068C16941F022
:101770000801C1612068C16921F00401C1612068CC
:10178000C1692A69114311E0206800F03BFD20681F
:10179000C16941F40061C1612068C16921F48061BF
:1017A000C1612068C1692A6941EA0221C16184F8E6
:1017B0003D60002084F83C0070BD10B5040003D0EB
:1017C00094F83D0010B107E0012010BD002084F81E
:1017D0003C00204600F00CF8022084F83D00211D5A
:1017E000206800F003FC012084F83D00002010BDBB
:1017F00008B500680C49884208D10C48016841F0DE
:1018000008010160006800F008000BE00849884208
:1018100009D10648001D016841F00201016000681D
:1018200000F00200009008BD000C0040403802406B
:10183000000401407047000010B504460068012212
:1018400000F038FC0B492068884202D00A498842DF
:1018500003D1416C41F4004141642068816801F08A
:101860000701062903D0016841F001010160002051
:1018700010BD000000000140000401400249884200
:1018800001D100F0AFBD7047A0010020704770B5D6
:10189000040004D094F83900002510B106E00120BE
:1018A00070BD84F83850204600F022F8242084F8D7
:1018B00039002068C16821F40051C160204600F061
:1018C000C9FC2068016921F49041016120684169E7
:1018D00021F02A0141612068C16841F40051C160D2
:1018E000E563202084F8390084F83A00002070BDB8
:1018F00010B586B0044614216846FEF7ADFC1449C5
:101900002068884221D113480021026842F0100269
:101910000260006800F0100005900E48143802685C
:1019200042F001020260006800F0010005904FF4EF
:10193000C06000900220CDE9010103200390072040
:10194000049069460448FEF79BFF06B010BD0000F6
:101950000010014044380240000002402DE9F843E5
:10196000044690F839001F4616460D46202850D1EF
:10197000B5B1AEB194F8380001284AD0012084F8FE
:1019800038004FF00008C4F83C80212084F839006A
:10199000FFF76AF8A6848146E68484F8388026E05A
:1019A0000120BDE8F883E08C401EE084A0684B462F
:1019B000B0F5805F4FF000024FF0800120460097A5
:1019C00003D000F0DBFCE8B90DE000F0D7FCC8B9AB
:1019D00028882168C0F308004860206908B16D1CA0
:1019E00005E0AD1C03E0216815F8010B4860E08CB0
:1019F0000028D8D14B46002240212046009700F015
:101A0000BDFC08B10320CCE7202084F83900002079
:101A1000C7E70220C5E7FEE770B586B01421684627
:101A2000FEF71AFC54480024016841F010010160DF
:101A3000016801F010010591016841F004010160A5
:101A4000016801F004010591016841F480710160B1
:101A5000016801F480710591016841F02001016085
:101A6000016801F020010591016841F080010160E9
:101A7000016801F080010591016841F001010160F8
:101A8000016801F001010591016841F00201016066
:101A9000016801F002010591016841F0080101604F
:101AA000016801F008010591016841F04001016001
:101AB0000068324E00F040000590002201213046BF
:101AC000FEF7CDFF7020CDE9000469462C48029452
:101AD000FEF7D6FE40F6F300CDE90004694629483A
:101AE0000294FEF7CDFE4FF4E070CDE900046946A4
:101AF00025480294FEF7C4FE0125CDE9005469464D
:101B000022480294FEF7BCFE4FF4E270CDE90004D7
:101B100069461F480294FEF7B3FE0220CDE9020495
:101B20000095694601953046FEF7AAFE4FF47040D5
:101B3000CDE90004694630460294FEF7A1FE4FF459
:101B4000C050CDE90004694612480294FEF798FEA1
:101B50008C20CDE9000469460F480294FEF790FE00
:101B60004FF43050CDE9000469460C480294FEF76A
:101B700087FE06B070BD000030380240000402400D
:101B80000010024000200240001402400000024009
:101B9000001C024000080240000C024000180240F5
:101BA0000B4810B509490160B3214160002163224F
:101BB000C0E9021201618161FFF750FB002803D0E8
:101BC000BDE81040FEF748BE10BD000000440140D3
:101BD000A001002010B58CB024216846FEF73CFB24
:101BE00000241648099414490A94C0E900144FF6D9
:101BF000FF71C0E902410461446184610120CDE9C3
:101C00000004CDE902040494CDE905400794694637
:101C10000A480894FFF75CFB08B1FEF71DFE099423
:101C200009A906480A94FFF7D1FA002801D0FEF767
:101C300013FE0CB010BD0000000001402000002089
:101C400010B58CB024216846FEF706FB0024154829
:101C500009944FF080410A94C0E900144FF6FF71D7
:101C6000C0E90241046184610120CDE90004CDE9AD
:101C700002040494CDE90540079469460948089494
:101C8000FFF726FB08B1FEF7E7FD099409A905480F
:101C90000A94FFF79BFA002801D0FEF7DDFD0CB097
:101CA00010BD00006000002010B58CB024216846F3
:101CB000FEF7D2FA00241548099413490A94C0E9A2
:101CC00000144FF6FF71C0E90241046184610120F4
:101CD000CDE90004CDE902040494CDE90540079460
:101CE00069460A480894FFF7F3FA08B1FEF7B4FD15
:101CF000099409A905480A94FFF768FA002801D059
:101D0000FEF7AAFD0CB010BD00040040A0000020AA
:101D100010B58CB024216846FEF79EFA00241548C1
:101D2000099413490A94C0E900144FF6FF71C0E901
:101D30000241046184610120CDE90004CDE902047F
:101D40000494CDE90540079469460A480894FFF7D2
:101D5000BFFA08B1FEF780FD099409A905480A9465
:101D6000FFF734FA002801D0FEF776FD0CB010BD65
:101D700000080040E000002010B58AB0002407945D
:101D80001C2168460894FEF767FA22482049016042
:101D90001121C0E9011440F2E731C0E90314846164
:101DA000FFF70BFD08B1FEF757FD079407A9194887
:101DB0000894FFF70BFA08B1FEF74EFD6020CDE95D
:101DC000000402940022694612480494FFF78DFC37
:101DD00008B1FEF741FD042269460E48FFF785FC75
:101DE00008B1FEF739FD082269460A48FFF77DFC75
:101DF00008B1FEF731FD0C2269460648FFF775FC75
:101E000008B1FEF729FD0348FFF716FC0AB010BD24
:101E1000000C00402001002010B592B000240F9467
:101E20001C2168461094FEF717FA202107A8FEF738
:101E300013FA2C482A4901601121C0E9011440F22B
:101E4000E731C0E9031444618461FFF7B6FC08B1CF
:101E5000FEF702FD0F940FA922481094FFF7B6F980
:101E600008B1FEF7F9FC6020CDE900040294039468
:101E700004940594002269461A480694FFF735FC3D
:101E800008B1FEF7E9FC042269461648FFF72DFC6D
:101E900008B1FEF7E1FC082269461248FFF725FC6D
:101EA00008B1FEF7D9FC0C2269460E48FFF71DFC6D
:101EB00008B1FEF7D1FC0794089409944FF4005040
:101EC0000A94CDE90B4007A906480E94FFF754F990
:101ED00008B1FEF7C1FC0348FFF7AEFB12B010BD1E
:101EE00000040140600100200C4810B50A4901605F
:101EF0004FF4E1314160002181600C22C160C0E9F2
:101F000004128161C161FFF7C2FC002803D0BDE863
:101F10001040FEF7A1BC10BD00100140E001002000
:101F2000FEE7704770477047FEF7A4BD30B593B029
:101F300030216846FEF790F914210CA8FEF78CF9C1
:101F40001A480025016841F080510160006800F0E6
:101F5000805011901648016841F4404101600068CA
:101F6000022400F4404011900120039010200490BE
:101F7000009406940820CDE90750B420CDE9090467
:101F800004200B906846FEF733FFFEF70DFE0CA908
:101F90000F2081E831004FF4A0500F90E002109024
:101FA00005210CA8FEF738FE13B030BD40380240C2
:101FB000007000400548016841F470010160034968
:101FC0004FF00060803908607047000088ED00E045
:101FD00010B50448FFF77DFABDE810400248FFF74E
:101FE00078BA000020000020A0010020F0B50268AF
:101FF000254C264D264E274F274B4FF0804CA042B4
:1020000009D0604507D0A84205D0B04203D0B842FD
:1020100001D0984204D122F0700E4A6842EA0E02C2
:10202000A0421BD0604519D0A84217D0B04215D0AD
:10203000B84213D0984211D0184DA8420ED0184D76
:10204000A8420BD0174DA84208D0174DA84205D082
:10205000164DA84202D0164DA84203D122F4407575
:10206000CA682A434D6922F080022A4302608A68C6
:10207000C2620A688262A04201D0984201D1096915
:10208000016301214161F0BD0000014000040040F6
:1020900000080040000C00400004014000400140E6
:1020A000004401400048014000180040001C00406E
:1020B0000020004010B501F01F030121046A99407F
:1020C0008C430462016A9A401143016210BD000012
:1020D000F0B5026A22F001020262036A4268846972
:1020E000124E24F073050C682C4323F002058B6814
:1020F0002B430D4DA84201D0B04205D123F0080773
:10210000CB683B4323F00403A84201D0B04205D181
:102110004D6922F4407215438A692A434260846102
:10212000496841630362F0BD0000014000040140C2
:10213000F0B5026A22F010020262026A4368846902
:102140000D6824F4E64444EA05248D6822F0200258
:1021500042EA05120F4D104EA84201D0B04206D1FE
:10216000CF6822F0800242EA071222F04002A84221
:1021700001D0B04207D14D6923F4406343EA85039F
:102180008D6943EA85034360846149688163026223
:10219000F0BD00000000014000040140F0B5026AFB
:1021A00022F480720262026A4368C46922F40072F7
:1021B00024F073050C68124E2C438D6842EA052208
:1021C0000E4DA84201D0B04206D1CF6822F4006281
:1021D00042EA072222F48062A84201D0B04207D12D
:1021E0004D6923F4405343EA05138D6943EA05130F
:1021F0004360C4614968C1630262F0BD00000140F0
:102200000004014030B5026A22F480520262046A7E
:102210004268C3690D6823F4E64343EA05238D68E9
:1022200024F4005444EA0534084DA84202D0084D75
:10223000A84204D14D6922F4804242EA85124260EC
:10224000C36149680164046230BD000000000140C0
:10225000000401402DE9F041044600680169E2688C
:1022600021F44051114301612169A068E2690843EA
:102270006169114308432168CA6849F20C639A43B3
:102280000243CA6020684169A26921F44071114388
:102290004161E069192764253226B0F5004F354ABF
:1022A000354920684FF0000806D0884201D090429E
:1022B00036D1FEF75BFD35E0884201D0904202D175
:1022C000FEF754FD01E0FEF741FD61684A18A0FBEE
:1022D000070148EB0803FDF787FF0146B0FBF5F067
:1022E0000201B1FBF5F06FF01803584301EB8000D9
:1022F00006EBC000B0FBF5F000F0F80002EB400286
:10230000B1FBF5F0584301EB800006EBC000B0FBD9
:10231000F5F000F00700216810448860BDE8F08106
:10232000FEF714FD61688B0F8A00A0FB0701FDF723
:102330005BFF0146B0FBF5F06FF01802504301EB74
:10234000800006EB0010B0FBF5F000F0F002B1FBEE
:10235000F5F002EB0012B1FBF5F06FF018035843F3
:1023600001EB800006EB0010B0FBF5F000F00F0071
:10237000D1E7000000140140001001402DE9F041B8
:10238000984617460E460446069D1DE0681C1BD065
:102390002DB1FEF769FBA0EB0800A84214D9206814
:1023A000C16821F4D071C1602068416921F0010148
:1023B0004161202084F8390084F83A00002084F834
:1023C00038000320BDE8F0812068006836EA00008C
:1023D00004D00020B842D9D00020F3E70120F9E76B
:1023E000FEE700002DE9F043B44C4FF4807593B044
:1023F00029462046FEF72EFB009080212046FEF75E
:1024000029FB019040212046FEF724FBE614AC4C4A
:10241000029031462046FEF71DFBAA4F0390402153
:102420003846FEF717FB049020213846FEF712FBD2
:10243000059010213846FEF70DFB0690DDE90001FE
:102440000844DDE90212114408440499084405993E
:10245000084406990844012804D10020401CC0B259
:102460000628FBD92946984D2846FEF7F3FA974FE0
:102470004FF480590D9049463846FEF7EBFA4FF479
:1024800000580C9041463846FEF7E4FA0B904FF4A2
:1024900080413846FEF7DEFA0A904FF40041384694
:1024A000FEF7D8FA099040212846FEF7D3FA0890A3
:1024B00080212846FEF7CEFA089907900844DDE906
:1024C0000921114408440B9908440C9901440D98C2
:1024D0000844012804D10020401CC0B20628FBD9C2
:1024E0007B4D41462846FEF7B5FA0D902915284642
:1024F000FEF7B0FA774F0C9080213846FEF7AAFA23
:102500000B9008213846FEF7A5FA0A9004213846B8
:10251000FEF7A0FA704F099049463846FEF79AFA3E
:10252000089031463846FEF795FA08990790084416
:10253000DDE90912114408440B9908440C99084438
:102540000D990844012804D10021491CC9B206296B
:10255000FBD902212046FEF77DFA0B90012120468F
:10256000FEF778FA0C9031462846FEF773FA0D9084
:1025700010212046FEF76EFA0E9020212046FEF72D
:1025800069FA0F9040212046FEF764FA10908021EE
:102590002046FEF75FFA1190DDE90B010844DDE902
:1025A0000D12114408440F990844109908441199D8
:1025B0000844012804D10020401CC0B20628FBD9E1
:1025C000464C0125207801280FD0022801D003288D
:1025D00008D10A98012802D00998012802D1012ABD
:1025E00000D1A56013B0BDE8F08303984FF42F79B4
:1025F000012804D100221146484600F0E6FC02986A
:102600006FF03106012801D1049818B1049801280F
:1026100003D00AE01422314604E0029828B96FF092
:1026200013023221484600F0D0FC01986FF0630895
:1026300040F28A27012806D1059820B93222414666
:10264000384600F0C2FC0598012806D1019820B94F
:1026500032466421384600F0B8FC00984FF41676F4
:10266000012806D1069820B946224146304600F09E
:10267000ACFC0698012807D1009828B96FF04502F4
:102680006421304600F0A1FC02980128AAD10398E9
:102690000128A7D104980128A4D100221146484658
:1026A00000F093FC029801289CD10398012899D14D
:1026B0000498012896D1656094E700000014024058
:1026C0000020024000100240001C024000040240B2
:1026D00000180240000C02400008024000000020E8
:1026E0000FB4054B10B503A9044A029800F0EAF8AC
:1026F00010BC5DF814FB0000413000081C000020F5
:102700000907090E002804DB00F1E02080F800141E
:10271000704700F00F0000F1E02080F8141D7047B2
:1027200002E008C8121F08C1002AFAD1704770479A
:10273000002001E001C1121F002AFBD170470000F8
:102740002DE9FF5F82B00021DDE90430020DDDF8E4
:1027500040B0034318D044F61050A2F2FF32424377
:102760001514119801281FD0A5EB0B00401C5FEA3F
:10277000000A4FF000064E4FDFF83891B046504641
:1027800015D5CAF1000413E0119801244AA30128C9
:1027900001D16FEA0B010298119AC0E90031C0E93A
:1027A000024206B0BDE8F09FCBF10000DFE704462F
:1027B0000021404A491842EB0450CDE9001012E0D4
:1027C000E00707D032463B4640464946FDF74FFDFD
:1027D0008046894632463B4610461946FDF747FD7E
:1027E00006460F466410002CEAD1DDE90401DDE95C
:1027F0000023BAF1000F06DAFDF739FD42464B46D9
:10280000FDF735FD05E0FDF7A4FD42464B46FDF71B
:10281000A0FD04460E460022284BFDF7DFFF03D83B
:102820004FF0FF30014607E00022254B204631469D
:10283000FDF714FFFDF7B9FF102409E0002C0ADBB7
:102840000A220023FDF7D0FC039B30321A55641E88
:1028500050EA0102F2D1641C039AC4F1110314443A
:10286000119A012A03D0012208430DD10AE008433E
:1028700004D000204FF0110B119072E7A3EB0B0571
:102880006D1E0DE05B4504DD4FF0000205F1010512
:1028900004E003DA4FF00002A5F10105002AECD0B4
:1028A00002981199C0E90231C0E9004579E70000BA
:1028B000000014400000F03F300000000000F04332
:1028C0000000E03F2DE9FF4F95B09A468846064646
:1028D0000025EEE1252877D100242746F94A012179
:1028E000039400E0044316F8013F203B01FA03F093
:1028F0001042F7D130782A2811D06FF02F033078AA
:10290000A0F13002092A16D8039A44F0020402EB1F
:10291000820203EB42021044761C0390EFE758F862
:10292000042B0392002A03DA504244F4005403902B
:1029300044F00204761C30782E2816D116F8010FC8
:1029400044F004042A280DD06FF02F023078A0F153
:102950003003092B09D807EB870302EB4303C718A1
:10296000761CF3E758F8047B761C30786C280FD07F
:1029700006DC4C2817D068280DD06A2814D104E052
:10298000742810D07A280FD10DE044F400140AE026
:1029900044F4801401E044F440147278824202D17D
:1029A00004F58014761C761C307866280BD013DC76
:1029B000582877D009DC002875D04528F6D046285D
:1029C000F4D047281AD193E118E0632835D0642861
:1029D00079D0652812D18BE1702873D008DC672884
:1029E000F1D069286FD06E280DD06F2806D1ACE0E9
:1029F00073282CD0752874D0782853D05246179954
:102A000090476D1C54E1C4F30250022809D00328FA
:102A10000DD0D8F8001004280DD00D6008F104087E
:102A200046E1D8F80010EA17C1E90052F6E7D8F8F5
:102A300000100D80F2E70D70F0E718F8041B8DF818
:102A4000001000208DF80100EB46012003E058F84B
:102A500004BB4FF0FF3061074FF0000102D40DE0DE
:102A600009F101018946B9420FDA8145F8DB1BF80B
:102A700009100029F4D108E009F1010189468142D9
:102A8000FADB1BF809100029F6D103985346A0EB96
:102A9000090721463846179A00F080FA284400EBCF
:102AA000090507E044E008E10DE01BF8010B524680
:102AB00017999047B9F10109F7D253462146384694
:102AC000179AF2E039E00A21C4F302524FF0000BEA
:102AD0000091022A06D058F8040BC117032A09D026
:102AE0000AE023E008F1070020F00702F2E8020103
:102AF000904605E000B2C117042A01D140B2C117C7
:102B0000002906DA0A460021404261EB02012D222B
:102B100002E0220504D52B228DF80420012203E0D7
:102B2000E20701D02022F7E7914657E00A2100E0B2
:102B300010214FF0000B00910BE010214FF0000B23
:102B400044F004040827009103E008204FF0000B34
:102B50000090C4F30252022A05D058F8040B002159
:102B6000032A08D008E008F1070020F00702F2E885
:102B70000201904603E080B2042A00D1C0B24FF0B7
:102B8000000922072AD53278702A07D0DDF800C064
:102B90008CF0100C5CEA0B0C05D00EE040228DF896
:102BA0000420012208E050EA010306D030238DF80A
:102BB00004308DF8052002229146009B83F0080323
:102BC00053EA0B030AD150EA010201D1620705D58D
:102BD00030228DF804204FF001097F1E3278582AE8
:102BE00004D039A20C920CAA02920BE03BA2F9E7A6
:102BF0005B46009AFDF7F8FA0C9B9B5C029A521E0A
:102C00000292137050EA0102F2D1029804A9081A44
:102C100000F1200B600702D524F4803400E0012786
:102C20005F4502DDA7EB0B0000E0002000EB0B018D
:102C3000009003984944401A0390E00306D4534699
:102C40002146179A039800F0A9F90544002706E0E9
:102C500001A85246C05D179990476D1C7F1C4F45D7
:102C6000F6DBE0030CD553462146179A039800F093
:102C700095F9054404E030205246179990476D1CA1
:102C80000099481E00900029F5DC08E0029802999E
:102C900052460078491C0291179990476D1CBBF170
:102CA0000001ABF1010BF1DC5BE100F065F90544DB
:102CB000761C307800287FF40DAE19B02846BDE8A8
:102CC000F08F0000092801003031323334353637B7
:102CD0003839616263646566000000003031323368
:102CE0003435363738394142434445460000000008
:102CF000600700D4062708F1070020F00700F0E87D
:102D00000223804603F0004C5FEA0C0001D097A03C
:102D100009E0200501D596A005E0E00701D095A0C7
:102D200001E0AFF24C001390307823F000436528A7
:102D30000CD006DC452809D046281DD047287FD175
:102D40003BE0662818D067287AD136E00021112FA1
:102D500001DB112000E0781CCDE9000104A90CA8DA
:102D6000FFF7EEFCDDE90D010C9A4FF0000B07F1C7
:102D70000109109200914EE04FF000400097CDE91C
:102D8000011004A90CA8FFF7DBFCDDE90D020C9B88
:102D90000F994FF0000B91461093009211B9791CD6
:102DA00000EB0109B7EB090003D4C0F1FF3B07F1C9
:102DB0000109A9EB0700019042E0012F00DA012789
:102DC0000021112F01DD112000E03846CDE900017E
:102DD00004A90CA8FFF7B4FCDDE90D010C9A0091E1
:102DE0004FF0000BB946109221070FD4009A4A45C4
:102DF00003DA914601E0A9F10109B9F1010F05DDFE
:102E0000109AA9F10101515C3029F4D0B84202DADC
:102E100010F1040F03DA0121CDE9011010E00028C0
:102E200003DC8344A9EB000102E0411C494500DDBD
:102E30008946A0EB0B00401C01904FF0004002902F
:102E4000200705D40198484502DB4FF0FF30019080
:102E500000208DF84B0002980DF14B07B0F1004FA8
:102E600025D002200C902B200D90029800280CDA1F
:102E7000404202902D200D9007E00A210298FDF7B4
:102E800024FB3031029007F8011D0C99481E0C906C
:102E90000029F2DC02980028EFD1791E0D98087005
:102EA000307800F0200040F0450007F8020D11A82E
:102EB000C01BC01D02901398007800B1012000EBE8
:102EC0000901019801EBE071029801440398401A4E
:102ED000401E0390E00306D453462146179A0398F8
:102EE00000F05CF805441398007818B15246179921
:102EF00090476D1CE00323D553462146179A03984B
:102F000000F04CF805441BE0BBF1000F07DB009814
:102F1000584504DD1098179910F80B0001E0179937
:102F200030205246904701980BF1010B401E05F1ED
:102F30000105019004D12E205246179990476D1C2F
:102F4000B9F10001A9F10109DEDC05E017F8010B78
:102F50005246179990476D1C0299481E029000290D
:102F6000F4DC53462146179A03989EE62D00000094
:102F70002B000000200000002DE9F0410446002550
:102F80001E461746880404D405E039462020B04781
:102F90006D1C641EF9D52846BDE8F0812DE9F0418D
:102FA000044600251E469046C80301D5302700E0A0
:102FB0002027880404D505E041463846B0476D1CFB
:102FC000641EF9D52846BDE8F081431810B49C1A58
:102FD000401A8118801A13440246204610BC00F0A3
:102FE00001B8000070B5144D00242E1D002802DB2E
:102FF0002860346002E02C6040423060002902DB2F
:103000002960346002E02C60484230600B49081DA2
:10301000002A02DB0A60046002E00C605142016099
:1030200006490839081D002B02DB0B60046070BDE7
:103030000C605942016070BD340401403C0C0040FA
:1030400038B504468DF800004FF47A7301226946C2
:103050000248FEF783FC204638BD0000E001002056
:103060002DED068BFDF70EFDFEF760FFFEF7D4FC9D
:10307000FEF7B0FDFEF7E4FDFEF716FEFEF748FE94
:10308000FEF77AFEFEF7C8FEFEF78AFDFEF72CFF7C
:1030900008212D48FEF7D0FB0C212B48FEF7CCFB76
:1030A00000212A48FEF7C8FB04212848FEF7C4FB8C
:1030B00008212648FEF7C0FB0C212448FEF7BCFB84
:1030C00000212148FEF7B8FB04211F48FEF7B4FB9E
:1030D0003C211F48FEF7E2F91D480068416A8CB2A6
:1030E0000021416221461BA0FFF7FAFA4FF47A70E3
:1030F000FDF7B4FB9FED1CAB9FED1D9B9FED1E8B61
:10310000B4F5004F03D22046FDF7A3F903E0A4F580
:103110008030FDF78DF953EC1A2BFDF71AF953ECBB
:10312000192BFDF7A4F853EC182BFDF7A0F8FDF7C9
:10313000B0F9FDF79BF941EC100B11A053EC102BEB
:10314000FFF7CEFAFEE7000020010020600100201A
:1031500020000020456E636F64655F313A202020B7
:1031600025642020200A00000000000000F09440A8
:1031700000000000000018401F85EB51B81E0940F8
:103180004D315FE4BD8DE7A7BB3A202020256620A6
:10319000202020636D200A000000000000000000D5
:1031A00001020304060708090000000001020304ED
:1031B000D031000800000020200000002027000877
:1031C000F031000820000020000600003027000831
:1031D00000000000000000000000000001000000EE
:1031E00010000000000000000024F40000000000B7
:04000005080001AD41
:00000001FF
